{"project/contracts/SimpleOptimisticRollup.sol":{"SimpleOptimisticRollup":{"abi":[{"inputs":[{"internalType":"uint256","name":"_challengePeriodSeconds","type":"uint256"}],"stateMutability":"nonpayable","type":"constructor"},{"inputs":[{"internalType":"uint256","name":"batchId","type":"uint256"}],"name":"BatchAlreadyChallenged","type":"error"},{"inputs":[{"internalType":"uint256","name":"batchId","type":"uint256"}],"name":"BatchAlreadyFinalized","type":"error"},{"inputs":[{"internalType":"uint256","name":"batchId","type":"uint256"}],"name":"BatchDoesNotExist","type":"error"},{"inputs":[{"internalType":"uint256","name":"batchId","type":"uint256"}],"name":"BatchIsChallenged","type":"error"},{"inputs":[{"internalType":"uint256","name":"batchId","type":"uint256"}],"name":"ChallengeWindowClosed","type":"error"},{"inputs":[{"internalType":"uint256","name":"batchId","type":"uint256"}],"name":"ChallengeWindowStillOpen","type":"error"},{"anonymous":false,"inputs":[{"indexed":true,"internalType":"uint256","name":"batchId","type":"uint256"},{"indexed":true,"internalType":"address","name":"challenger","type":"address"},{"indexed":false,"internalType":"bytes32","name":"reasonHash","type":"bytes32"}],"name":"BatchChallenged","type":"event"},{"anonymous":false,"inputs":[{"indexed":true,"internalType":"uint256","name":"batchId","type":"uint256"},{"indexed":true,"internalType":"bytes32","name":"stateRoot","type":"bytes32"}],"name":"BatchFinalized","type":"event"},{"anonymous":false,"inputs":[{"indexed":true,"internalType":"uint256","name":"batchId","type":"uint256"},{"indexed":true,"internalType":"bytes32","name":"stateRoot","type":"bytes32"},{"indexed":false,"internalType":"bytes32","name":"txRoot","type":"bytes32"},{"indexed":false,"internalType":"uint256","name":"submittedAt","type":"uint256"}],"name":"BatchSubmitted","type":"event"},{"inputs":[{"internalType":"uint256","name":"","type":"uint256"}],"name":"batches","outputs":[{"internalType":"bytes32","name":"stateRoot","type":"bytes32"},{"internalType":"bytes32","name":"txRoot","type":"bytes32"},{"internalType":"uint256","name":"submittedAt","type":"uint256"},{"internalType":"bool","name":"challenged","type":"bool"},{"internalType":"bool","name":"finalized","type":"bool"}],"stateMutability":"view","type":"function"},{"inputs":[{"internalType":"uint256","name":"_batchId","type":"uint256"},{"internalType":"bytes32","name":"_reasonHash","type":"bytes32"}],"name":"challengeBatch","outputs":[],"stateMutability":"nonpayable","type":"function"},{"inputs":[],"name":"challengePeriod","outputs":[{"internalType":"uint256","name":"","type":"uint256"}],"stateMutability":"view","type":"function"},{"inputs":[{"internalType":"uint256","name":"_batchId","type":"uint256"}],"name":"finalizeBatch","outputs":[],"stateMutability":"nonpayable","type":"function"},{"inputs":[],"name":"latestBatchId","outputs":[{"internalType":"uint256","name":"","type":"uint256"}],"stateMutability":"view","type":"function"},{"inputs":[{"internalType":"bytes32","name":"_stateRoot","type":"bytes32"},{"internalType":"bytes32","name":"_txRoot","type":"bytes32"}],"name":"submitBatch","outputs":[{"internalType":"uint256","name":"batchId","type":"uint256"}],"stateMutability":"nonpayable","type":"function"}],"evm":{"bytecode":{"linkReferences":{},"object":"60a060405234801561000f575f80fd5b506040516109b83803806109b883398181016040528101906100319190610076565b8060808181525050506100a1565b5f80fd5b5f819050919050565b61005581610043565b811461005f575f80fd5b50565b5f815190506100708161004c565b92915050565b5f6020828403121561008b5761008a61003f565b5b5f61009884828501610062565b91505092915050565b6080516108f16100c75f395f8181610203015281816104ed01526105b301526108f15ff3fe608060405234801561000f575f80fd5b5060043610610060575f3560e01c80630b87a8b6146100645780632bd2c9c1146100805780634d4e7019146100b0578063b32c4d8d146100ce578063e33491a714610102578063f3f480d91461011e575b5f80fd5b61007e6004803603810190610079919061068b565b61013c565b005b61009a600480360381019061009591906106c9565b6102e5565b6040516100a79190610716565b60405180910390f35b6100b86103d6565b6040516100c59190610716565b60405180910390f35b6100e860048036038101906100e3919061072f565b6103db565b6040516100f9959493929190610783565b60405180910390f35b61011c6004803603810190610117919061072f565b610426565b005b6101266105b1565b6040516101339190610716565b60405180910390f35b5f60015f8481526020019081526020015f20905061015a83826105d5565b8060030160019054906101000a900460ff16156101ae57826040517fa99bd7810000000000000000000000000000000000000000000000000000000081526004016101a59190610716565b60405180910390fd5b806003015f9054906101000a900460ff161561020157826040517f347d276f0000000000000000000000000000000000000000000000000000000081526004016101f89190610716565b60405180910390fd5b7f000000000000000000000000000000000000000000000000000000000000000081600201546102319190610801565b42111561027557826040517f4046dd8100000000000000000000000000000000000000000000000000000000815260040161026c9190610716565b60405180910390fd5b6001816003015f6101000a81548160ff0219169083151502179055503373ffffffffffffffffffffffffffffffffffffffff16837f299468d5db026de6da949eaa2db6538194f5786e9f5987d21f912b8864f32e8e846040516102d89190610834565b60405180910390a3505050565b5f805f81546102f39061084d565b91905081905590506040518060a001604052808481526020018381526020014281526020015f151581526020015f151581525060015f8381526020019081526020015f205f820151815f015560208201518160010155604082015181600201556060820151816003015f6101000a81548160ff02191690831515021790555060808201518160030160016101000a81548160ff02191690831515021790555090505082817f10494fd8d078f65a2fe29b29e5d55c999ce38ad208f875aac615fcad550bd52384426040516103c8929190610894565b60405180910390a392915050565b5f5481565b6001602052805f5260405f205f91509050805f015490806001015490806002015490806003015f9054906101000a900460ff16908060030160019054906101000a900460ff16905085565b5f60015f8381526020019081526020015f20905061044482826105d5565b8060030160019054906101000a900460ff161561049857816040517fa99bd78100000000000000000000000000000000000000000000000000000000815260040161048f9190610716565b60405180910390fd5b806003015f9054906101000a900460ff16156104eb57816040517faf4c38cf0000000000000000000000000000000000000000000000000000000081526004016104e29190610716565b60405180910390fd5b7f0000000000000000000000000000000000000000000000000000000000000000816002015461051b9190610801565b42101561055f57816040517f3de6c5d60000000000000000000000000000000000000000000000000000000081526004016105569190610716565b60405180910390fd5b60018160030160016101000a81548160ff021916908315150217905550805f0154827fa3ea0288fb824a30cae7f7d72a9e887bd0926c40c8438c43b49cfca687b0df5260405160405180910390a35050565b7f000000000000000000000000000000000000000000000000000000000000000081565b5f81600201540361061d57816040517ff14984a40000000000000000000000000000000000000000000000000000000081526004016106149190610716565b60405180910390fd5b5050565b5f80fd5b5f819050919050565b61063781610625565b8114610641575f80fd5b50565b5f813590506106528161062e565b92915050565b5f819050919050565b61066a81610658565b8114610674575f80fd5b50565b5f8135905061068581610661565b92915050565b5f80604083850312156106a1576106a0610621565b5b5f6106ae85828601610644565b92505060206106bf85828601610677565b9150509250929050565b5f80604083850312156106df576106de610621565b5b5f6106ec85828601610677565b92505060206106fd85828601610677565b9150509250929050565b61071081610625565b82525050565b5f6020820190506107295f830184610707565b92915050565b5f6020828403121561074457610743610621565b5b5f61075184828501610644565b91505092915050565b61076381610658565b82525050565b5f8115159050919050565b61077d81610769565b82525050565b5f60a0820190506107965f83018861075a565b6107a3602083018761075a565b6107b06040830186610707565b6107bd6060830185610774565b6107ca6080830184610774565b9695505050505050565b7f4e487b71000000000000000000000000000000000000000000000000000000005f52601160045260245ffd5b5f61080b82610625565b915061081683610625565b925082820190508082111561082e5761082d6107d4565b5b92915050565b5f6020820190506108475f83018461075a565b92915050565b5f61085782610625565b91507fffffffffffffffffffffffffffffffffffffffffffffffffffffffffffffffff8203610889576108886107d4565b5b600182019050919050565b5f6040820190506108a75f83018561075a565b6108b46020830184610707565b939250505056fea2646970667358221220bbf2ad8c4d5758b70514f71e9c0f988f54e23594daad45b7a38481021c0376e064736f6c63430008180033","opcodes":"PUSH1 0xA0 PUSH1 0x40 MSTORE CALLVALUE DUP1 ISZERO PUSH2 0xF JUMPI PUSH0 DUP1 REVERT JUMPDEST POP PUSH1 0x40 MLOAD PUSH2 0x9B8 CODESIZE SUB DUP1 PUSH2 0x9B8 DUP4 CODECOPY DUP2 DUP2 ADD PUSH1 0x40 MSTORE DUP2 ADD SWAP1 PUSH2 0x31 SWAP2 SWAP1 PUSH2 0x76 JUMP JUMPDEST DUP1 PUSH1 0x80 DUP2 DUP2 MSTORE POP POP POP PUSH2 0xA1 JUMP JUMPDEST PUSH0 DUP1 REVERT JUMPDEST PUSH0 DUP2 SWAP1 POP SWAP2 SWAP1 POP JUMP JUMPDEST PUSH2 0x55 DUP2 PUSH2 0x43 JUMP JUMPDEST DUP2 EQ PUSH2 0x5F JUMPI PUSH0 DUP1 REVERT JUMPDEST POP JUMP JUMPDEST PUSH0 DUP2 MLOAD SWAP1 POP PUSH2 0x70 DUP2 PUSH2 0x4C JUMP JUMPDEST SWAP3 SWAP2 POP POP JUMP JUMPDEST PUSH0 PUSH1 0x20 DUP3 DUP5 SUB SLT ISZERO PUSH2 0x8B JUMPI PUSH2 0x8A PUSH2 0x3F JUMP JUMPDEST JUMPDEST PUSH0 PUSH2 0x98 DUP5 DUP3 DUP6 ADD PUSH2 0x62 JUMP JUMPDEST SWAP2 POP POP SWAP3 SWAP2 POP POP JUMP JUMPDEST PUSH1 0x80 MLOAD PUSH2 0x8F1 PUSH2 0xC7 PUSH0 CODECOPY PUSH0 DUP2 DUP2 PUSH2 0x203 ADD MSTORE DUP2 DUP2 PUSH2 0x4ED ADD MSTORE PUSH2 0x5B3 ADD MSTORE PUSH2 0x8F1 PUSH0 RETURN INVALID PUSH1 0x80 PUSH1 0x40 MSTORE CALLVALUE DUP1 ISZERO PUSH2 0xF JUMPI PUSH0 DUP1 REVERT JUMPDEST POP PUSH1 0x4 CALLDATASIZE LT PUSH2 0x60 JUMPI PUSH0 CALLDATALOAD PUSH1 0xE0 SHR DUP1 PUSH4 0xB87A8B6 EQ PUSH2 0x64 JUMPI DUP1 PUSH4 0x2BD2C9C1 EQ PUSH2 0x80 JUMPI DUP1 PUSH4 0x4D4E7019 EQ PUSH2 0xB0 JUMPI DUP1 PUSH4 0xB32C4D8D EQ PUSH2 0xCE JUMPI DUP1 PUSH4 0xE33491A7 EQ PUSH2 0x102 JUMPI DUP1 PUSH4 0xF3F480D9 EQ PUSH2 0x11E JUMPI JUMPDEST PUSH0 DUP1 REVERT JUMPDEST PUSH2 0x7E PUSH1 0x4 DUP1 CALLDATASIZE SUB DUP2 ADD SWAP1 PUSH2 0x79 SWAP2 SWAP1 PUSH2 0x68B JUMP JUMPDEST PUSH2 0x13C JUMP JUMPDEST STOP JUMPDEST PUSH2 0x9A PUSH1 0x4 DUP1 CALLDATASIZE SUB DUP2 ADD SWAP1 PUSH2 0x95 SWAP2 SWAP1 PUSH2 0x6C9 JUMP JUMPDEST PUSH2 0x2E5 JUMP JUMPDEST PUSH1 0x40 MLOAD PUSH2 0xA7 SWAP2 SWAP1 PUSH2 0x716 JUMP JUMPDEST PUSH1 0x40 MLOAD DUP1 SWAP2 SUB SWAP1 RETURN JUMPDEST PUSH2 0xB8 PUSH2 0x3D6 JUMP JUMPDEST PUSH1 0x40 MLOAD PUSH2 0xC5 SWAP2 SWAP1 PUSH2 0x716 JUMP JUMPDEST PUSH1 0x40 MLOAD DUP1 SWAP2 SUB SWAP1 RETURN JUMPDEST PUSH2 0xE8 PUSH1 0x4 DUP1 CALLDATASIZE SUB DUP2 ADD SWAP1 PUSH2 0xE3 SWAP2 SWAP1 PUSH2 0x72F JUMP JUMPDEST PUSH2 0x3DB JUMP JUMPDEST PUSH1 0x40 MLOAD PUSH2 0xF9 SWAP6 SWAP5 SWAP4 SWAP3 SWAP2 SWAP1 PUSH2 0x783 JUMP JUMPDEST PUSH1 0x40 MLOAD DUP1 SWAP2 SUB SWAP1 RETURN JUMPDEST PUSH2 0x11C PUSH1 0x4 DUP1 CALLDATASIZE SUB DUP2 ADD SWAP1 PUSH2 0x117 SWAP2 SWAP1 PUSH2 0x72F JUMP JUMPDEST PUSH2 0x426 JUMP JUMPDEST STOP JUMPDEST PUSH2 0x126 PUSH2 0x5B1 JUMP JUMPDEST PUSH1 0x40 MLOAD PUSH2 0x133 SWAP2 SWAP1 PUSH2 0x716 JUMP JUMPDEST PUSH1 0x40 MLOAD DUP1 SWAP2 SUB SWAP1 RETURN JUMPDEST PUSH0 PUSH1 0x1 PUSH0 DUP5 DUP2 MSTORE PUSH1 0x20 ADD SWAP1 DUP2 MSTORE PUSH1 0x20 ADD PUSH0 KECCAK256 SWAP1 POP PUSH2 0x15A DUP4 DUP3 PUSH2 0x5D5 JUMP JUMPDEST DUP1 PUSH1 0x3 ADD PUSH1 0x1 SWAP1 SLOAD SWAP1 PUSH2 0x100 EXP SWAP1 DIV PUSH1 0xFF AND ISZERO PUSH2 0x1AE JUMPI DUP3 PUSH1 0x40 MLOAD PUSH32 0xA99BD78100000000000000000000000000000000000000000000000000000000 DUP2 MSTORE PUSH1 0x4 ADD PUSH2 0x1A5 SWAP2 SWAP1 PUSH2 0x716 JUMP JUMPDEST PUSH1 0x40 MLOAD DUP1 SWAP2 SUB SWAP1 REVERT JUMPDEST DUP1 PUSH1 0x3 ADD PUSH0 SWAP1 SLOAD SWAP1 PUSH2 0x100 EXP SWAP1 DIV PUSH1 0xFF AND ISZERO PUSH2 0x201 JUMPI DUP3 PUSH1 0x40 MLOAD PUSH32 0x347D276F00000000000000000000000000000000000000000000000000000000 DUP2 MSTORE PUSH1 0x4 ADD PUSH2 0x1F8 SWAP2 SWAP1 PUSH2 0x716 JUMP JUMPDEST PUSH1 0x40 MLOAD DUP1 SWAP2 SUB SWAP1 REVERT JUMPDEST PUSH32 0x0 DUP2 PUSH1 0x2 ADD SLOAD PUSH2 0x231 SWAP2 SWAP1 PUSH2 0x801 JUMP JUMPDEST TIMESTAMP GT ISZERO PUSH2 0x275 JUMPI DUP3 PUSH1 0x40 MLOAD PUSH32 0x4046DD8100000000000000000000000000000000000000000000000000000000 DUP2 MSTORE PUSH1 0x4 ADD PUSH2 0x26C SWAP2 SWAP1 PUSH2 0x716 JUMP JUMPDEST PUSH1 0x40 MLOAD DUP1 SWAP2 SUB SWAP1 REVERT JUMPDEST PUSH1 0x1 DUP2 PUSH1 0x3 ADD PUSH0 PUSH2 0x100 EXP DUP2 SLOAD DUP2 PUSH1 0xFF MUL NOT AND SWAP1 DUP4 ISZERO ISZERO MUL OR SWAP1 SSTORE POP CALLER PUSH20 0xFFFFFFFFFFFFFFFFFFFFFFFFFFFFFFFFFFFFFFFF AND DUP4 PUSH32 0x299468D5DB026DE6DA949EAA2DB6538194F5786E9F5987D21F912B8864F32E8E DUP5 PUSH1 0x40 MLOAD PUSH2 0x2D8 SWAP2 SWAP1 PUSH2 0x834 JUMP JUMPDEST PUSH1 0x40 MLOAD DUP1 SWAP2 SUB SWAP1 LOG3 POP POP POP JUMP JUMPDEST PUSH0 DUP1 PUSH0 DUP2 SLOAD PUSH2 0x2F3 SWAP1 PUSH2 0x84D JUMP JUMPDEST SWAP2 SWAP1 POP DUP2 SWAP1 SSTORE SWAP1 POP PUSH1 0x40 MLOAD DUP1 PUSH1 0xA0 ADD PUSH1 0x40 MSTORE DUP1 DUP5 DUP2 MSTORE PUSH1 0x20 ADD DUP4 DUP2 MSTORE PUSH1 0x20 ADD TIMESTAMP DUP2 MSTORE PUSH1 0x20 ADD PUSH0 ISZERO ISZERO DUP2 MSTORE PUSH1 0x20 ADD PUSH0 ISZERO ISZERO DUP2 MSTORE POP PUSH1 0x1 PUSH0 DUP4 DUP2 MSTORE PUSH1 0x20 ADD SWAP1 DUP2 MSTORE PUSH1 0x20 ADD PUSH0 KECCAK256 PUSH0 DUP3 ADD MLOAD DUP2 PUSH0 ADD SSTORE PUSH1 0x20 DUP3 ADD MLOAD DUP2 PUSH1 0x1 ADD SSTORE PUSH1 0x40 DUP3 ADD MLOAD DUP2 PUSH1 0x2 ADD SSTORE PUSH1 0x60 DUP3 ADD MLOAD DUP2 PUSH1 0x3 ADD PUSH0 PUSH2 0x100 EXP DUP2 SLOAD DUP2 PUSH1 0xFF MUL NOT AND SWAP1 DUP4 ISZERO ISZERO MUL OR SWAP1 SSTORE POP PUSH1 0x80 DUP3 ADD MLOAD DUP2 PUSH1 0x3 ADD PUSH1 0x1 PUSH2 0x100 EXP DUP2 SLOAD DUP2 PUSH1 0xFF MUL NOT AND SWAP1 DUP4 ISZERO ISZERO MUL OR SWAP1 SSTORE POP SWAP1 POP POP DUP3 DUP2 PUSH32 0x10494FD8D078F65A2FE29B29E5D55C999CE38AD208F875AAC615FCAD550BD523 DUP5 TIMESTAMP PUSH1 0x40 MLOAD PUSH2 0x3C8 SWAP3 SWAP2 SWAP1 PUSH2 0x894 JUMP JUMPDEST PUSH1 0x40 MLOAD DUP1 SWAP2 SUB SWAP1 LOG3 SWAP3 SWAP2 POP POP JUMP JUMPDEST PUSH0 SLOAD DUP2 JUMP JUMPDEST PUSH1 0x1 PUSH1 0x20 MSTORE DUP1 PUSH0 MSTORE PUSH1 0x40 PUSH0 KECCAK256 PUSH0 SWAP2 POP SWAP1 POP DUP1 PUSH0 ADD SLOAD SWAP1 DUP1 PUSH1 0x1 ADD SLOAD SWAP1 DUP1 PUSH1 0x2 ADD SLOAD SWAP1 DUP1 PUSH1 0x3 ADD PUSH0 SWAP1 SLOAD SWAP1 PUSH2 0x100 EXP SWAP1 DIV PUSH1 0xFF AND SWAP1 DUP1 PUSH1 0x3 ADD PUSH1 0x1 SWAP1 SLOAD SWAP1 PUSH2 0x100 EXP SWAP1 DIV PUSH1 0xFF AND SWAP1 POP DUP6 JUMP JUMPDEST PUSH0 PUSH1 0x1 PUSH0 DUP4 DUP2 MSTORE PUSH1 0x20 ADD SWAP1 DUP2 MSTORE PUSH1 0x20 ADD PUSH0 KECCAK256 SWAP1 POP PUSH2 0x444 DUP3 DUP3 PUSH2 0x5D5 JUMP JUMPDEST DUP1 PUSH1 0x3 ADD PUSH1 0x1 SWAP1 SLOAD SWAP1 PUSH2 0x100 EXP SWAP1 DIV PUSH1 0xFF AND ISZERO PUSH2 0x498 JUMPI DUP2 PUSH1 0x40 MLOAD PUSH32 0xA99BD78100000000000000000000000000000000000000000000000000000000 DUP2 MSTORE PUSH1 0x4 ADD PUSH2 0x48F SWAP2 SWAP1 PUSH2 0x716 JUMP JUMPDEST PUSH1 0x40 MLOAD DUP1 SWAP2 SUB SWAP1 REVERT JUMPDEST DUP1 PUSH1 0x3 ADD PUSH0 SWAP1 SLOAD SWAP1 PUSH2 0x100 EXP SWAP1 DIV PUSH1 0xFF AND ISZERO PUSH2 0x4EB JUMPI DUP2 PUSH1 0x40 MLOAD PUSH32 0xAF4C38CF00000000000000000000000000000000000000000000000000000000 DUP2 MSTORE PUSH1 0x4 ADD PUSH2 0x4E2 SWAP2 SWAP1 PUSH2 0x716 JUMP JUMPDEST PUSH1 0x40 MLOAD DUP1 SWAP2 SUB SWAP1 REVERT JUMPDEST PUSH32 0x0 DUP2 PUSH1 0x2 ADD SLOAD PUSH2 0x51B SWAP2 SWAP1 PUSH2 0x801 JUMP JUMPDEST TIMESTAMP LT ISZERO PUSH2 0x55F JUMPI DUP2 PUSH1 0x40 MLOAD PUSH32 0x3DE6C5D600000000000000000000000000000000000000000000000000000000 DUP2 MSTORE PUSH1 0x4 ADD PUSH2 0x556 SWAP2 SWAP1 PUSH2 0x716 JUMP JUMPDEST PUSH1 0x40 MLOAD DUP1 SWAP2 SUB SWAP1 REVERT JUMPDEST PUSH1 0x1 DUP2 PUSH1 0x3 ADD PUSH1 0x1 PUSH2 0x100 EXP DUP2 SLOAD DUP2 PUSH1 0xFF MUL NOT AND SWAP1 DUP4 ISZERO ISZERO MUL OR SWAP1 SSTORE POP DUP1 PUSH0 ADD SLOAD DUP3 PUSH32 0xA3EA0288FB824A30CAE7F7D72A9E887BD0926C40C8438C43B49CFCA687B0DF52 PUSH1 0x40 MLOAD PUSH1 0x40 MLOAD DUP1 SWAP2 SUB SWAP1 LOG3 POP POP JUMP JUMPDEST PUSH32 0x0 DUP2 JUMP JUMPDEST PUSH0 DUP2 PUSH1 0x2 ADD SLOAD SUB PUSH2 0x61D JUMPI DUP2 PUSH1 0x40 MLOAD PUSH32 0xF14984A400000000000000000000000000000000000000000000000000000000 DUP2 MSTORE PUSH1 0x4 ADD PUSH2 0x614 SWAP2 SWAP1 PUSH2 0x716 JUMP JUMPDEST PUSH1 0x40 MLOAD DUP1 SWAP2 SUB SWAP1 REVERT JUMPDEST POP POP JUMP JUMPDEST PUSH0 DUP1 REVERT JUMPDEST PUSH0 DUP2 SWAP1 POP SWAP2 SWAP1 POP JUMP JUMPDEST PUSH2 0x637 DUP2 PUSH2 0x625 JUMP JUMPDEST DUP2 EQ PUSH2 0x641 JUMPI PUSH0 DUP1 REVERT JUMPDEST POP JUMP JUMPDEST PUSH0 DUP2 CALLDATALOAD SWAP1 POP PUSH2 0x652 DUP2 PUSH2 0x62E JUMP JUMPDEST SWAP3 SWAP2 POP POP JUMP JUMPDEST PUSH0 DUP2 SWAP1 POP SWAP2 SWAP1 POP JUMP JUMPDEST PUSH2 0x66A DUP2 PUSH2 0x658 JUMP JUMPDEST DUP2 EQ PUSH2 0x674 JUMPI PUSH0 DUP1 REVERT JUMPDEST POP JUMP JUMPDEST PUSH0 DUP2 CALLDATALOAD SWAP1 POP PUSH2 0x685 DUP2 PUSH2 0x661 JUMP JUMPDEST SWAP3 SWAP2 POP POP JUMP JUMPDEST PUSH0 DUP1 PUSH1 0x40 DUP4 DUP6 SUB SLT ISZERO PUSH2 0x6A1 JUMPI PUSH2 0x6A0 PUSH2 0x621 JUMP JUMPDEST JUMPDEST PUSH0 PUSH2 0x6AE DUP6 DUP3 DUP7 ADD PUSH2 0x644 JUMP JUMPDEST SWAP3 POP POP PUSH1 0x20 PUSH2 0x6BF DUP6 DUP3 DUP7 ADD PUSH2 0x677 JUMP JUMPDEST SWAP2 POP POP SWAP3 POP SWAP3 SWAP1 POP JUMP JUMPDEST PUSH0 DUP1 PUSH1 0x40 DUP4 DUP6 SUB SLT ISZERO PUSH2 0x6DF JUMPI PUSH2 0x6DE PUSH2 0x621 JUMP JUMPDEST JUMPDEST PUSH0 PUSH2 0x6EC DUP6 DUP3 DUP7 ADD PUSH2 0x677 JUMP JUMPDEST SWAP3 POP POP PUSH1 0x20 PUSH2 0x6FD DUP6 DUP3 DUP7 ADD PUSH2 0x677 JUMP JUMPDEST SWAP2 POP POP SWAP3 POP SWAP3 SWAP1 POP JUMP JUMPDEST PUSH2 0x710 DUP2 PUSH2 0x625 JUMP JUMPDEST DUP3 MSTORE POP POP JUMP JUMPDEST PUSH0 PUSH1 0x20 DUP3 ADD SWAP1 POP PUSH2 0x729 PUSH0 DUP4 ADD DUP5 PUSH2 0x707 JUMP JUMPDEST SWAP3 SWAP2 POP POP JUMP JUMPDEST PUSH0 PUSH1 0x20 DUP3 DUP5 SUB SLT ISZERO PUSH2 0x744 JUMPI PUSH2 0x743 PUSH2 0x621 JUMP JUMPDEST JUMPDEST PUSH0 PUSH2 0x751 DUP5 DUP3 DUP6 ADD PUSH2 0x644 JUMP JUMPDEST SWAP2 POP POP SWAP3 SWAP2 POP POP JUMP JUMPDEST PUSH2 0x763 DUP2 PUSH2 0x658 JUMP JUMPDEST DUP3 MSTORE POP POP JUMP JUMPDEST PUSH0 DUP2 ISZERO ISZERO SWAP1 POP SWAP2 SWAP1 POP JUMP JUMPDEST PUSH2 0x77D DUP2 PUSH2 0x769 JUMP JUMPDEST DUP3 MSTORE POP POP JUMP JUMPDEST PUSH0 PUSH1 0xA0 DUP3 ADD SWAP1 POP PUSH2 0x796 PUSH0 DUP4 ADD DUP9 PUSH2 0x75A JUMP JUMPDEST PUSH2 0x7A3 PUSH1 0x20 DUP4 ADD DUP8 PUSH2 0x75A JUMP JUMPDEST PUSH2 0x7B0 PUSH1 0x40 DUP4 ADD DUP7 PUSH2 0x707 JUMP JUMPDEST PUSH2 0x7BD PUSH1 0x60 DUP4 ADD DUP6 PUSH2 0x774 JUMP JUMPDEST PUSH2 0x7CA PUSH1 0x80 DUP4 ADD DUP5 PUSH2 0x774 JUMP JUMPDEST SWAP7 SWAP6 POP POP POP POP POP POP JUMP JUMPDEST PUSH32 0x4E487B7100000000000000000000000000000000000000000000000000000000 PUSH0 MSTORE PUSH1 0x11 PUSH1 0x4 MSTORE PUSH1 0x24 PUSH0 REVERT JUMPDEST PUSH0 PUSH2 0x80B DUP3 PUSH2 0x625 JUMP JUMPDEST SWAP2 POP PUSH2 0x816 DUP4 PUSH2 0x625 JUMP JUMPDEST SWAP3 POP DUP3 DUP3 ADD SWAP1 POP DUP1 DUP3 GT ISZERO PUSH2 0x82E JUMPI PUSH2 0x82D PUSH2 0x7D4 JUMP JUMPDEST JUMPDEST SWAP3 SWAP2 POP POP JUMP JUMPDEST PUSH0 PUSH1 0x20 DUP3 ADD SWAP1 POP PUSH2 0x847 PUSH0 DUP4 ADD DUP5 PUSH2 0x75A JUMP JUMPDEST SWAP3 SWAP2 POP POP JUMP JUMPDEST PUSH0 PUSH2 0x857 DUP3 PUSH2 0x625 JUMP JUMPDEST SWAP2 POP PUSH32 0xFFFFFFFFFFFFFFFFFFFFFFFFFFFFFFFFFFFFFFFFFFFFFFFFFFFFFFFFFFFFFFFF DUP3 SUB PUSH2 0x889 JUMPI PUSH2 0x888 PUSH2 0x7D4 JUMP JUMPDEST JUMPDEST PUSH1 0x1 DUP3 ADD SWAP1 POP SWAP2 SWAP1 POP JUMP JUMPDEST PUSH0 PUSH1 0x40 DUP3 ADD SWAP1 POP PUSH2 0x8A7 PUSH0 DUP4 ADD DUP6 PUSH2 0x75A JUMP JUMPDEST PUSH2 0x8B4 PUSH1 0x20 DUP4 ADD DUP5 PUSH2 0x707 JUMP JUMPDEST SWAP4 SWAP3 POP POP POP JUMP INVALID LOG2 PUSH5 0x6970667358 0x22 SLT KECCAK256 0xBB CALLCODE 0xAD DUP13 0x4D JUMPI PC 0xB7 SDIV EQ 0xF7 0x1E SWAP13 0xF SWAP9 DUP16 SLOAD 0xE2 CALLDATALOAD SWAP5 0xDA 0xAD GASLIMIT 0xB7 LOG3 DUP5 DUP2 MUL SHR SUB PUSH23 0xE064736F6C634300081800330000000000000000000000 "},"methodIdentifiers":{"batches(uint256)":"b32c4d8d","challengeBatch(uint256,bytes32)":"0b87a8b6","challengePeriod()":"f3f480d9","finalizeBatch(uint256)":"e33491a7","latestBatchId()":"4d4e7019","submitBatch(bytes32,bytes32)":"2bd2c9c1"}}}}}