{"project/contracts/InteractiveOptimisticRollup.sol":{"InteractiveOptimisticRollup":{"abi":[{"inputs":[{"internalType":"uint256","name":"_challengePeriodSeconds","type":"uint256"},{"internalType":"uint256","name":"_sequencerBond","type":"uint256"},{"internalType":"uint256","name":"_challengerBond","type":"uint256"}],"stateMutability":"nonpayable","type":"constructor"},{"inputs":[{"internalType":"uint256","name":"batchId","type":"uint256"}],"name":"BatchAlreadyChallenged","type":"error"},{"inputs":[{"internalType":"uint256","name":"batchId","type":"uint256"}],"name":"BatchAlreadyFinalized","type":"error"},{"inputs":[{"internalType":"uint256","name":"batchId","type":"uint256"}],"name":"BatchDoesNotExist","type":"error"},{"inputs":[{"internalType":"uint256","name":"batchId","type":"uint256"}],"name":"BatchInvalidated","type":"error"},{"inputs":[{"internalType":"uint256","name":"batchId","type":"uint256"}],"name":"ChallengeWindowClosed","type":"error"},{"inputs":[{"internalType":"uint256","name":"batchId","type":"uint256"}],"name":"ChallengeWindowStillOpen","type":"error"},{"inputs":[],"name":"ClaimsMustDiffer","type":"error"},{"inputs":[{"internalType":"uint256","name":"batchId","type":"uint256"}],"name":"DisputeAlreadyResolved","type":"error"},{"inputs":[{"internalType":"uint256","name":"batchId","type":"uint256"}],"name":"DisputeNotActive","type":"error"},{"inputs":[{"internalType":"uint256","name":"batchId","type":"uint256"}],"name":"DisputeNotAtSingleStep","type":"error"},{"inputs":[],"name":"EmptyBatch","type":"error"},{"inputs":[{"internalType":"uint256","name":"expected","type":"uint256"},{"internalType":"uint256","name":"actual","type":"uint256"}],"name":"InvalidChallengerBond","type":"error"},{"inputs":[],"name":"InvalidDisputedIndex","type":"error"},{"inputs":[{"internalType":"uint256","name":"expected","type":"uint256"},{"internalType":"uint256","name":"actual","type":"uint256"}],"name":"InvalidSequencerBond","type":"error"},{"inputs":[{"internalType":"uint256","name":"batchId","type":"uint256"},{"internalType":"bool","name":"isSequencer","type":"bool"}],"name":"MidpointAlreadySubmitted","type":"error"},{"inputs":[{"internalType":"address","name":"account","type":"address"}],"name":"NoWithdrawableBalance","type":"error"},{"inputs":[{"internalType":"address","name":"caller","type":"address"},{"internalType":"address","name":"challenger","type":"address"}],"name":"OnlyChallenger","type":"error"},{"inputs":[{"internalType":"address","name":"caller","type":"address"},{"internalType":"address","name":"sequencer","type":"address"}],"name":"OnlySequencer","type":"error"},{"inputs":[{"internalType":"uint256","name":"batchId","type":"uint256"},{"internalType":"bool","name":"isSequencer","type":"bool"}],"name":"SingleStepClaimAlreadySubmitted","type":"error"},{"anonymous":false,"inputs":[{"indexed":true,"internalType":"uint256","name":"batchId","type":"uint256"},{"indexed":false,"internalType":"int256","name":"claimedFinalState","type":"int256"}],"name":"BatchFinalized","type":"event"},{"anonymous":false,"inputs":[{"indexed":true,"internalType":"uint256","name":"batchId","type":"uint256"},{"indexed":true,"internalType":"int256","name":"initialState","type":"int256"},{"indexed":false,"internalType":"int256","name":"claimedFinalState","type":"int256"},{"indexed":false,"internalType":"uint256","name":"txCount","type":"uint256"},{"indexed":false,"internalType":"uint256","name":"submittedAt","type":"uint256"}],"name":"BatchSubmitted","type":"event"},{"anonymous":false,"inputs":[{"indexed":true,"internalType":"uint256","name":"batchId","type":"uint256"},{"indexed":false,"internalType":"int256","name":"challengerFinalState","type":"int256"}],"name":"ChallengeInitiated","type":"event"},{"anonymous":false,"inputs":[{"indexed":true,"internalType":"uint256","name":"batchId","type":"uint256"},{"indexed":false,"internalType":"uint256","name":"start","type":"uint256"},{"indexed":false,"internalType":"uint256","name":"end","type":"uint256"},{"indexed":false,"internalType":"uint256","name":"mid","type":"uint256"},{"indexed":false,"internalType":"bool","name":"lowerHalfDisputed","type":"bool"}],"name":"DisputeBisected","type":"event"},{"anonymous":false,"inputs":[{"indexed":true,"internalType":"uint256","name":"batchId","type":"uint256"},{"indexed":false,"internalType":"bool","name":"challengerWon","type":"bool"},{"indexed":false,"internalType":"bool","name":"sequencerWon","type":"bool"},{"indexed":false,"internalType":"uint256","name":"disputedIndex","type":"uint256"}],"name":"DisputeResolved","type":"event"},{"anonymous":false,"inputs":[{"indexed":true,"internalType":"uint256","name":"batchId","type":"uint256"},{"indexed":true,"internalType":"address","name":"claimer","type":"address"},{"indexed":false,"internalType":"bool","name":"isSequencer","type":"bool"},{"indexed":false,"internalType":"uint256","name":"mid","type":"uint256"},{"indexed":false,"internalType":"int256","name":"claimedStateAtMid","type":"int256"}],"name":"MidpointClaimSubmitted","type":"event"},{"anonymous":false,"inputs":[{"indexed":true,"internalType":"uint256","name":"batchId","type":"uint256"},{"indexed":true,"internalType":"address","name":"claimer","type":"address"},{"indexed":false,"internalType":"bool","name":"isSequencer","type":"bool"},{"indexed":false,"internalType":"uint256","name":"disputedIndex","type":"uint256"},{"indexed":false,"internalType":"int256","name":"claimedPostState","type":"int256"}],"name":"SingleStepClaimSubmitted","type":"event"},{"inputs":[{"internalType":"uint256","name":"","type":"uint256"}],"name":"batches","outputs":[{"internalType":"address","name":"sequencer","type":"address"},{"internalType":"int256","name":"initialState","type":"int256"},{"internalType":"int256","name":"claimedFinalState","type":"int256"},{"internalType":"uint256","name":"submittedAt","type":"uint256"},{"internalType":"uint256","name":"txCount","type":"uint256"},{"internalType":"bool","name":"challenged","type":"bool"},{"internalType":"bool","name":"finalized","type":"bool"},{"internalType":"bool","name":"invalidated","type":"bool"},{"internalType":"bool","name":"bondSettled","type":"bool"}],"stateMutability":"view","type":"function"},{"inputs":[{"internalType":"uint256","name":"_batchId","type":"uint256"},{"internalType":"int256","name":"_sequencerStateAtMid","type":"int256"},{"internalType":"int256","name":"_challengerStateAtMid","type":"int256"}],"name":"bisectDispute","outputs":[],"stateMutability":"nonpayable","type":"function"},{"inputs":[],"name":"challengePeriod","outputs":[{"internalType":"uint256","name":"","type":"uint256"}],"stateMutability":"view","type":"function"},{"inputs":[],"name":"challengerBond","outputs":[{"internalType":"uint256","name":"","type":"uint256"}],"stateMutability":"view","type":"function"},{"inputs":[{"internalType":"address","name":"","type":"address"}],"name":"claimableBalances","outputs":[{"internalType":"uint256","name":"","type":"uint256"}],"stateMutability":"view","type":"function"},{"inputs":[{"internalType":"uint256","name":"","type":"uint256"}],"name":"disputes","outputs":[{"internalType":"address","name":"challenger","type":"address"},{"internalType":"bool","name":"active","type":"bool"},{"internalType":"bool","name":"resolved","type":"bool"},{"internalType":"uint256","name":"start","type":"uint256"},{"internalType":"uint256","name":"end","type":"uint256"},{"internalType":"uint256","name":"mid","type":"uint256"},{"internalType":"int256","name":"sequencerFinalState","type":"int256"},{"internalType":"int256","name":"challengerFinalState","type":"int256"},{"internalType":"int256","name":"sequencerStateAtMid","type":"int256"},{"internalType":"int256","name":"challengerStateAtMid","type":"int256"},{"internalType":"bool","name":"sequencerMidSubmitted","type":"bool"},{"internalType":"bool","name":"challengerMidSubmitted","type":"bool"},{"internalType":"int256","name":"sequencerSingleStepPostState","type":"int256"},{"internalType":"int256","name":"challengerSingleStepPostState","type":"int256"},{"internalType":"bool","name":"sequencerSingleStepSubmitted","type":"bool"},{"internalType":"bool","name":"challengerSingleStepSubmitted","type":"bool"},{"internalType":"bool","name":"sequencerWon","type":"bool"},{"internalType":"bool","name":"challengerWon","type":"bool"}],"stateMutability":"view","type":"function"},{"inputs":[{"internalType":"uint256","name":"_batchId","type":"uint256"}],"name":"finalizeBatch","outputs":[],"stateMutability":"nonpayable","type":"function"},{"inputs":[{"internalType":"uint256","name":"_batchId","type":"uint256"}],"name":"getBatchDeltas","outputs":[{"internalType":"int256[]","name":"","type":"int256[]"}],"stateMutability":"view","type":"function"},{"inputs":[{"internalType":"uint256","name":"_batchId","type":"uint256"},{"internalType":"uint256","name":"_index","type":"uint256"}],"name":"getDeltaAt","outputs":[{"internalType":"int256","name":"","type":"int256"}],"stateMutability":"view","type":"function"},{"inputs":[{"internalType":"uint256","name":"_batchId","type":"uint256"},{"internalType":"int256","name":"_challengerFinalState","type":"int256"}],"name":"initiateChallenge","outputs":[],"stateMutability":"payable","type":"function"},{"inputs":[],"name":"latestBatchId","outputs":[{"internalType":"uint256","name":"","type":"uint256"}],"stateMutability":"view","type":"function"},{"inputs":[{"internalType":"uint256","name":"_batchId","type":"uint256"},{"internalType":"int256","name":"_sequencerClaimedPostState","type":"int256"},{"internalType":"int256","name":"_challengerClaimedPostState","type":"int256"}],"name":"resolveSingleStep","outputs":[],"stateMutability":"nonpayable","type":"function"},{"inputs":[],"name":"sequencerBond","outputs":[{"internalType":"uint256","name":"","type":"uint256"}],"stateMutability":"view","type":"function"},{"inputs":[{"internalType":"int256","name":"_initialState","type":"int256"},{"internalType":"int256","name":"_claimedFinalState","type":"int256"},{"internalType":"int256[]","name":"_deltas","type":"int256[]"}],"name":"submitBatch","outputs":[{"internalType":"uint256","name":"batchId","type":"uint256"}],"stateMutability":"payable","type":"function"},{"inputs":[{"internalType":"uint256","name":"_batchId","type":"uint256"},{"internalType":"int256","name":"_challengerStateAtMid","type":"int256"}],"name":"submitChallengerMidpointClaim","outputs":[],"stateMutability":"nonpayable","type":"function"},{"inputs":[{"internalType":"uint256","name":"_batchId","type":"uint256"},{"internalType":"int256","name":"_challengerClaimedPostState","type":"int256"}],"name":"submitChallengerSingleStepClaim","outputs":[],"stateMutability":"nonpayable","type":"function"},{"inputs":[{"internalType":"uint256","name":"_batchId","type":"uint256"},{"internalType":"int256","name":"_sequencerStateAtMid","type":"int256"}],"name":"submitSequencerMidpointClaim","outputs":[],"stateMutability":"nonpayable","type":"function"},{"inputs":[{"internalType":"uint256","name":"_batchId","type":"uint256"},{"internalType":"int256","name":"_sequencerClaimedPostState","type":"int256"}],"name":"submitSequencerSingleStepClaim","outputs":[],"stateMutability":"nonpayable","type":"function"},{"inputs":[],"name":"withdrawClaimable","outputs":[],"stateMutability":"nonpayable","type":"function"}],"evm":{"bytecode":{"linkReferences":{},"object":"60e0346100be57601f61179638819003918201601f19168301916001600160401b038311848410176100c2578084926060946040528339810103126100be57805190604060208201519101519160805260a05260c0526040516116bf90816100d78239608051818181610104015281816101920152610954015260a051818181610221015281816105ef01528181610b2c015281816114a70152611562015260c0518181816108ff01528181610cb80152818161148601526115410152f35b5f80fd5b634e487b7160e01b5f52604160045260245ffdfe604060808152600480361015610013575f80fd5b5f3560e01c908163068b75311461102d578163368cf07214610f865781634d4e701914610f695781634fa982d414610e83578163564a565d14610d7057816358ca1fd714610d1457816368c8278f14610cdb57816368ccdc8614610ca15781636916489014610ad15781636e34ca28146108e657816373be42fd1461077d578163940f8e0e14610612578163a8608d18146105d8578163b32c4d8d14610544578163c67f7a0814610415578163e0965d16146102bd578163e33491a71461014457508063e4d849941461012b5763f3f480d9146100ee575f80fd5b34610127575f36600319011261012757602090517f00000000000000000000000000000000000000000000000000000000000000008152f35b5f80fd5b346101275761014261013c36611184565b91611353565b005b8234610127576020366003190112610127578135916101628361121e565b906005820190815460ff8160081c166102a65760ff8160101c1661028f5760ff8116610278576101b760038501547f00000000000000000000000000000000000000000000000000000000000000009061119e565b421061026157927f167adaeacf3d77bcc472487d71e5b09333c671d39cd85d3c2a5f61e0b71ba0ff949260029260ff61010060209761ff0019161780845560181c161561020b575b505001549051908152a2005b60018060a01b038354165f528552835f206102477f0000000000000000000000000000000000000000000000000000000000000000825461119e565b9055805463ff0000001916630100000017905586806101ff565b8451631ef362eb60e11b8152808301879052602490fd5b845163347d276f60e01b8152808301879052602490fd5b8451632ae2e86560e21b8152808301879052602490fd5b845163a99bd78160e01b8152808301879052602490fd5b905034610127576102cd3661116e565b91815f526003602052835f2093845460018060a01b0381168033036103e8575060ff8160a01c16156103d25760a81c60ff166103bd57600185015490600286015482036103a757600b860180549360ff8560081c1661038a575060ff939291869182600a8a015561010061ff001986161790558051925f84526020840152820152837f366f2f299a6e4f5bf9e4206207d65fa2cbf6b0f9b18f5093680e00e06e9bf91f60603393a31661037c57005b600961014293015490611353565b8251636340a9a560e11b81529081018690525f6024820152604490fd5b60249391505191632c4477e160e21b8352820152fd5b9160249251916313ccbabd60e31b8352820152fd5b50916024925191630e372c1f60e41b8352820152fd5b825163cbfe6cb760e01b8152338186019081526001600160a01b0390921660208301529081906040010390fd5b82346101275761042436611184565b90825f949394526003602052825f2091825460ff8160a01c161561052d5760a81c60ff16610516576001830190600282549401938454908181146104ff579061046c9161119e565b60011c92141595865f146104c2575094815f8051602061166a83398151915295966104bd9385555b549354945194859485926060929594919560808501968552602085015260408401521515910152565b0390a2005b60018301908184116104ec575091816104bd935f8051602061166a83398151915297989355610494565b601190634e487b7160e01b5f525260245ffd5b8651632c4477e160e21b8152808a01899052602490fd5b83516313ccbabd60e31b8152808701869052602490fd5b8451630e372c1f60e41b8152808801879052602490fd5b9050346101275760203660031901126101275760ff6101209282355f526001602052805f2060018060a01b03815416936001820154926002830154906005600385015493850154940154948151978852602088015286015260608501526080840152818116151560a0840152818160081c16151560c0840152818160101c16151560e084015260181c161515610100820152f35b8234610127575f36600319011261012757602090517f00000000000000000000000000000000000000000000000000000000000000008152f35b905034610127576106223661116e565b815f939293526003602052835f2090815460018060a01b038116803303610750575060ff8160a01c16156107395760a81c60ff166107225760018201549460028301549586811461070b57600884019081549560ff8760081c166106ee5750600761069160ff9899869361119e565b60011c95866003820155015561010061ff001986161790558051925f84526020840152820152837f94d715b6819d8757d5362f8a060997d036b290e4d7281a426ace768f82cecf1960603393a3166106e557005b61014290611251565b835163e34e893d60e01b81529081018890525f6024820152604490fd5b8151632c4477e160e21b8152808601879052602490fd5b84516313ccbabd60e31b8152808401859052602490fd5b8551630e372c1f60e41b8152808501869052602490fd5b865163cbfe6cb760e01b8152338187019081526001600160a01b0390921660208301529081906040010390fd5b9050346101275761078d3661116e565b6107968261121e565b5f838152600360205285902090549093906001600160a01b0316338190036108b95750835460ff8160a01c16156108a25760a81c60ff1661088b5760018401546002850154810361087457600b85019182549060ff82166108565750908387600160ff95948360098b015586191617809455805192600184526020840152820152847f366f2f299a6e4f5bf9e4206207d65fa2cbf6b0f9b18f5093680e00e06e9bf91f60603393a360081c1661084857005b600a61014293015491611353565b8751636340a9a560e11b815290810186905260016024820152604490fd5b8551632c4477e160e21b8152808301859052602490fd5b84516313ccbabd60e31b8152908101839052602490fd5b8551630e372c1f60e41b8152808301859052602490fd5b85516311822a9760e01b8152339281019283526001600160a01b0390911660208301529081906040010390fd5b826108f03661116e565b9190926108fc8461121e565b907f0000000000000000000000000000000000000000000000000000000000000000803403610ab5575060058201805460ff8160081c16610a9e5760ff8160101c16610a875760ff8116610a705761097960038501547f00000000000000000000000000000000000000000000000000000000000000009061119e565b4211610a595760ff191660019081179091555f868152600360205284812080546001600160b01b0319163361ffff60a01b191617600160a01b17815591820155818301549092905f198101908111610a465792602094926002600b937f466c366b6d796e4b34154585f7a7a505732d2e4a9082fc01f1766fe0c13b27cb9896828501555f60038501550154908201558360058201555f60068201555f60078201556008810161ffff1981541690555f60098201555f600a8201550163ffffffff19815416905551908152a2005b601183634e487b7160e01b5f525260245ffd5b8451634046dd8160e01b8152808401889052602490fd5b845163347d276f60e01b8152808401889052602490fd5b8451632ae2e86560e21b8152808401889052602490fd5b845163a99bd78160e01b8152808401889052602490fd5b835163e04483ef60e01b81529182015234602482015260449150fd5b90506060366003190112610127578035916024928335936044359367ffffffffffffffff91828611610127573660238701121561012757858201359283116101275760059036818560051b89010111610127578315610c91577f0000000000000000000000000000000000000000000000000000000000000000803403610c7657505f54915f1997888414610c6457600180940198895f55895f526020936001602052895f2092336bffffffffffffffffffffffff60a01b85541617845589600185015560028d600286015560056003954260038201558b8b8201550163ffffffff1981541690555f5b8a8110610c065750505060208b8b8b8f7fbb31917f1fde51ff173767c9e35d5dd8829e15fd96d1a5dcb9c281327c0295d0606085928f8651918252888201524286820152a351908152f35b8d5f528188528c5f2080549068010000000000000000821015610c525781610c34918c8095940181556111f5565b815490891b908888858d1b89010135831b921b191617905501610bbb565b8560418d634e487b7160e01b5f52525ffd5b82601186634e487b7160e01b5f52525ffd5b86516309f0aa1d60e11b815293840152349083015250604490fd5b855163c2e5347d60e01b81528390fd5b8234610127575f36600319011261012757602090517f00000000000000000000000000000000000000000000000000000000000000008152f35b82346101275760203660031901126101275781356001600160a01b0381169290839003610127576020925f528252805f20549051908152f35b823461012757806003193601126101275781356024359280610d358361121e565b0154841015610d625750602092610d54915f5260028452825f206111f5565b91905490519160031b1c8152f35b82516344d35ab560e01b8152fd5b82346101275760203660031901126101275781355f526003602052805f208054926001820154906002830154906003840154908401546005850154600686015491600787015493600888015495600989015497600a8a015499600b01549a80519c8d600160a01b60019003821690528d8160a01c60ff161515906020015260a81c60ff161515908d015260608c015260808b015260a08a015260c089015260e088015261010087015261012086015260ff8116151561014086015260081c60ff1615156101608501526101808401526101a083015260ff811615156101c08301528060081c60ff1615156101e08301528060101c60ff16151561020083015260181c60ff16151561022082015261024090f35b905034610127575f36600319011261012757335f5280602052815f20548015610f52575f80808093338252856020528187812055335af13d15610f4d573d67ffffffffffffffff8111610f3a57835190610ee7601f8201601f1916602001836111bf565b81525f60203d92013e5b15610ef857005b6020606492519162461bcd60e51b8352820152601860248201527f7769746864726177207472616e73666572206661696c656400000000000000006044820152fd5b604183634e487b7160e01b5f525260245ffd5b610ef1565b5060249151906335bd849760e11b82523390820152fd5b8234610127575f366003190112610127576020905f549051908152f35b905034610127576020908160031936011261012757829035610fa78161121e565b505f5260028252805f208151928381835491828152019081935f52825f20905f5b8181106110195750505084610fde9103856111bf565b825181815293518185018190528493840192915f5b82811061100257505050500390f35b835185528695509381019392810192600101610ff3565b825484529284019260019283019201610fc8565b9050346101275761103d3661116e565b61104882939261121e565b5f848152600360205285902090549091906001600160a01b0316338190036111415750815460ff8160a01c16156107395760a81c60ff1661072257600182015492600283015480851461112a57600884019485549260ff841661110c5750918360066110ba60019460ff9a9b9661119e565b841c96876003820155015586191617809455805192600184526020840152820152837f94d715b6819d8757d5362f8a060997d036b290e4d7281a426ace768f82cecf1960603393a360081c166106e557005b885163e34e893d60e01b815290810188905260016024820152604490fd5b8651632c4477e160e21b8152808301879052602490fd5b85516311822a9760e01b8152338186019081526001600160a01b0390921660208301529081906040010390fd5b6040906003190112610127576004359060243590565b606090600319011261012757600435906024359060443590565b919082018092116111ab57565b634e487b7160e01b5f52601160045260245ffd5b90601f8019910116810190811067ffffffffffffffff8211176111e157604052565b634e487b7160e01b5f52604160045260245ffd5b805482101561120a575f5260205f2001905f90565b634e487b7160e01b5f52603260045260245ffd5b90815f52600160205260405f20916003830154156112395750565b60249060405190633c52612960e21b82526004820152fd5b805f52600360205260405f206008810190815460ff811615908115611329575b5061132457600381015490600681019283549360078301948554141591825f146112f5575f8051602061166a833981519152955f6112f0949381938860028901555b61ffff1981541690555555600260018401549301549360405194859485926060929594919560808501968552602085015260408401521515910152565b0390a2565b60018593929301958686116111ab575f6112f09481935f8051602061166a8339815191529960018901556112b3565b505050565b60ff915060081c16155f611271565b9190915f83820193841291129080158216911516176111ab57565b91825f5260039060209260038452604091825f20906113718761121e565b9082549360ff8560a01c16156116515760ff8560a81c16611639576001966001850154976002808701548a03611621578484146116105760048601548a10156115ff5791908b5f5260018b526001895f200154925f925b8d8c85106115cc57905060609b999795935061142692507f6bbc4f84909b75a535268d1e20ae8277d0ff2bb584a3c06e31532aaf26abff7a9c9a98969491505f5260028a5261141989895f206111f5565b90549060031b1c90611338565b61ffff60a01b19909516600160a81b178455600b8401805461ffff198116825590959092811491826115c1575b50501561151e575060056301000000918263ffff00001986541617855501916201000162ff00ff198454161783556114cb7f00000000000000000000000000000000000000000000000000000000000000007f000000000000000000000000000000000000000000000000000000000000000061119e565b90546001600160a01b03165f90815260048852859020805490916114ee9161119e565b9055815463ff00000019161790555b549260ff825194818160181c161515865260101c16151590840152820152a2565b63ffffffff19166201000017835560058101805462ff00ff1916815591506115867f00000000000000000000000000000000000000000000000000000000000000007f000000000000000000000000000000000000000000000000000000000000000061119e565b90546001600160a01b03165f90815260048752849020805490916115a99161119e565b9055805463ff000000191663010000001790556114fd565b141590505f80611453565b84956115e98f968e8688996115f5965f9a98999a52525f206111f5565b905490851b1c90611338565b94019291906113c8565b88516344d35ab560e01b8152600490fd5b88516336bbea8360e11b8152600490fd5b8851632c4477e160e21b8152600481018d9052602490fd5b85516313ccbabd60e31b8152600481018a9052602490fd5b8551630e372c1f60e41b8152600481018a9052602490fdfeda64b7ece081b948fb01c4077b52fd0f994bcc4c7fea7aac79bde4ecd43ddc5aa2646970667358221220bda7c129688d62bb8096a656eba4d5df525f4eb629dd608278e787a545cc572c64736f6c63430008180033","opcodes":"PUSH1 0xE0 CALLVALUE PUSH2 0xBE JUMPI PUSH1 0x1F PUSH2 0x1796 CODESIZE DUP2 SWAP1 SUB SWAP2 DUP3 ADD PUSH1 0x1F NOT AND DUP4 ADD SWAP2 PUSH1 0x1 PUSH1 0x1 PUSH1 0x40 SHL SUB DUP4 GT DUP5 DUP5 LT OR PUSH2 0xC2 JUMPI DUP1 DUP5 SWAP3 PUSH1 0x60 SWAP5 PUSH1 0x40 MSTORE DUP4 CODECOPY DUP2 ADD SUB SLT PUSH2 0xBE JUMPI DUP1 MLOAD SWAP1 PUSH1 0x40 PUSH1 0x20 DUP3 ADD MLOAD SWAP2 ADD MLOAD SWAP2 PUSH1 0x80 MSTORE PUSH1 0xA0 MSTORE PUSH1 0xC0 MSTORE PUSH1 0x40 MLOAD PUSH2 0x16BF SWAP1 DUP2 PUSH2 0xD7 DUP3 CODECOPY PUSH1 0x80 MLOAD DUP2 DUP2 DUP2 PUSH2 0x104 ADD MSTORE DUP2 DUP2 PUSH2 0x192 ADD MSTORE PUSH2 0x954 ADD MSTORE PUSH1 0xA0 MLOAD DUP2 DUP2 DUP2 PUSH2 0x221 ADD MSTORE DUP2 DUP2 PUSH2 0x5EF ADD MSTORE DUP2 DUP2 PUSH2 0xB2C ADD MSTORE DUP2 DUP2 PUSH2 0x14A7 ADD MSTORE PUSH2 0x1562 ADD MSTORE PUSH1 0xC0 MLOAD DUP2 DUP2 DUP2 PUSH2 0x8FF ADD MSTORE DUP2 DUP2 PUSH2 0xCB8 ADD MSTORE DUP2 DUP2 PUSH2 0x1486 ADD MSTORE PUSH2 0x1541 ADD MSTORE RETURN JUMPDEST PUSH0 DUP1 REVERT JUMPDEST PUSH4 0x4E487B71 PUSH1 0xE0 SHL PUSH0 MSTORE PUSH1 0x41 PUSH1 0x4 MSTORE PUSH1 0x24 PUSH0 REVERT INVALID PUSH1 0x40 PUSH1 0x80 DUP2 MSTORE PUSH1 0x4 DUP1 CALLDATASIZE LT ISZERO PUSH2 0x13 JUMPI PUSH0 DUP1 REVERT JUMPDEST PUSH0 CALLDATALOAD PUSH1 0xE0 SHR SWAP1 DUP2 PUSH4 0x68B7531 EQ PUSH2 0x102D JUMPI DUP2 PUSH4 0x368CF072 EQ PUSH2 0xF86 JUMPI DUP2 PUSH4 0x4D4E7019 EQ PUSH2 0xF69 JUMPI DUP2 PUSH4 0x4FA982D4 EQ PUSH2 0xE83 JUMPI DUP2 PUSH4 0x564A565D EQ PUSH2 0xD70 JUMPI DUP2 PUSH4 0x58CA1FD7 EQ PUSH2 0xD14 JUMPI DUP2 PUSH4 0x68C8278F EQ PUSH2 0xCDB JUMPI DUP2 PUSH4 0x68CCDC86 EQ PUSH2 0xCA1 JUMPI DUP2 PUSH4 0x69164890 EQ PUSH2 0xAD1 JUMPI DUP2 PUSH4 0x6E34CA28 EQ PUSH2 0x8E6 JUMPI DUP2 PUSH4 0x73BE42FD EQ PUSH2 0x77D JUMPI DUP2 PUSH4 0x940F8E0E EQ PUSH2 0x612 JUMPI DUP2 PUSH4 0xA8608D18 EQ PUSH2 0x5D8 JUMPI DUP2 PUSH4 0xB32C4D8D EQ PUSH2 0x544 JUMPI DUP2 PUSH4 0xC67F7A08 EQ PUSH2 0x415 JUMPI DUP2 PUSH4 0xE0965D16 EQ PUSH2 0x2BD JUMPI DUP2 PUSH4 0xE33491A7 EQ PUSH2 0x144 JUMPI POP DUP1 PUSH4 0xE4D84994 EQ PUSH2 0x12B JUMPI PUSH4 0xF3F480D9 EQ PUSH2 0xEE JUMPI PUSH0 DUP1 REVERT JUMPDEST CALLVALUE PUSH2 0x127 JUMPI PUSH0 CALLDATASIZE PUSH1 0x3 NOT ADD SLT PUSH2 0x127 JUMPI PUSH1 0x20 SWAP1 MLOAD PUSH32 0x0 DUP2 MSTORE RETURN JUMPDEST PUSH0 DUP1 REVERT JUMPDEST CALLVALUE PUSH2 0x127 JUMPI PUSH2 0x142 PUSH2 0x13C CALLDATASIZE PUSH2 0x1184 JUMP JUMPDEST SWAP2 PUSH2 0x1353 JUMP JUMPDEST STOP JUMPDEST DUP3 CALLVALUE PUSH2 0x127 JUMPI PUSH1 0x20 CALLDATASIZE PUSH1 0x3 NOT ADD SLT PUSH2 0x127 JUMPI DUP2 CALLDATALOAD SWAP2 PUSH2 0x162 DUP4 PUSH2 0x121E JUMP JUMPDEST SWAP1 PUSH1 0x5 DUP3 ADD SWAP1 DUP2 SLOAD PUSH1 0xFF DUP2 PUSH1 0x8 SHR AND PUSH2 0x2A6 JUMPI PUSH1 0xFF DUP2 PUSH1 0x10 SHR AND PUSH2 0x28F JUMPI PUSH1 0xFF DUP2 AND PUSH2 0x278 JUMPI PUSH2 0x1B7 PUSH1 0x3 DUP6 ADD SLOAD PUSH32 0x0 SWAP1 PUSH2 0x119E JUMP JUMPDEST TIMESTAMP LT PUSH2 0x261 JUMPI SWAP3 PUSH32 0x167ADAEACF3D77BCC472487D71E5B09333C671D39CD85D3C2A5F61E0B71BA0FF SWAP5 SWAP3 PUSH1 0x2 SWAP3 PUSH1 0xFF PUSH2 0x100 PUSH1 0x20 SWAP8 PUSH2 0xFF00 NOT AND OR DUP1 DUP5 SSTORE PUSH1 0x18 SHR AND ISZERO PUSH2 0x20B JUMPI JUMPDEST POP POP ADD SLOAD SWAP1 MLOAD SWAP1 DUP2 MSTORE LOG2 STOP JUMPDEST PUSH1 0x1 DUP1 PUSH1 0xA0 SHL SUB DUP4 SLOAD AND PUSH0 MSTORE DUP6 MSTORE DUP4 PUSH0 KECCAK256 PUSH2 0x247 PUSH32 0x0 DUP3 SLOAD PUSH2 0x119E JUMP JUMPDEST SWAP1 SSTORE DUP1 SLOAD PUSH4 0xFF000000 NOT AND PUSH4 0x1000000 OR SWAP1 SSTORE DUP7 DUP1 PUSH2 0x1FF JUMP JUMPDEST DUP5 MLOAD PUSH4 0x1EF362EB PUSH1 0xE1 SHL DUP2 MSTORE DUP1 DUP4 ADD DUP8 SWAP1 MSTORE PUSH1 0x24 SWAP1 REVERT JUMPDEST DUP5 MLOAD PUSH4 0x347D276F PUSH1 0xE0 SHL DUP2 MSTORE DUP1 DUP4 ADD DUP8 SWAP1 MSTORE PUSH1 0x24 SWAP1 REVERT JUMPDEST DUP5 MLOAD PUSH4 0x2AE2E865 PUSH1 0xE2 SHL DUP2 MSTORE DUP1 DUP4 ADD DUP8 SWAP1 MSTORE PUSH1 0x24 SWAP1 REVERT JUMPDEST DUP5 MLOAD PUSH4 0xA99BD781 PUSH1 0xE0 SHL DUP2 MSTORE DUP1 DUP4 ADD DUP8 SWAP1 MSTORE PUSH1 0x24 SWAP1 REVERT JUMPDEST SWAP1 POP CALLVALUE PUSH2 0x127 JUMPI PUSH2 0x2CD CALLDATASIZE PUSH2 0x116E JUMP JUMPDEST SWAP2 DUP2 PUSH0 MSTORE PUSH1 0x3 PUSH1 0x20 MSTORE DUP4 PUSH0 KECCAK256 SWAP4 DUP5 SLOAD PUSH1 0x1 DUP1 PUSH1 0xA0 SHL SUB DUP2 AND DUP1 CALLER SUB PUSH2 0x3E8 JUMPI POP PUSH1 0xFF DUP2 PUSH1 0xA0 SHR AND ISZERO PUSH2 0x3D2 JUMPI PUSH1 0xA8 SHR PUSH1 0xFF AND PUSH2 0x3BD JUMPI PUSH1 0x1 DUP6 ADD SLOAD SWAP1 PUSH1 0x2 DUP7 ADD SLOAD DUP3 SUB PUSH2 0x3A7 JUMPI PUSH1 0xB DUP7 ADD DUP1 SLOAD SWAP4 PUSH1 0xFF DUP6 PUSH1 0x8 SHR AND PUSH2 0x38A JUMPI POP PUSH1 0xFF SWAP4 SWAP3 SWAP2 DUP7 SWAP2 DUP3 PUSH1 0xA DUP11 ADD SSTORE PUSH2 0x100 PUSH2 0xFF00 NOT DUP7 AND OR SWAP1 SSTORE DUP1 MLOAD SWAP3 PUSH0 DUP5 MSTORE PUSH1 0x20 DUP5 ADD MSTORE DUP3 ADD MSTORE DUP4 PUSH32 0x366F2F299A6E4F5BF9E4206207D65FA2CBF6B0F9B18F5093680E00E06E9BF91F PUSH1 0x60 CALLER SWAP4 LOG3 AND PUSH2 0x37C JUMPI STOP JUMPDEST PUSH1 0x9 PUSH2 0x142 SWAP4 ADD SLOAD SWAP1 PUSH2 0x1353 JUMP JUMPDEST DUP3 MLOAD PUSH4 0x6340A9A5 PUSH1 0xE1 SHL DUP2 MSTORE SWAP1 DUP2 ADD DUP7 SWAP1 MSTORE PUSH0 PUSH1 0x24 DUP3 ADD MSTORE PUSH1 0x44 SWAP1 REVERT JUMPDEST PUSH1 0x24 SWAP4 SWAP2 POP MLOAD SWAP2 PUSH4 0x2C4477E1 PUSH1 0xE2 SHL DUP4 MSTORE DUP3 ADD MSTORE REVERT JUMPDEST SWAP2 PUSH1 0x24 SWAP3 MLOAD SWAP2 PUSH4 0x13CCBABD PUSH1 0xE3 SHL DUP4 MSTORE DUP3 ADD MSTORE REVERT JUMPDEST POP SWAP2 PUSH1 0x24 SWAP3 MLOAD SWAP2 PUSH4 0xE372C1F PUSH1 0xE4 SHL DUP4 MSTORE DUP3 ADD MSTORE REVERT JUMPDEST DUP3 MLOAD PUSH4 0xCBFE6CB7 PUSH1 0xE0 SHL DUP2 MSTORE CALLER DUP2 DUP7 ADD SWAP1 DUP2 MSTORE PUSH1 0x1 PUSH1 0x1 PUSH1 0xA0 SHL SUB SWAP1 SWAP3 AND PUSH1 0x20 DUP4 ADD MSTORE SWAP1 DUP2 SWAP1 PUSH1 0x40 ADD SUB SWAP1 REVERT JUMPDEST DUP3 CALLVALUE PUSH2 0x127 JUMPI PUSH2 0x424 CALLDATASIZE PUSH2 0x1184 JUMP JUMPDEST SWAP1 DUP3 PUSH0 SWAP5 SWAP4 SWAP5 MSTORE PUSH1 0x3 PUSH1 0x20 MSTORE DUP3 PUSH0 KECCAK256 SWAP2 DUP3 SLOAD PUSH1 0xFF DUP2 PUSH1 0xA0 SHR AND ISZERO PUSH2 0x52D JUMPI PUSH1 0xA8 SHR PUSH1 0xFF AND PUSH2 0x516 JUMPI PUSH1 0x1 DUP4 ADD SWAP1 PUSH1 0x2 DUP3 SLOAD SWAP5 ADD SWAP4 DUP5 SLOAD SWAP1 DUP2 DUP2 EQ PUSH2 0x4FF JUMPI SWAP1 PUSH2 0x46C SWAP2 PUSH2 0x119E JUMP JUMPDEST PUSH1 0x1 SHR SWAP3 EQ ISZERO SWAP6 DUP7 PUSH0 EQ PUSH2 0x4C2 JUMPI POP SWAP5 DUP2 PUSH0 DUP1 MLOAD PUSH1 0x20 PUSH2 0x166A DUP4 CODECOPY DUP2 MLOAD SWAP2 MSTORE SWAP6 SWAP7 PUSH2 0x4BD SWAP4 DUP6 SSTORE JUMPDEST SLOAD SWAP4 SLOAD SWAP5 MLOAD SWAP5 DUP6 SWAP5 DUP6 SWAP3 PUSH1 0x60 SWAP3 SWAP6 SWAP5 SWAP2 SWAP6 PUSH1 0x80 DUP6 ADD SWAP7 DUP6 MSTORE PUSH1 0x20 DUP6 ADD MSTORE PUSH1 0x40 DUP5 ADD MSTORE ISZERO ISZERO SWAP2 ADD MSTORE JUMP JUMPDEST SUB SWAP1 LOG2 STOP JUMPDEST PUSH1 0x1 DUP4 ADD SWAP1 DUP2 DUP5 GT PUSH2 0x4EC JUMPI POP SWAP2 DUP2 PUSH2 0x4BD SWAP4 PUSH0 DUP1 MLOAD PUSH1 0x20 PUSH2 0x166A DUP4 CODECOPY DUP2 MLOAD SWAP2 MSTORE SWAP8 SWAP9 SWAP4 SSTORE PUSH2 0x494 JUMP JUMPDEST PUSH1 0x11 SWAP1 PUSH4 0x4E487B71 PUSH1 0xE0 SHL PUSH0 MSTORE MSTORE PUSH1 0x24 PUSH0 REVERT JUMPDEST DUP7 MLOAD PUSH4 0x2C4477E1 PUSH1 0xE2 SHL DUP2 MSTORE DUP1 DUP11 ADD DUP10 SWAP1 MSTORE PUSH1 0x24 SWAP1 REVERT JUMPDEST DUP4 MLOAD PUSH4 0x13CCBABD PUSH1 0xE3 SHL DUP2 MSTORE DUP1 DUP8 ADD DUP7 SWAP1 MSTORE PUSH1 0x24 SWAP1 REVERT JUMPDEST DUP5 MLOAD PUSH4 0xE372C1F PUSH1 0xE4 SHL DUP2 MSTORE DUP1 DUP9 ADD DUP8 SWAP1 MSTORE PUSH1 0x24 SWAP1 REVERT JUMPDEST SWAP1 POP CALLVALUE PUSH2 0x127 JUMPI PUSH1 0x20 CALLDATASIZE PUSH1 0x3 NOT ADD SLT PUSH2 0x127 JUMPI PUSH1 0xFF PUSH2 0x120 SWAP3 DUP3 CALLDATALOAD PUSH0 MSTORE PUSH1 0x1 PUSH1 0x20 MSTORE DUP1 PUSH0 KECCAK256 PUSH1 0x1 DUP1 PUSH1 0xA0 SHL SUB DUP2 SLOAD AND SWAP4 PUSH1 0x1 DUP3 ADD SLOAD SWAP3 PUSH1 0x2 DUP4 ADD SLOAD SWAP1 PUSH1 0x5 PUSH1 0x3 DUP6 ADD SLOAD SWAP4 DUP6 ADD SLOAD SWAP5 ADD SLOAD SWAP5 DUP2 MLOAD SWAP8 DUP9 MSTORE PUSH1 0x20 DUP9 ADD MSTORE DUP7 ADD MSTORE PUSH1 0x60 DUP6 ADD MSTORE PUSH1 0x80 DUP5 ADD MSTORE DUP2 DUP2 AND ISZERO ISZERO PUSH1 0xA0 DUP5 ADD MSTORE DUP2 DUP2 PUSH1 0x8 SHR AND ISZERO ISZERO PUSH1 0xC0 DUP5 ADD MSTORE DUP2 DUP2 PUSH1 0x10 SHR AND ISZERO ISZERO PUSH1 0xE0 DUP5 ADD MSTORE PUSH1 0x18 SHR AND ISZERO ISZERO PUSH2 0x100 DUP3 ADD MSTORE RETURN JUMPDEST DUP3 CALLVALUE PUSH2 0x127 JUMPI PUSH0 CALLDATASIZE PUSH1 0x3 NOT ADD SLT PUSH2 0x127 JUMPI PUSH1 0x20 SWAP1 MLOAD PUSH32 0x0 DUP2 MSTORE RETURN JUMPDEST SWAP1 POP CALLVALUE PUSH2 0x127 JUMPI PUSH2 0x622 CALLDATASIZE PUSH2 0x116E JUMP JUMPDEST DUP2 PUSH0 SWAP4 SWAP3 SWAP4 MSTORE PUSH1 0x3 PUSH1 0x20 MSTORE DUP4 PUSH0 KECCAK256 SWAP1 DUP2 SLOAD PUSH1 0x1 DUP1 PUSH1 0xA0 SHL SUB DUP2 AND DUP1 CALLER SUB PUSH2 0x750 JUMPI POP PUSH1 0xFF DUP2 PUSH1 0xA0 SHR AND ISZERO PUSH2 0x739 JUMPI PUSH1 0xA8 SHR PUSH1 0xFF AND PUSH2 0x722 JUMPI PUSH1 0x1 DUP3 ADD SLOAD SWAP5 PUSH1 0x2 DUP4 ADD SLOAD SWAP6 DUP7 DUP2 EQ PUSH2 0x70B JUMPI PUSH1 0x8 DUP5 ADD SWAP1 DUP2 SLOAD SWAP6 PUSH1 0xFF DUP8 PUSH1 0x8 SHR AND PUSH2 0x6EE JUMPI POP PUSH1 0x7 PUSH2 0x691 PUSH1 0xFF SWAP9 SWAP10 DUP7 SWAP4 PUSH2 0x119E JUMP JUMPDEST PUSH1 0x1 SHR SWAP6 DUP7 PUSH1 0x3 DUP3 ADD SSTORE ADD SSTORE PUSH2 0x100 PUSH2 0xFF00 NOT DUP7 AND OR SWAP1 SSTORE DUP1 MLOAD SWAP3 PUSH0 DUP5 MSTORE PUSH1 0x20 DUP5 ADD MSTORE DUP3 ADD MSTORE DUP4 PUSH32 0x94D715B6819D8757D5362F8A060997D036B290E4D7281A426ACE768F82CECF19 PUSH1 0x60 CALLER SWAP4 LOG3 AND PUSH2 0x6E5 JUMPI STOP JUMPDEST PUSH2 0x142 SWAP1 PUSH2 0x1251 JUMP JUMPDEST DUP4 MLOAD PUSH4 0xE34E893D PUSH1 0xE0 SHL DUP2 MSTORE SWAP1 DUP2 ADD DUP9 SWAP1 MSTORE PUSH0 PUSH1 0x24 DUP3 ADD MSTORE PUSH1 0x44 SWAP1 REVERT JUMPDEST DUP2 MLOAD PUSH4 0x2C4477E1 PUSH1 0xE2 SHL DUP2 MSTORE DUP1 DUP7 ADD DUP8 SWAP1 MSTORE PUSH1 0x24 SWAP1 REVERT JUMPDEST DUP5 MLOAD PUSH4 0x13CCBABD PUSH1 0xE3 SHL DUP2 MSTORE DUP1 DUP5 ADD DUP6 SWAP1 MSTORE PUSH1 0x24 SWAP1 REVERT JUMPDEST DUP6 MLOAD PUSH4 0xE372C1F PUSH1 0xE4 SHL DUP2 MSTORE DUP1 DUP6 ADD DUP7 SWAP1 MSTORE PUSH1 0x24 SWAP1 REVERT JUMPDEST DUP7 MLOAD PUSH4 0xCBFE6CB7 PUSH1 0xE0 SHL DUP2 MSTORE CALLER DUP2 DUP8 ADD SWAP1 DUP2 MSTORE PUSH1 0x1 PUSH1 0x1 PUSH1 0xA0 SHL SUB SWAP1 SWAP3 AND PUSH1 0x20 DUP4 ADD MSTORE SWAP1 DUP2 SWAP1 PUSH1 0x40 ADD SUB SWAP1 REVERT JUMPDEST SWAP1 POP CALLVALUE PUSH2 0x127 JUMPI PUSH2 0x78D CALLDATASIZE PUSH2 0x116E JUMP JUMPDEST PUSH2 0x796 DUP3 PUSH2 0x121E JUMP JUMPDEST PUSH0 DUP4 DUP2 MSTORE PUSH1 0x3 PUSH1 0x20 MSTORE DUP6 SWAP1 KECCAK256 SWAP1 SLOAD SWAP1 SWAP4 SWAP1 PUSH1 0x1 PUSH1 0x1 PUSH1 0xA0 SHL SUB AND CALLER DUP2 SWAP1 SUB PUSH2 0x8B9 JUMPI POP DUP4 SLOAD PUSH1 0xFF DUP2 PUSH1 0xA0 SHR AND ISZERO PUSH2 0x8A2 JUMPI PUSH1 0xA8 SHR PUSH1 0xFF AND PUSH2 0x88B JUMPI PUSH1 0x1 DUP5 ADD SLOAD PUSH1 0x2 DUP6 ADD SLOAD DUP2 SUB PUSH2 0x874 JUMPI PUSH1 0xB DUP6 ADD SWAP2 DUP3 SLOAD SWAP1 PUSH1 0xFF DUP3 AND PUSH2 0x856 JUMPI POP SWAP1 DUP4 DUP8 PUSH1 0x1 PUSH1 0xFF SWAP6 SWAP5 DUP4 PUSH1 0x9 DUP12 ADD SSTORE DUP7 NOT AND OR DUP1 SWAP5 SSTORE DUP1 MLOAD SWAP3 PUSH1 0x1 DUP5 MSTORE PUSH1 0x20 DUP5 ADD MSTORE DUP3 ADD MSTORE DUP5 PUSH32 0x366F2F299A6E4F5BF9E4206207D65FA2CBF6B0F9B18F5093680E00E06E9BF91F PUSH1 0x60 CALLER SWAP4 LOG3 PUSH1 0x8 SHR AND PUSH2 0x848 JUMPI STOP JUMPDEST PUSH1 0xA PUSH2 0x142 SWAP4 ADD SLOAD SWAP2 PUSH2 0x1353 JUMP JUMPDEST DUP8 MLOAD PUSH4 0x6340A9A5 PUSH1 0xE1 SHL DUP2 MSTORE SWAP1 DUP2 ADD DUP7 SWAP1 MSTORE PUSH1 0x1 PUSH1 0x24 DUP3 ADD MSTORE PUSH1 0x44 SWAP1 REVERT JUMPDEST DUP6 MLOAD PUSH4 0x2C4477E1 PUSH1 0xE2 SHL DUP2 MSTORE DUP1 DUP4 ADD DUP6 SWAP1 MSTORE PUSH1 0x24 SWAP1 REVERT JUMPDEST DUP5 MLOAD PUSH4 0x13CCBABD PUSH1 0xE3 SHL DUP2 MSTORE SWAP1 DUP2 ADD DUP4 SWAP1 MSTORE PUSH1 0x24 SWAP1 REVERT JUMPDEST DUP6 MLOAD PUSH4 0xE372C1F PUSH1 0xE4 SHL DUP2 MSTORE DUP1 DUP4 ADD DUP6 SWAP1 MSTORE PUSH1 0x24 SWAP1 REVERT JUMPDEST DUP6 MLOAD PUSH4 0x11822A97 PUSH1 0xE0 SHL DUP2 MSTORE CALLER SWAP3 DUP2 ADD SWAP3 DUP4 MSTORE PUSH1 0x1 PUSH1 0x1 PUSH1 0xA0 SHL SUB SWAP1 SWAP2 AND PUSH1 0x20 DUP4 ADD MSTORE SWAP1 DUP2 SWAP1 PUSH1 0x40 ADD SUB SWAP1 REVERT JUMPDEST DUP3 PUSH2 0x8F0 CALLDATASIZE PUSH2 0x116E JUMP JUMPDEST SWAP2 SWAP1 SWAP3 PUSH2 0x8FC DUP5 PUSH2 0x121E JUMP JUMPDEST SWAP1 PUSH32 0x0 DUP1 CALLVALUE SUB PUSH2 0xAB5 JUMPI POP PUSH1 0x5 DUP3 ADD DUP1 SLOAD PUSH1 0xFF DUP2 PUSH1 0x8 SHR AND PUSH2 0xA9E JUMPI PUSH1 0xFF DUP2 PUSH1 0x10 SHR AND PUSH2 0xA87 JUMPI PUSH1 0xFF DUP2 AND PUSH2 0xA70 JUMPI PUSH2 0x979 PUSH1 0x3 DUP6 ADD SLOAD PUSH32 0x0 SWAP1 PUSH2 0x119E JUMP JUMPDEST TIMESTAMP GT PUSH2 0xA59 JUMPI PUSH1 0xFF NOT AND PUSH1 0x1 SWAP1 DUP2 OR SWAP1 SWAP2 SSTORE PUSH0 DUP7 DUP2 MSTORE PUSH1 0x3 PUSH1 0x20 MSTORE DUP5 DUP2 KECCAK256 DUP1 SLOAD PUSH1 0x1 PUSH1 0x1 PUSH1 0xB0 SHL SUB NOT AND CALLER PUSH2 0xFFFF PUSH1 0xA0 SHL NOT AND OR PUSH1 0x1 PUSH1 0xA0 SHL OR DUP2 SSTORE SWAP2 DUP3 ADD SSTORE DUP2 DUP4 ADD SLOAD SWAP1 SWAP3 SWAP1 PUSH0 NOT DUP2 ADD SWAP1 DUP2 GT PUSH2 0xA46 JUMPI SWAP3 PUSH1 0x20 SWAP5 SWAP3 PUSH1 0x2 PUSH1 0xB SWAP4 PUSH32 0x466C366B6D796E4B34154585F7A7A505732D2E4A9082FC01F1766FE0C13B27CB SWAP9 SWAP7 DUP3 DUP6 ADD SSTORE PUSH0 PUSH1 0x3 DUP6 ADD SSTORE ADD SLOAD SWAP1 DUP3 ADD SSTORE DUP4 PUSH1 0x5 DUP3 ADD SSTORE PUSH0 PUSH1 0x6 DUP3 ADD SSTORE PUSH0 PUSH1 0x7 DUP3 ADD SSTORE PUSH1 0x8 DUP2 ADD PUSH2 0xFFFF NOT DUP2 SLOAD AND SWAP1 SSTORE PUSH0 PUSH1 0x9 DUP3 ADD SSTORE PUSH0 PUSH1 0xA DUP3 ADD SSTORE ADD PUSH4 0xFFFFFFFF NOT DUP2 SLOAD AND SWAP1 SSTORE MLOAD SWAP1 DUP2 MSTORE LOG2 STOP JUMPDEST PUSH1 0x11 DUP4 PUSH4 0x4E487B71 PUSH1 0xE0 SHL PUSH0 MSTORE MSTORE PUSH1 0x24 PUSH0 REVERT JUMPDEST DUP5 MLOAD PUSH4 0x4046DD81 PUSH1 0xE0 SHL DUP2 MSTORE DUP1 DUP5 ADD DUP9 SWAP1 MSTORE PUSH1 0x24 SWAP1 REVERT JUMPDEST DUP5 MLOAD PUSH4 0x347D276F PUSH1 0xE0 SHL DUP2 MSTORE DUP1 DUP5 ADD DUP9 SWAP1 MSTORE PUSH1 0x24 SWAP1 REVERT JUMPDEST DUP5 MLOAD PUSH4 0x2AE2E865 PUSH1 0xE2 SHL DUP2 MSTORE DUP1 DUP5 ADD DUP9 SWAP1 MSTORE PUSH1 0x24 SWAP1 REVERT JUMPDEST DUP5 MLOAD PUSH4 0xA99BD781 PUSH1 0xE0 SHL DUP2 MSTORE DUP1 DUP5 ADD DUP9 SWAP1 MSTORE PUSH1 0x24 SWAP1 REVERT JUMPDEST DUP4 MLOAD PUSH4 0xE04483EF PUSH1 0xE0 SHL DUP2 MSTORE SWAP2 DUP3 ADD MSTORE CALLVALUE PUSH1 0x24 DUP3 ADD MSTORE PUSH1 0x44 SWAP2 POP REVERT JUMPDEST SWAP1 POP PUSH1 0x60 CALLDATASIZE PUSH1 0x3 NOT ADD SLT PUSH2 0x127 JUMPI DUP1 CALLDATALOAD SWAP2 PUSH1 0x24 SWAP3 DUP4 CALLDATALOAD SWAP4 PUSH1 0x44 CALLDATALOAD SWAP4 PUSH8 0xFFFFFFFFFFFFFFFF SWAP2 DUP3 DUP7 GT PUSH2 0x127 JUMPI CALLDATASIZE PUSH1 0x23 DUP8 ADD SLT ISZERO PUSH2 0x127 JUMPI DUP6 DUP3 ADD CALLDATALOAD SWAP3 DUP4 GT PUSH2 0x127 JUMPI PUSH1 0x5 SWAP1 CALLDATASIZE DUP2 DUP6 PUSH1 0x5 SHL DUP10 ADD ADD GT PUSH2 0x127 JUMPI DUP4 ISZERO PUSH2 0xC91 JUMPI PUSH32 0x0 DUP1 CALLVALUE SUB PUSH2 0xC76 JUMPI POP PUSH0 SLOAD SWAP2 PUSH0 NOT SWAP8 DUP9 DUP5 EQ PUSH2 0xC64 JUMPI PUSH1 0x1 DUP1 SWAP5 ADD SWAP9 DUP10 PUSH0 SSTORE DUP10 PUSH0 MSTORE PUSH1 0x20 SWAP4 PUSH1 0x1 PUSH1 0x20 MSTORE DUP10 PUSH0 KECCAK256 SWAP3 CALLER PUSH12 0xFFFFFFFFFFFFFFFFFFFFFFFF PUSH1 0xA0 SHL DUP6 SLOAD AND OR DUP5 SSTORE DUP10 PUSH1 0x1 DUP6 ADD SSTORE PUSH1 0x2 DUP14 PUSH1 0x2 DUP7 ADD SSTORE PUSH1 0x5 PUSH1 0x3 SWAP6 TIMESTAMP PUSH1 0x3 DUP3 ADD SSTORE DUP12 DUP12 DUP3 ADD SSTORE ADD PUSH4 0xFFFFFFFF NOT DUP2 SLOAD AND SWAP1 SSTORE PUSH0 JUMPDEST DUP11 DUP2 LT PUSH2 0xC06 JUMPI POP POP POP PUSH1 0x20 DUP12 DUP12 DUP12 DUP16 PUSH32 0xBB31917F1FDE51FF173767C9E35D5DD8829E15FD96D1A5DCB9C281327C0295D0 PUSH1 0x60 DUP6 SWAP3 DUP16 DUP7 MLOAD SWAP2 DUP3 MSTORE DUP9 DUP3 ADD MSTORE TIMESTAMP DUP7 DUP3 ADD MSTORE LOG3 MLOAD SWAP1 DUP2 MSTORE RETURN JUMPDEST DUP14 PUSH0 MSTORE DUP2 DUP9 MSTORE DUP13 PUSH0 KECCAK256 DUP1 SLOAD SWAP1 PUSH9 0x10000000000000000 DUP3 LT ISZERO PUSH2 0xC52 JUMPI DUP2 PUSH2 0xC34 SWAP2 DUP13 DUP1 SWAP6 SWAP5 ADD DUP2 SSTORE PUSH2 0x11F5 JUMP JUMPDEST DUP2 SLOAD SWAP1 DUP10 SHL SWAP1 DUP9 DUP9 DUP6 DUP14 SHL DUP10 ADD ADD CALLDATALOAD DUP4 SHL SWAP3 SHL NOT AND OR SWAP1 SSTORE ADD PUSH2 0xBBB JUMP JUMPDEST DUP6 PUSH1 0x41 DUP14 PUSH4 0x4E487B71 PUSH1 0xE0 SHL PUSH0 MSTORE MSTORE PUSH0 REVERT JUMPDEST DUP3 PUSH1 0x11 DUP7 PUSH4 0x4E487B71 PUSH1 0xE0 SHL PUSH0 MSTORE MSTORE PUSH0 REVERT JUMPDEST DUP7 MLOAD PUSH4 0x9F0AA1D PUSH1 0xE1 SHL DUP2 MSTORE SWAP4 DUP5 ADD MSTORE CALLVALUE SWAP1 DUP4 ADD MSTORE POP PUSH1 0x44 SWAP1 REVERT JUMPDEST DUP6 MLOAD PUSH4 0xC2E5347D PUSH1 0xE0 SHL DUP2 MSTORE DUP4 SWAP1 REVERT JUMPDEST DUP3 CALLVALUE PUSH2 0x127 JUMPI PUSH0 CALLDATASIZE PUSH1 0x3 NOT ADD SLT PUSH2 0x127 JUMPI PUSH1 0x20 SWAP1 MLOAD PUSH32 0x0 DUP2 MSTORE RETURN JUMPDEST DUP3 CALLVALUE PUSH2 0x127 JUMPI PUSH1 0x20 CALLDATASIZE PUSH1 0x3 NOT ADD SLT PUSH2 0x127 JUMPI DUP2 CALLDATALOAD PUSH1 0x1 PUSH1 0x1 PUSH1 0xA0 SHL SUB DUP2 AND SWAP3 SWAP1 DUP4 SWAP1 SUB PUSH2 0x127 JUMPI PUSH1 0x20 SWAP3 PUSH0 MSTORE DUP3 MSTORE DUP1 PUSH0 KECCAK256 SLOAD SWAP1 MLOAD SWAP1 DUP2 MSTORE RETURN JUMPDEST DUP3 CALLVALUE PUSH2 0x127 JUMPI DUP1 PUSH1 0x3 NOT CALLDATASIZE ADD SLT PUSH2 0x127 JUMPI DUP2 CALLDATALOAD PUSH1 0x24 CALLDATALOAD SWAP3 DUP1 PUSH2 0xD35 DUP4 PUSH2 0x121E JUMP JUMPDEST ADD SLOAD DUP5 LT ISZERO PUSH2 0xD62 JUMPI POP PUSH1 0x20 SWAP3 PUSH2 0xD54 SWAP2 PUSH0 MSTORE PUSH1 0x2 DUP5 MSTORE DUP3 PUSH0 KECCAK256 PUSH2 0x11F5 JUMP JUMPDEST SWAP2 SWAP1 SLOAD SWAP1 MLOAD SWAP2 PUSH1 0x3 SHL SHR DUP2 MSTORE RETURN JUMPDEST DUP3 MLOAD PUSH4 0x44D35AB5 PUSH1 0xE0 SHL DUP2 MSTORE REVERT JUMPDEST DUP3 CALLVALUE PUSH2 0x127 JUMPI PUSH1 0x20 CALLDATASIZE PUSH1 0x3 NOT ADD SLT PUSH2 0x127 JUMPI DUP2 CALLDATALOAD PUSH0 MSTORE PUSH1 0x3 PUSH1 0x20 MSTORE DUP1 PUSH0 KECCAK256 DUP1 SLOAD SWAP3 PUSH1 0x1 DUP3 ADD SLOAD SWAP1 PUSH1 0x2 DUP4 ADD SLOAD SWAP1 PUSH1 0x3 DUP5 ADD SLOAD SWAP1 DUP5 ADD SLOAD PUSH1 0x5 DUP6 ADD SLOAD PUSH1 0x6 DUP7 ADD SLOAD SWAP2 PUSH1 0x7 DUP8 ADD SLOAD SWAP4 PUSH1 0x8 DUP9 ADD SLOAD SWAP6 PUSH1 0x9 DUP10 ADD SLOAD SWAP8 PUSH1 0xA DUP11 ADD SLOAD SWAP10 PUSH1 0xB ADD SLOAD SWAP11 DUP1 MLOAD SWAP13 DUP14 PUSH1 0x1 PUSH1 0xA0 SHL PUSH1 0x1 SWAP1 SUB DUP3 AND SWAP1 MSTORE DUP14 DUP2 PUSH1 0xA0 SHR PUSH1 0xFF AND ISZERO ISZERO SWAP1 PUSH1 0x20 ADD MSTORE PUSH1 0xA8 SHR PUSH1 0xFF AND ISZERO ISZERO SWAP1 DUP14 ADD MSTORE PUSH1 0x60 DUP13 ADD MSTORE PUSH1 0x80 DUP12 ADD MSTORE PUSH1 0xA0 DUP11 ADD MSTORE PUSH1 0xC0 DUP10 ADD MSTORE PUSH1 0xE0 DUP9 ADD MSTORE PUSH2 0x100 DUP8 ADD MSTORE PUSH2 0x120 DUP7 ADD MSTORE PUSH1 0xFF DUP2 AND ISZERO ISZERO PUSH2 0x140 DUP7 ADD MSTORE PUSH1 0x8 SHR PUSH1 0xFF AND ISZERO ISZERO PUSH2 0x160 DUP6 ADD MSTORE PUSH2 0x180 DUP5 ADD MSTORE PUSH2 0x1A0 DUP4 ADD MSTORE PUSH1 0xFF DUP2 AND ISZERO ISZERO PUSH2 0x1C0 DUP4 ADD MSTORE DUP1 PUSH1 0x8 SHR PUSH1 0xFF AND ISZERO ISZERO PUSH2 0x1E0 DUP4 ADD MSTORE DUP1 PUSH1 0x10 SHR PUSH1 0xFF AND ISZERO ISZERO PUSH2 0x200 DUP4 ADD MSTORE PUSH1 0x18 SHR PUSH1 0xFF AND ISZERO ISZERO PUSH2 0x220 DUP3 ADD MSTORE PUSH2 0x240 SWAP1 RETURN JUMPDEST SWAP1 POP CALLVALUE PUSH2 0x127 JUMPI PUSH0 CALLDATASIZE PUSH1 0x3 NOT ADD SLT PUSH2 0x127 JUMPI CALLER PUSH0 MSTORE DUP1 PUSH1 0x20 MSTORE DUP2 PUSH0 KECCAK256 SLOAD DUP1 ISZERO PUSH2 0xF52 JUMPI PUSH0 DUP1 DUP1 DUP1 SWAP4 CALLER DUP3 MSTORE DUP6 PUSH1 0x20 MSTORE DUP2 DUP8 DUP2 KECCAK256 SSTORE CALLER GAS CALL RETURNDATASIZE ISZERO PUSH2 0xF4D JUMPI RETURNDATASIZE PUSH8 0xFFFFFFFFFFFFFFFF DUP2 GT PUSH2 0xF3A JUMPI DUP4 MLOAD SWAP1 PUSH2 0xEE7 PUSH1 0x1F DUP3 ADD PUSH1 0x1F NOT AND PUSH1 0x20 ADD DUP4 PUSH2 0x11BF JUMP JUMPDEST DUP2 MSTORE PUSH0 PUSH1 0x20 RETURNDATASIZE SWAP3 ADD RETURNDATACOPY JUMPDEST ISZERO PUSH2 0xEF8 JUMPI STOP JUMPDEST PUSH1 0x20 PUSH1 0x64 SWAP3 MLOAD SWAP2 PUSH3 0x461BCD PUSH1 0xE5 SHL DUP4 MSTORE DUP3 ADD MSTORE PUSH1 0x18 PUSH1 0x24 DUP3 ADD MSTORE PUSH32 0x7769746864726177207472616E73666572206661696C65640000000000000000 PUSH1 0x44 DUP3 ADD MSTORE REVERT JUMPDEST PUSH1 0x41 DUP4 PUSH4 0x4E487B71 PUSH1 0xE0 SHL PUSH0 MSTORE MSTORE PUSH1 0x24 PUSH0 REVERT JUMPDEST PUSH2 0xEF1 JUMP JUMPDEST POP PUSH1 0x24 SWAP2 MLOAD SWAP1 PUSH4 0x35BD8497 PUSH1 0xE1 SHL DUP3 MSTORE CALLER SWAP1 DUP3 ADD MSTORE REVERT JUMPDEST DUP3 CALLVALUE PUSH2 0x127 JUMPI PUSH0 CALLDATASIZE PUSH1 0x3 NOT ADD SLT PUSH2 0x127 JUMPI PUSH1 0x20 SWAP1 PUSH0 SLOAD SWAP1 MLOAD SWAP1 DUP2 MSTORE RETURN JUMPDEST SWAP1 POP CALLVALUE PUSH2 0x127 JUMPI PUSH1 0x20 SWAP1 DUP2 PUSH1 0x3 NOT CALLDATASIZE ADD SLT PUSH2 0x127 JUMPI DUP3 SWAP1 CALLDATALOAD PUSH2 0xFA7 DUP2 PUSH2 0x121E JUMP JUMPDEST POP PUSH0 MSTORE PUSH1 0x2 DUP3 MSTORE DUP1 PUSH0 KECCAK256 DUP2 MLOAD SWAP3 DUP4 DUP2 DUP4 SLOAD SWAP2 DUP3 DUP2 MSTORE ADD SWAP1 DUP2 SWAP4 PUSH0 MSTORE DUP3 PUSH0 KECCAK256 SWAP1 PUSH0 JUMPDEST DUP2 DUP2 LT PUSH2 0x1019 JUMPI POP POP POP DUP5 PUSH2 0xFDE SWAP2 SUB DUP6 PUSH2 0x11BF JUMP JUMPDEST DUP3 MLOAD DUP2 DUP2 MSTORE SWAP4 MLOAD DUP2 DUP6 ADD DUP2 SWAP1 MSTORE DUP5 SWAP4 DUP5 ADD SWAP3 SWAP2 PUSH0 JUMPDEST DUP3 DUP2 LT PUSH2 0x1002 JUMPI POP POP POP POP SUB SWAP1 RETURN JUMPDEST DUP4 MLOAD DUP6 MSTORE DUP7 SWAP6 POP SWAP4 DUP2 ADD SWAP4 SWAP3 DUP2 ADD SWAP3 PUSH1 0x1 ADD PUSH2 0xFF3 JUMP JUMPDEST DUP3 SLOAD DUP5 MSTORE SWAP3 DUP5 ADD SWAP3 PUSH1 0x1 SWAP3 DUP4 ADD SWAP3 ADD PUSH2 0xFC8 JUMP JUMPDEST SWAP1 POP CALLVALUE PUSH2 0x127 JUMPI PUSH2 0x103D CALLDATASIZE PUSH2 0x116E JUMP JUMPDEST PUSH2 0x1048 DUP3 SWAP4 SWAP3 PUSH2 0x121E JUMP JUMPDEST PUSH0 DUP5 DUP2 MSTORE PUSH1 0x3 PUSH1 0x20 MSTORE DUP6 SWAP1 KECCAK256 SWAP1 SLOAD SWAP1 SWAP2 SWAP1 PUSH1 0x1 PUSH1 0x1 PUSH1 0xA0 SHL SUB AND CALLER DUP2 SWAP1 SUB PUSH2 0x1141 JUMPI POP DUP2 SLOAD PUSH1 0xFF DUP2 PUSH1 0xA0 SHR AND ISZERO PUSH2 0x739 JUMPI PUSH1 0xA8 SHR PUSH1 0xFF AND PUSH2 0x722 JUMPI PUSH1 0x1 DUP3 ADD SLOAD SWAP3 PUSH1 0x2 DUP4 ADD SLOAD DUP1 DUP6 EQ PUSH2 0x112A JUMPI PUSH1 0x8 DUP5 ADD SWAP5 DUP6 SLOAD SWAP3 PUSH1 0xFF DUP5 AND PUSH2 0x110C JUMPI POP SWAP2 DUP4 PUSH1 0x6 PUSH2 0x10BA PUSH1 0x1 SWAP5 PUSH1 0xFF SWAP11 SWAP12 SWAP7 PUSH2 0x119E JUMP JUMPDEST DUP5 SHR SWAP7 DUP8 PUSH1 0x3 DUP3 ADD SSTORE ADD SSTORE DUP7 NOT AND OR DUP1 SWAP5 SSTORE DUP1 MLOAD SWAP3 PUSH1 0x1 DUP5 MSTORE PUSH1 0x20 DUP5 ADD MSTORE DUP3 ADD MSTORE DUP4 PUSH32 0x94D715B6819D8757D5362F8A060997D036B290E4D7281A426ACE768F82CECF19 PUSH1 0x60 CALLER SWAP4 LOG3 PUSH1 0x8 SHR AND PUSH2 0x6E5 JUMPI STOP JUMPDEST DUP9 MLOAD PUSH4 0xE34E893D PUSH1 0xE0 SHL DUP2 MSTORE SWAP1 DUP2 ADD DUP9 SWAP1 MSTORE PUSH1 0x1 PUSH1 0x24 DUP3 ADD MSTORE PUSH1 0x44 SWAP1 REVERT JUMPDEST DUP7 MLOAD PUSH4 0x2C4477E1 PUSH1 0xE2 SHL DUP2 MSTORE DUP1 DUP4 ADD DUP8 SWAP1 MSTORE PUSH1 0x24 SWAP1 REVERT JUMPDEST DUP6 MLOAD PUSH4 0x11822A97 PUSH1 0xE0 SHL DUP2 MSTORE CALLER DUP2 DUP7 ADD SWAP1 DUP2 MSTORE PUSH1 0x1 PUSH1 0x1 PUSH1 0xA0 SHL SUB SWAP1 SWAP3 AND PUSH1 0x20 DUP4 ADD MSTORE SWAP1 DUP2 SWAP1 PUSH1 0x40 ADD SUB SWAP1 REVERT JUMPDEST PUSH1 0x40 SWAP1 PUSH1 0x3 NOT ADD SLT PUSH2 0x127 JUMPI PUSH1 0x4 CALLDATALOAD SWAP1 PUSH1 0x24 CALLDATALOAD SWAP1 JUMP JUMPDEST PUSH1 0x60 SWAP1 PUSH1 0x3 NOT ADD SLT PUSH2 0x127 JUMPI PUSH1 0x4 CALLDATALOAD SWAP1 PUSH1 0x24 CALLDATALOAD SWAP1 PUSH1 0x44 CALLDATALOAD SWAP1 JUMP JUMPDEST SWAP2 SWAP1 DUP3 ADD DUP1 SWAP3 GT PUSH2 0x11AB JUMPI JUMP JUMPDEST PUSH4 0x4E487B71 PUSH1 0xE0 SHL PUSH0 MSTORE PUSH1 0x11 PUSH1 0x4 MSTORE PUSH1 0x24 PUSH0 REVERT JUMPDEST SWAP1 PUSH1 0x1F DUP1 NOT SWAP2 ADD AND DUP2 ADD SWAP1 DUP2 LT PUSH8 0xFFFFFFFFFFFFFFFF DUP3 GT OR PUSH2 0x11E1 JUMPI PUSH1 0x40 MSTORE JUMP JUMPDEST PUSH4 0x4E487B71 PUSH1 0xE0 SHL PUSH0 MSTORE PUSH1 0x41 PUSH1 0x4 MSTORE PUSH1 0x24 PUSH0 REVERT JUMPDEST DUP1 SLOAD DUP3 LT ISZERO PUSH2 0x120A JUMPI PUSH0 MSTORE PUSH1 0x20 PUSH0 KECCAK256 ADD SWAP1 PUSH0 SWAP1 JUMP JUMPDEST PUSH4 0x4E487B71 PUSH1 0xE0 SHL PUSH0 MSTORE PUSH1 0x32 PUSH1 0x4 MSTORE PUSH1 0x24 PUSH0 REVERT JUMPDEST SWAP1 DUP2 PUSH0 MSTORE PUSH1 0x1 PUSH1 0x20 MSTORE PUSH1 0x40 PUSH0 KECCAK256 SWAP2 PUSH1 0x3 DUP4 ADD SLOAD ISZERO PUSH2 0x1239 JUMPI POP JUMP JUMPDEST PUSH1 0x24 SWAP1 PUSH1 0x40 MLOAD SWAP1 PUSH4 0x3C526129 PUSH1 0xE2 SHL DUP3 MSTORE PUSH1 0x4 DUP3 ADD MSTORE REVERT JUMPDEST DUP1 PUSH0 MSTORE PUSH1 0x3 PUSH1 0x20 MSTORE PUSH1 0x40 PUSH0 KECCAK256 PUSH1 0x8 DUP2 ADD SWAP1 DUP2 SLOAD PUSH1 0xFF DUP2 AND ISZERO SWAP1 DUP2 ISZERO PUSH2 0x1329 JUMPI JUMPDEST POP PUSH2 0x1324 JUMPI PUSH1 0x3 DUP2 ADD SLOAD SWAP1 PUSH1 0x6 DUP2 ADD SWAP3 DUP4 SLOAD SWAP4 PUSH1 0x7 DUP4 ADD SWAP5 DUP6 SLOAD EQ ISZERO SWAP2 DUP3 PUSH0 EQ PUSH2 0x12F5 JUMPI PUSH0 DUP1 MLOAD PUSH1 0x20 PUSH2 0x166A DUP4 CODECOPY DUP2 MLOAD SWAP2 MSTORE SWAP6 PUSH0 PUSH2 0x12F0 SWAP5 SWAP4 DUP2 SWAP4 DUP9 PUSH1 0x2 DUP10 ADD SSTORE JUMPDEST PUSH2 0xFFFF NOT DUP2 SLOAD AND SWAP1 SSTORE SSTORE SSTORE PUSH1 0x2 PUSH1 0x1 DUP5 ADD SLOAD SWAP4 ADD SLOAD SWAP4 PUSH1 0x40 MLOAD SWAP5 DUP6 SWAP5 DUP6 SWAP3 PUSH1 0x60 SWAP3 SWAP6 SWAP5 SWAP2 SWAP6 PUSH1 0x80 DUP6 ADD SWAP7 DUP6 MSTORE PUSH1 0x20 DUP6 ADD MSTORE PUSH1 0x40 DUP5 ADD MSTORE ISZERO ISZERO SWAP2 ADD MSTORE JUMP JUMPDEST SUB SWAP1 LOG2 JUMP JUMPDEST PUSH1 0x1 DUP6 SWAP4 SWAP3 SWAP4 ADD SWAP6 DUP7 DUP7 GT PUSH2 0x11AB JUMPI PUSH0 PUSH2 0x12F0 SWAP5 DUP2 SWAP4 PUSH0 DUP1 MLOAD PUSH1 0x20 PUSH2 0x166A DUP4 CODECOPY DUP2 MLOAD SWAP2 MSTORE SWAP10 PUSH1 0x1 DUP10 ADD SSTORE PUSH2 0x12B3 JUMP JUMPDEST POP POP POP JUMP JUMPDEST PUSH1 0xFF SWAP2 POP PUSH1 0x8 SHR AND ISZERO PUSH0 PUSH2 0x1271 JUMP JUMPDEST SWAP2 SWAP1 SWAP2 PUSH0 DUP4 DUP3 ADD SWAP4 DUP5 SLT SWAP2 SLT SWAP1 DUP1 ISZERO DUP3 AND SWAP2 ISZERO AND OR PUSH2 0x11AB JUMPI JUMP JUMPDEST SWAP2 DUP3 PUSH0 MSTORE PUSH1 0x3 SWAP1 PUSH1 0x20 SWAP3 PUSH1 0x3 DUP5 MSTORE PUSH1 0x40 SWAP2 DUP3 PUSH0 KECCAK256 SWAP1 PUSH2 0x1371 DUP8 PUSH2 0x121E JUMP JUMPDEST SWAP1 DUP3 SLOAD SWAP4 PUSH1 0xFF DUP6 PUSH1 0xA0 SHR AND ISZERO PUSH2 0x1651 JUMPI PUSH1 0xFF DUP6 PUSH1 0xA8 SHR AND PUSH2 0x1639 JUMPI PUSH1 0x1 SWAP7 PUSH1 0x1 DUP6 ADD SLOAD SWAP8 PUSH1 0x2 DUP1 DUP8 ADD SLOAD DUP11 SUB PUSH2 0x1621 JUMPI DUP5 DUP5 EQ PUSH2 0x1610 JUMPI PUSH1 0x4 DUP7 ADD SLOAD DUP11 LT ISZERO PUSH2 0x15FF JUMPI SWAP2 SWAP1 DUP12 PUSH0 MSTORE PUSH1 0x1 DUP12 MSTORE PUSH1 0x1 DUP10 PUSH0 KECCAK256 ADD SLOAD SWAP3 PUSH0 SWAP3 JUMPDEST DUP14 DUP13 DUP6 LT PUSH2 0x15CC JUMPI SWAP1 POP PUSH1 0x60 SWAP12 SWAP10 SWAP8 SWAP6 SWAP4 POP PUSH2 0x1426 SWAP3 POP PUSH32 0x6BBC4F84909B75A535268D1E20AE8277D0FF2BB584A3C06E31532AAF26ABFF7A SWAP13 SWAP11 SWAP9 SWAP7 SWAP5 SWAP2 POP PUSH0 MSTORE PUSH1 0x2 DUP11 MSTORE PUSH2 0x1419 DUP10 DUP10 PUSH0 KECCAK256 PUSH2 0x11F5 JUMP JUMPDEST SWAP1 SLOAD SWAP1 PUSH1 0x3 SHL SHR SWAP1 PUSH2 0x1338 JUMP JUMPDEST PUSH2 0xFFFF PUSH1 0xA0 SHL NOT SWAP1 SWAP6 AND PUSH1 0x1 PUSH1 0xA8 SHL OR DUP5 SSTORE PUSH1 0xB DUP5 ADD DUP1 SLOAD PUSH2 0xFFFF NOT DUP2 AND DUP3 SSTORE SWAP1 SWAP6 SWAP1 SWAP3 DUP2 EQ SWAP2 DUP3 PUSH2 0x15C1 JUMPI JUMPDEST POP POP ISZERO PUSH2 0x151E JUMPI POP PUSH1 0x5 PUSH4 0x1000000 SWAP2 DUP3 PUSH4 0xFFFF0000 NOT DUP7 SLOAD AND OR DUP6 SSTORE ADD SWAP2 PUSH3 0x10001 PUSH3 0xFF00FF NOT DUP5 SLOAD AND OR DUP4 SSTORE PUSH2 0x14CB PUSH32 0x0 PUSH32 0x0 PUSH2 0x119E JUMP JUMPDEST SWAP1 SLOAD PUSH1 0x1 PUSH1 0x1 PUSH1 0xA0 SHL SUB AND PUSH0 SWAP1 DUP2 MSTORE PUSH1 0x4 DUP9 MSTORE DUP6 SWAP1 KECCAK256 DUP1 SLOAD SWAP1 SWAP2 PUSH2 0x14EE SWAP2 PUSH2 0x119E JUMP JUMPDEST SWAP1 SSTORE DUP2 SLOAD PUSH4 0xFF000000 NOT AND OR SWAP1 SSTORE JUMPDEST SLOAD SWAP3 PUSH1 0xFF DUP3 MLOAD SWAP5 DUP2 DUP2 PUSH1 0x18 SHR AND ISZERO ISZERO DUP7 MSTORE PUSH1 0x10 SHR AND ISZERO ISZERO SWAP1 DUP5 ADD MSTORE DUP3 ADD MSTORE LOG2 JUMP JUMPDEST PUSH4 0xFFFFFFFF NOT AND PUSH3 0x10000 OR DUP4 SSTORE PUSH1 0x5 DUP2 ADD DUP1 SLOAD PUSH3 0xFF00FF NOT AND DUP2 SSTORE SWAP2 POP PUSH2 0x1586 PUSH32 0x0 PUSH32 0x0 PUSH2 0x119E JUMP JUMPDEST SWAP1 SLOAD PUSH1 0x1 PUSH1 0x1 PUSH1 0xA0 SHL SUB AND PUSH0 SWAP1 DUP2 MSTORE PUSH1 0x4 DUP8 MSTORE DUP5 SWAP1 KECCAK256 DUP1 SLOAD SWAP1 SWAP2 PUSH2 0x15A9 SWAP2 PUSH2 0x119E JUMP JUMPDEST SWAP1 SSTORE DUP1 SLOAD PUSH4 0xFF000000 NOT AND PUSH4 0x1000000 OR SWAP1 SSTORE PUSH2 0x14FD JUMP JUMPDEST EQ ISZERO SWAP1 POP PUSH0 DUP1 PUSH2 0x1453 JUMP JUMPDEST DUP5 SWAP6 PUSH2 0x15E9 DUP16 SWAP7 DUP15 DUP7 DUP9 SWAP10 PUSH2 0x15F5 SWAP7 PUSH0 SWAP11 SWAP9 SWAP10 SWAP11 MSTORE MSTORE PUSH0 KECCAK256 PUSH2 0x11F5 JUMP JUMPDEST SWAP1 SLOAD SWAP1 DUP6 SHL SHR SWAP1 PUSH2 0x1338 JUMP JUMPDEST SWAP5 ADD SWAP3 SWAP2 SWAP1 PUSH2 0x13C8 JUMP JUMPDEST DUP9 MLOAD PUSH4 0x44D35AB5 PUSH1 0xE0 SHL DUP2 MSTORE PUSH1 0x4 SWAP1 REVERT JUMPDEST DUP9 MLOAD PUSH4 0x36BBEA83 PUSH1 0xE1 SHL DUP2 MSTORE PUSH1 0x4 SWAP1 REVERT JUMPDEST DUP9 MLOAD PUSH4 0x2C4477E1 PUSH1 0xE2 SHL DUP2 MSTORE PUSH1 0x4 DUP2 ADD DUP14 SWAP1 MSTORE PUSH1 0x24 SWAP1 REVERT JUMPDEST DUP6 MLOAD PUSH4 0x13CCBABD PUSH1 0xE3 SHL DUP2 MSTORE PUSH1 0x4 DUP2 ADD DUP11 SWAP1 MSTORE PUSH1 0x24 SWAP1 REVERT JUMPDEST DUP6 MLOAD PUSH4 0xE372C1F PUSH1 0xE4 SHL DUP2 MSTORE PUSH1 0x4 DUP2 ADD DUP11 SWAP1 MSTORE PUSH1 0x24 SWAP1 REVERT INVALID 0xDA PUSH5 0xB7ECE081B9 BASEFEE 0xFB ADD 0xC4 SMOD PUSH28 0x52FD0F994BCC4C7FEA7AAC79BDE4ECD43DDC5AA26469706673582212 KECCAK256 0xBD 0xA7 0xC1 0x29 PUSH9 0x8D62BB8096A656EBA4 0xD5 0xDF MSTORE PUSH0 0x4E 0xB6 0x29 0xDD PUSH1 0x82 PUSH25 0xE787A545CC572C64736F6C6343000818003300000000000000 "},"methodIdentifiers":{"batches(uint256)":"b32c4d8d","bisectDispute(uint256,int256,int256)":"c67f7a08","challengePeriod()":"f3f480d9","challengerBond()":"68ccdc86","claimableBalances(address)":"68c8278f","disputes(uint256)":"564a565d","finalizeBatch(uint256)":"e33491a7","getBatchDeltas(uint256)":"368cf072","getDeltaAt(uint256,uint256)":"58ca1fd7","initiateChallenge(uint256,int256)":"6e34ca28","latestBatchId()":"4d4e7019","resolveSingleStep(uint256,int256,int256)":"e4d84994","sequencerBond()":"a8608d18","submitBatch(int256,int256,int256[])":"69164890","submitChallengerMidpointClaim(uint256,int256)":"940f8e0e","submitChallengerSingleStepClaim(uint256,int256)":"e0965d16","submitSequencerMidpointClaim(uint256,int256)":"068b7531","submitSequencerSingleStepClaim(uint256,int256)":"73be42fd","withdrawClaimable()":"4fa982d4"}}}}}