{"project/contracts/InteractiveOptimisticRollup.sol":{"InteractiveOptimisticRollup":{"abi":[{"inputs":[{"internalType":"uint256","name":"_challengePeriodSeconds","type":"uint256"},{"internalType":"uint256","name":"_sequencerBond","type":"uint256"},{"internalType":"uint256","name":"_challengerBond","type":"uint256"}],"stateMutability":"nonpayable","type":"constructor"},{"inputs":[{"internalType":"uint256","name":"batchId","type":"uint256"}],"name":"BatchAlreadyChallenged","type":"error"},{"inputs":[{"internalType":"uint256","name":"batchId","type":"uint256"}],"name":"BatchAlreadyFinalized","type":"error"},{"inputs":[{"internalType":"uint256","name":"batchId","type":"uint256"}],"name":"BatchDoesNotExist","type":"error"},{"inputs":[{"internalType":"uint256","name":"batchId","type":"uint256"}],"name":"BatchInvalidated","type":"error"},{"inputs":[{"internalType":"uint256","name":"batchId","type":"uint256"}],"name":"ChallengeWindowClosed","type":"error"},{"inputs":[{"internalType":"uint256","name":"batchId","type":"uint256"}],"name":"ChallengeWindowStillOpen","type":"error"},{"inputs":[],"name":"ClaimsMustDiffer","type":"error"},{"inputs":[{"internalType":"uint256","name":"batchId","type":"uint256"}],"name":"DisputeAlreadyResolved","type":"error"},{"inputs":[{"internalType":"uint256","name":"batchId","type":"uint256"}],"name":"DisputeNotActive","type":"error"},{"inputs":[{"internalType":"uint256","name":"batchId","type":"uint256"}],"name":"DisputeNotAtSingleStep","type":"error"},{"inputs":[],"name":"EmptyBatch","type":"error"},{"inputs":[{"internalType":"uint256","name":"expected","type":"uint256"},{"internalType":"uint256","name":"actual","type":"uint256"}],"name":"InvalidChallengerBond","type":"error"},{"inputs":[],"name":"InvalidDisputedIndex","type":"error"},{"inputs":[{"internalType":"uint256","name":"expected","type":"uint256"},{"internalType":"uint256","name":"actual","type":"uint256"}],"name":"InvalidSequencerBond","type":"error"},{"inputs":[{"internalType":"address","name":"account","type":"address"}],"name":"NoWithdrawableBalance","type":"error"},{"anonymous":false,"inputs":[{"indexed":true,"internalType":"uint256","name":"batchId","type":"uint256"},{"indexed":false,"internalType":"int256","name":"claimedFinalState","type":"int256"}],"name":"BatchFinalized","type":"event"},{"anonymous":false,"inputs":[{"indexed":true,"internalType":"uint256","name":"batchId","type":"uint256"},{"indexed":true,"internalType":"int256","name":"initialState","type":"int256"},{"indexed":false,"internalType":"int256","name":"claimedFinalState","type":"int256"},{"indexed":false,"internalType":"uint256","name":"txCount","type":"uint256"},{"indexed":false,"internalType":"uint256","name":"submittedAt","type":"uint256"}],"name":"BatchSubmitted","type":"event"},{"anonymous":false,"inputs":[{"indexed":true,"internalType":"uint256","name":"batchId","type":"uint256"},{"indexed":false,"internalType":"int256","name":"challengerFinalState","type":"int256"}],"name":"ChallengeInitiated","type":"event"},{"anonymous":false,"inputs":[{"indexed":true,"internalType":"uint256","name":"batchId","type":"uint256"},{"indexed":false,"internalType":"uint256","name":"start","type":"uint256"},{"indexed":false,"internalType":"uint256","name":"end","type":"uint256"},{"indexed":false,"internalType":"uint256","name":"mid","type":"uint256"},{"indexed":false,"internalType":"bool","name":"lowerHalfDisputed","type":"bool"}],"name":"DisputeBisected","type":"event"},{"anonymous":false,"inputs":[{"indexed":true,"internalType":"uint256","name":"batchId","type":"uint256"},{"indexed":false,"internalType":"bool","name":"challengerWon","type":"bool"},{"indexed":false,"internalType":"bool","name":"sequencerWon","type":"bool"},{"indexed":false,"internalType":"uint256","name":"disputedIndex","type":"uint256"}],"name":"DisputeResolved","type":"event"},{"inputs":[{"internalType":"uint256","name":"","type":"uint256"}],"name":"batches","outputs":[{"internalType":"address","name":"sequencer","type":"address"},{"internalType":"int256","name":"initialState","type":"int256"},{"internalType":"int256","name":"claimedFinalState","type":"int256"},{"internalType":"uint256","name":"submittedAt","type":"uint256"},{"internalType":"uint256","name":"txCount","type":"uint256"},{"internalType":"bool","name":"challenged","type":"bool"},{"internalType":"bool","name":"finalized","type":"bool"},{"internalType":"bool","name":"invalidated","type":"bool"},{"internalType":"bool","name":"bondSettled","type":"bool"}],"stateMutability":"view","type":"function"},{"inputs":[{"internalType":"uint256","name":"_batchId","type":"uint256"},{"internalType":"int256","name":"_sequencerStateAtMid","type":"int256"},{"internalType":"int256","name":"_challengerStateAtMid","type":"int256"}],"name":"bisectDispute","outputs":[],"stateMutability":"nonpayable","type":"function"},{"inputs":[],"name":"challengePeriod","outputs":[{"internalType":"uint256","name":"","type":"uint256"}],"stateMutability":"view","type":"function"},{"inputs":[],"name":"challengerBond","outputs":[{"internalType":"uint256","name":"","type":"uint256"}],"stateMutability":"view","type":"function"},{"inputs":[{"internalType":"address","name":"","type":"address"}],"name":"claimableBalances","outputs":[{"internalType":"uint256","name":"","type":"uint256"}],"stateMutability":"view","type":"function"},{"inputs":[{"internalType":"uint256","name":"","type":"uint256"}],"name":"disputes","outputs":[{"internalType":"address","name":"challenger","type":"address"},{"internalType":"bool","name":"active","type":"bool"},{"internalType":"bool","name":"resolved","type":"bool"},{"internalType":"uint256","name":"start","type":"uint256"},{"internalType":"uint256","name":"end","type":"uint256"},{"internalType":"int256","name":"sequencerFinalState","type":"int256"},{"internalType":"int256","name":"challengerFinalState","type":"int256"},{"internalType":"bool","name":"sequencerWon","type":"bool"},{"internalType":"bool","name":"challengerWon","type":"bool"}],"stateMutability":"view","type":"function"},{"inputs":[{"internalType":"uint256","name":"_batchId","type":"uint256"}],"name":"finalizeBatch","outputs":[],"stateMutability":"nonpayable","type":"function"},{"inputs":[{"internalType":"uint256","name":"_batchId","type":"uint256"}],"name":"getBatchDeltas","outputs":[{"internalType":"int256[]","name":"","type":"int256[]"}],"stateMutability":"view","type":"function"},{"inputs":[{"internalType":"uint256","name":"_batchId","type":"uint256"},{"internalType":"uint256","name":"_index","type":"uint256"}],"name":"getDeltaAt","outputs":[{"internalType":"int256","name":"","type":"int256"}],"stateMutability":"view","type":"function"},{"inputs":[{"internalType":"uint256","name":"_batchId","type":"uint256"},{"internalType":"int256","name":"_challengerFinalState","type":"int256"}],"name":"initiateChallenge","outputs":[],"stateMutability":"payable","type":"function"},{"inputs":[],"name":"latestBatchId","outputs":[{"internalType":"uint256","name":"","type":"uint256"}],"stateMutability":"view","type":"function"},{"inputs":[{"internalType":"uint256","name":"_batchId","type":"uint256"},{"internalType":"int256","name":"_sequencerClaimedPostState","type":"int256"},{"internalType":"int256","name":"_challengerClaimedPostState","type":"int256"}],"name":"resolveSingleStep","outputs":[],"stateMutability":"nonpayable","type":"function"},{"inputs":[],"name":"sequencerBond","outputs":[{"internalType":"uint256","name":"","type":"uint256"}],"stateMutability":"view","type":"function"},{"inputs":[{"internalType":"int256","name":"_initialState","type":"int256"},{"internalType":"int256","name":"_claimedFinalState","type":"int256"},{"internalType":"int256[]","name":"_deltas","type":"int256[]"}],"name":"submitBatch","outputs":[{"internalType":"uint256","name":"batchId","type":"uint256"}],"stateMutability":"payable","type":"function"},{"inputs":[],"name":"withdrawClaimable","outputs":[],"stateMutability":"nonpayable","type":"function"}],"evm":{"bytecode":{"linkReferences":{},"object":"60e060405234801562000010575f80fd5b50604051620021e9380380620021e9833981810160405281019062000036919062000093565b82608081815250508160a081815250508060c08181525050505050620000ec565b5f80fd5b5f819050919050565b6200006f816200005b565b81146200007a575f80fd5b50565b5f815190506200008d8162000064565b92915050565b5f805f60608486031215620000ad57620000ac62000057565b5b5f620000bc868287016200007d565b9350506020620000cf868287016200007d565b9250506040620000e2868287016200007d565b9150509250925092565b60805160a05160c051612085620001645f395f81816106c2015281816109670152818161098e0152818161145301526115a401525f81816107230152818161074a01528181610cb1015281816110c60152818161147401526115c501525f8181610ae80152818161101f01526116eb01526120855ff3fe6080604052600436106100e7575f3560e01c80636916489011610089578063c67f7a0811610058578063c67f7a0814610307578063e33491a71461032f578063e4d8499414610357578063f3f480d91461037f576100e7565b8063691648901461024d5780636e34ca281461027d578063a8608d1814610299578063b32c4d8d146102c3576100e7565b8063564a565d116100c5578063564a565d1461016757806358ca1fd7146101ab57806368c8278f146101e757806368ccdc8614610223576100e7565b8063368cf072146100eb5780634d4e7019146101275780634fa982d414610151575b5f80fd5b3480156100f6575f80fd5b50610111600480360381019061010c919061181d565b6103a9565b60405161011e9190611908565b60405180910390f35b348015610132575f80fd5b5061013b61041a565b6040516101489190611937565b60405180910390f35b34801561015c575f80fd5b5061016561041f565b005b348015610172575f80fd5b5061018d6004803603810190610188919061181d565b610592565b6040516101a2999897969594939291906119b8565b60405180910390f35b3480156101b6575f80fd5b506101d160048036038101906101cc9190611a43565b61062c565b6040516101de9190611a81565b60405180910390f35b3480156101f2575f80fd5b5061020d60048036038101906102089190611ac4565b6106ab565b60405161021a9190611937565b60405180910390f35b34801561022e575f80fd5b506102376106c0565b6040516102449190611937565b60405180910390f35b61026760048036038101906102629190611b7a565b6106e4565b6040516102749190611937565b60405180910390f35b61029760048036038101906102929190611beb565b610959565b005b3480156102a4575f80fd5b506102ad610caf565b6040516102ba9190611937565b60405180910390f35b3480156102ce575f80fd5b506102e960048036038101906102e4919061181d565b610cd3565b6040516102fe99989796959493929190611c29565b60405180910390f35b348015610312575f80fd5b5061032d60048036038101906103289190611cb4565b610d6f565b005b34801561033a575f80fd5b506103556004803603810190610350919061181d565b610f16565b005b348015610362575f80fd5b5061037d60048036038101906103789190611cb4565b6111b7565b005b34801561038a575f80fd5b506103936116e9565b6040516103a09190611937565b60405180910390f35b60606103b48261170d565b5060025f8381526020019081526020015f2080548060200260200160405190810160405280929190818152602001828054801561040e57602002820191905f5260205f20905b8154815260200190600101908083116103fa575b50505050509050919050565b5f5481565b5f60045f3373ffffffffffffffffffffffffffffffffffffffff1673ffffffffffffffffffffffffffffffffffffffff1681526020019081526020015f205490505f81036104a457336040517f6b7b092e00000000000000000000000000000000000000000000000000000000815260040161049b9190611d04565b60405180910390fd5b5f60045f3373ffffffffffffffffffffffffffffffffffffffff1673ffffffffffffffffffffffffffffffffffffffff1681526020019081526020015f20819055505f3373ffffffffffffffffffffffffffffffffffffffff168260405161050b90611d4a565b5f6040518083038185875af1925050503d805f8114610545576040519150601f19603f3d011682016040523d82523d5f602084013e61054a565b606091505b505090508061058e576040517f08c379a000000000000000000000000000000000000000000000000000000000815260040161058590611db8565b60405180910390fd5b5050565b6003602052805f5260405f205f91509050805f015f9054906101000a900473ffffffffffffffffffffffffffffffffffffffff1690805f0160149054906101000a900460ff1690805f0160159054906101000a900460ff1690806001015490806002015490806003015490806004015490806005015f9054906101000a900460ff16908060050160019054906101000a900460ff16905089565b5f806106378461170d565b905080600401548310610676576040517f44d35ab500000000000000000000000000000000000000000000000000000000815260040160405180910390fd5b60025f8581526020019081526020015f20838154811061069957610698611dd6565b5b905f5260205f20015491505092915050565b6004602052805f5260405f205f915090505481565b7f000000000000000000000000000000000000000000000000000000000000000081565b5f808383905003610721576040517fc2e5347d00000000000000000000000000000000000000000000000000000000815260040160405180910390fd5b7f000000000000000000000000000000000000000000000000000000000000000034146107a7577f0000000000000000000000000000000000000000000000000000000000000000346040517f13e1543a00000000000000000000000000000000000000000000000000000000815260040161079e929190611e03565b60405180910390fd5b5f8081546107b490611e57565b91905081905590505f60015f8381526020019081526020015f20905033815f015f6101000a81548173ffffffffffffffffffffffffffffffffffffffff021916908373ffffffffffffffffffffffffffffffffffffffff1602179055508581600101819055508481600201819055504281600301819055508383905081600401819055505f816005015f6101000a81548160ff0219169083151502179055505f8160050160016101000a81548160ff0219169083151502179055505f8160050160026101000a81548160ff0219169083151502179055505f8160050160036101000a81548160ff0219169083151502179055505f5b8484905081101561090f5760025f8481526020019081526020015f208585838181106108d8576108d7611dd6565b5b90506020020135908060018154018082558091505060019003905f5260205f20015f909190919091505580806001019150506108a9565b5085827fbb31917f1fde51ff173767c9e35d5dd8829e15fd96d1a5dcb9c281327c0295d087878790504260405161094893929190611e9e565b60405180910390a350949350505050565b5f6109638361170d565b90507f000000000000000000000000000000000000000000000000000000000000000034146109eb577f0000000000000000000000000000000000000000000000000000000000000000346040517fe04483ef0000000000000000000000000000000000000000000000000000000081526004016109e2929190611e03565b60405180910390fd5b8060050160019054906101000a900460ff1615610a3f57826040517fa99bd781000000000000000000000000000000000000000000000000000000008152600401610a369190611937565b60405180910390fd5b8060050160029054906101000a900460ff1615610a9357826040517fab8ba194000000000000000000000000000000000000000000000000000000008152600401610a8a9190611937565b60405180910390fd5b806005015f9054906101000a900460ff1615610ae657826040517f347d276f000000000000000000000000000000000000000000000000000000008152600401610add9190611937565b60405180910390fd5b7f00000000000000000000000000000000000000000000000000000000000000008160030154610b169190611ed3565b421115610b5a57826040517f4046dd81000000000000000000000000000000000000000000000000000000008152600401610b519190611937565b60405180910390fd5b6001816005015f6101000a81548160ff0219169083151502179055505f60035f8581526020019081526020015f20905033815f015f6101000a81548173ffffffffffffffffffffffffffffffffffffffff021916908373ffffffffffffffffffffffffffffffffffffffff1602179055506001815f0160146101000a81548160ff0219169083151502179055505f815f0160156101000a81548160ff0219169083151502179055505f816001018190555060018260040154610c1c9190611f06565b8160020181905550816002015481600301819055508281600401819055505f816005015f6101000a81548160ff0219169083151502179055505f8160050160016101000a81548160ff021916908315150217905550837f466c366b6d796e4b34154585f7a7a505732d2e4a9082fc01f1766fe0c13b27cb84604051610ca19190611a81565b60405180910390a250505050565b7f000000000000000000000000000000000000000000000000000000000000000081565b6001602052805f5260405f205f91509050805f015f9054906101000a900473ffffffffffffffffffffffffffffffffffffffff1690806001015490806002015490806003015490806004015490806005015f9054906101000a900460ff16908060050160019054906101000a900460ff16908060050160029054906101000a900460ff16908060050160039054906101000a900460ff16905089565b5f60035f8581526020019081526020015f209050805f0160149054906101000a900460ff16610dd557836040517fe372c1f0000000000000000000000000000000000000000000000000000000008152600401610dcc9190611937565b60405180910390fd5b805f0160159054906101000a900460ff1615610e2857836040517f9e65d5e8000000000000000000000000000000000000000000000000000000008152600401610e1f9190611937565b60405180910390fd5b8060020154816001015403610e7457836040517fb111df84000000000000000000000000000000000000000000000000000000008152600401610e6b9190611937565b60405180910390fd5b5f600282600201548360010154610e8b9190611ed3565b610e959190611f66565b90505f8385141590508015610eb257818360020181905550610ec8565b600182610ebf9190611ed3565b83600101819055505b857fda64b7ece081b948fb01c4077b52fd0f994bcc4c7fea7aac79bde4ecd43ddc5a846001015485600201548585604051610f069493929190611f96565b60405180910390a2505050505050565b5f610f208261170d565b90508060050160019054906101000a900460ff1615610f7657816040517fa99bd781000000000000000000000000000000000000000000000000000000008152600401610f6d9190611937565b60405180910390fd5b8060050160029054906101000a900460ff1615610fca57816040517fab8ba194000000000000000000000000000000000000000000000000000000008152600401610fc19190611937565b60405180910390fd5b806005015f9054906101000a900460ff161561101d57816040517f347d276f0000000000000000000000000000000000000000000000000000000081526004016110149190611937565b60405180910390fd5b7f0000000000000000000000000000000000000000000000000000000000000000816003015461104d9190611ed3565b42101561109157816040517f3de6c5d60000000000000000000000000000000000000000000000000000000081526004016110889190611937565b60405180910390fd5b60018160050160016101000a81548160ff0219169083151502179055508060050160039054906101000a900460ff16611177577f000000000000000000000000000000000000000000000000000000000000000060045f835f015f9054906101000a900473ffffffffffffffffffffffffffffffffffffffff1673ffffffffffffffffffffffffffffffffffffffff1673ffffffffffffffffffffffffffffffffffffffff1681526020019081526020015f205f8282546111529190611ed3565b9250508190555060018160050160036101000a81548160ff0219169083151502179055505b817f167adaeacf3d77bcc472487d71e5b09333c671d39cd85d3c2a5f61e0b71ba0ff82600201546040516111ab9190611a81565b60405180910390a25050565b5f60035f8581526020019081526020015f2090505f6111d58561170d565b9050815f0160149054906101000a900460ff1661122957846040517fe372c1f00000000000000000000000000000000000000000000000000000000081526004016112209190611937565b60405180910390fd5b815f0160159054906101000a900460ff161561127c57846040517f9e65d5e80000000000000000000000000000000000000000000000000000000081526004016112739190611937565b60405180910390fd5b81600201548260010154146112c857846040517fb111df840000000000000000000000000000000000000000000000000000000081526004016112bf9190611937565b60405180910390fd5b828403611301576040517f6d77d50600000000000000000000000000000000000000000000000000000000815260040160405180910390fd5b5f8260010154905081600401548110611346576040517f44d35ab500000000000000000000000000000000000000000000000000000000815260040160405180910390fd5b5f611351878361176e565b90505f60025f8981526020019081526020015f20838154811061137757611376611dd6565b5b905f5260205f2001548261138b9190611fd9565b90505f81881490505f82881490505f875f0160146101000a81548160ff0219169083151502179055506001875f0160156101000a81548160ff0219169083151502179055508080156113db575081155b156115335760018760050160016101000a81548160ff0219169083151502179055505f876005015f6101000a81548160ff02191690831515021790555060018660050160026101000a81548160ff0219169083151502179055506001866005015f6101000a81548160ff0219169083151502179055507f00000000000000000000000000000000000000000000000000000000000000007f000000000000000000000000000000000000000000000000000000000000000061149d9190611ed3565b60045f895f015f9054906101000a900473ffffffffffffffffffffffffffffffffffffffff1673ffffffffffffffffffffffffffffffffffffffff1673ffffffffffffffffffffffffffffffffffffffff1681526020019081526020015f205f82825461150a9190611ed3565b9250508190555060018660050160036101000a81548160ff021916908315150217905550611680565b5f8760050160016101000a81548160ff0219169083151502179055506001876005015f6101000a81548160ff0219169083151502179055505f8660050160026101000a81548160ff0219169083151502179055505f866005015f6101000a81548160ff0219169083151502179055507f00000000000000000000000000000000000000000000000000000000000000007f00000000000000000000000000000000000000000000000000000000000000006115ee9190611ed3565b60045f885f015f9054906101000a900473ffffffffffffffffffffffffffffffffffffffff1673ffffffffffffffffffffffffffffffffffffffff1673ffffffffffffffffffffffffffffffffffffffff1681526020019081526020015f205f82825461165b9190611ed3565b9250508190555060018660050160036101000a81548160ff0219169083151502179055505b897f6bbc4f84909b75a535268d1e20ae8277d0ff2bb584a3c06e31532aaf26abff7a8860050160019054906101000a900460ff16896005015f9054906101000a900460ff16886040516116d59392919061201a565b60405180910390a250505050505050505050565b7f000000000000000000000000000000000000000000000000000000000000000081565b5f60015f8381526020019081526020015f2090505f81600301540361176957816040517ff14984a40000000000000000000000000000000000000000000000000000000081526004016117609190611937565b60405180910390fd5b919050565b5f8060015f8581526020019081526020015f209050806001015491505f5b838110156117da5760025f8681526020019081526020015f2081815481106117b7576117b6611dd6565b5b905f5260205f200154836117cb9190611fd9565b9250808060010191505061178c565b505092915050565b5f80fd5b5f80fd5b5f819050919050565b6117fc816117ea565b8114611806575f80fd5b50565b5f81359050611817816117f3565b92915050565b5f60208284031215611832576118316117e2565b5b5f61183f84828501611809565b91505092915050565b5f81519050919050565b5f82825260208201905092915050565b5f819050602082019050919050565b5f819050919050565b61188381611871565b82525050565b5f611894838361187a565b60208301905092915050565b5f602082019050919050565b5f6118b682611848565b6118c08185611852565b93506118cb83611862565b805f5b838110156118fb5781516118e28882611889565b97506118ed836118a0565b9250506001810190506118ce565b5085935050505092915050565b5f6020820190508181035f83015261192081846118ac565b905092915050565b611931816117ea565b82525050565b5f60208201905061194a5f830184611928565b92915050565b5f73ffffffffffffffffffffffffffffffffffffffff82169050919050565b5f61197982611950565b9050919050565b6119898161196f565b82525050565b5f8115159050919050565b6119a38161198f565b82525050565b6119b281611871565b82525050565b5f610120820190506119cc5f83018c611980565b6119d9602083018b61199a565b6119e6604083018a61199a565b6119f36060830189611928565b611a006080830188611928565b611a0d60a08301876119a9565b611a1a60c08301866119a9565b611a2760e083018561199a565b611a3561010083018461199a565b9a9950505050505050505050565b5f8060408385031215611a5957611a586117e2565b5b5f611a6685828601611809565b9250506020611a7785828601611809565b9150509250929050565b5f602082019050611a945f8301846119a9565b92915050565b611aa38161196f565b8114611aad575f80fd5b50565b5f81359050611abe81611a9a565b92915050565b5f60208284031215611ad957611ad86117e2565b5b5f611ae684828501611ab0565b91505092915050565b611af881611871565b8114611b02575f80fd5b50565b5f81359050611b1381611aef565b92915050565b5f80fd5b5f80fd5b5f80fd5b5f8083601f840112611b3a57611b39611b19565b5b8235905067ffffffffffffffff811115611b5757611b56611b1d565b5b602083019150836020820283011115611b7357611b72611b21565b5b9250929050565b5f805f8060608587031215611b9257611b916117e2565b5b5f611b9f87828801611b05565b9450506020611bb087828801611b05565b935050604085013567ffffffffffffffff811115611bd157611bd06117e6565b5b611bdd87828801611b25565b925092505092959194509250565b5f8060408385031215611c0157611c006117e2565b5b5f611c0e85828601611809565b9250506020611c1f85828601611b05565b9150509250929050565b5f61012082019050611c3d5f83018c611980565b611c4a602083018b6119a9565b611c57604083018a6119a9565b611c646060830189611928565b611c716080830188611928565b611c7e60a083018761199a565b611c8b60c083018661199a565b611c9860e083018561199a565b611ca661010083018461199a565b9a9950505050505050505050565b5f805f60608486031215611ccb57611cca6117e2565b5b5f611cd886828701611809565b9350506020611ce986828701611b05565b9250506040611cfa86828701611b05565b9150509250925092565b5f602082019050611d175f830184611980565b92915050565b5f81905092915050565b50565b5f611d355f83611d1d565b9150611d4082611d27565b5f82019050919050565b5f611d5482611d2a565b9150819050919050565b5f82825260208201905092915050565b7f7769746864726177207472616e73666572206661696c656400000000000000005f82015250565b5f611da2601883611d5e565b9150611dad82611d6e565b602082019050919050565b5f6020820190508181035f830152611dcf81611d96565b9050919050565b7f4e487b71000000000000000000000000000000000000000000000000000000005f52603260045260245ffd5b5f604082019050611e165f830185611928565b611e236020830184611928565b9392505050565b7f4e487b71000000000000000000000000000000000000000000000000000000005f52601160045260245ffd5b5f611e61826117ea565b91507fffffffffffffffffffffffffffffffffffffffffffffffffffffffffffffffff8203611e9357611e92611e2a565b5b600182019050919050565b5f606082019050611eb15f8301866119a9565b611ebe6020830185611928565b611ecb6040830184611928565b949350505050565b5f611edd826117ea565b9150611ee8836117ea565b9250828201905080821115611f0057611eff611e2a565b5b92915050565b5f611f10826117ea565b9150611f1b836117ea565b9250828203905081811115611f3357611f32611e2a565b5b92915050565b7f4e487b71000000000000000000000000000000000000000000000000000000005f52601260045260245ffd5b5f611f70826117ea565b9150611f7b836117ea565b925082611f8b57611f8a611f39565b5b828204905092915050565b5f608082019050611fa95f830187611928565b611fb66020830186611928565b611fc36040830185611928565b611fd0606083018461199a565b95945050505050565b5f611fe382611871565b9150611fee83611871565b92508282019050828112155f8312168382125f84121516171561201457612013611e2a565b5b92915050565b5f60608201905061202d5f83018661199a565b61203a602083018561199a565b6120476040830184611928565b94935050505056fea2646970667358221220a563a4b03b2e9a6d346e830d3cdc5605c60a6249489155305d5937f25687eb7a64736f6c63430008180033","opcodes":"PUSH1 0xE0 PUSH1 0x40 MSTORE CALLVALUE DUP1 ISZERO PUSH3 0x10 JUMPI PUSH0 DUP1 REVERT JUMPDEST POP PUSH1 0x40 MLOAD PUSH3 0x21E9 CODESIZE SUB DUP1 PUSH3 0x21E9 DUP4 CODECOPY DUP2 DUP2 ADD PUSH1 0x40 MSTORE DUP2 ADD SWAP1 PUSH3 0x36 SWAP2 SWAP1 PUSH3 0x93 JUMP JUMPDEST DUP3 PUSH1 0x80 DUP2 DUP2 MSTORE POP POP DUP2 PUSH1 0xA0 DUP2 DUP2 MSTORE POP POP DUP1 PUSH1 0xC0 DUP2 DUP2 MSTORE POP POP POP POP POP PUSH3 0xEC JUMP JUMPDEST PUSH0 DUP1 REVERT JUMPDEST PUSH0 DUP2 SWAP1 POP SWAP2 SWAP1 POP JUMP JUMPDEST PUSH3 0x6F DUP2 PUSH3 0x5B JUMP JUMPDEST DUP2 EQ PUSH3 0x7A JUMPI PUSH0 DUP1 REVERT JUMPDEST POP JUMP JUMPDEST PUSH0 DUP2 MLOAD SWAP1 POP PUSH3 0x8D DUP2 PUSH3 0x64 JUMP JUMPDEST SWAP3 SWAP2 POP POP JUMP JUMPDEST PUSH0 DUP1 PUSH0 PUSH1 0x60 DUP5 DUP7 SUB SLT ISZERO PUSH3 0xAD JUMPI PUSH3 0xAC PUSH3 0x57 JUMP JUMPDEST JUMPDEST PUSH0 PUSH3 0xBC DUP7 DUP3 DUP8 ADD PUSH3 0x7D JUMP JUMPDEST SWAP4 POP POP PUSH1 0x20 PUSH3 0xCF DUP7 DUP3 DUP8 ADD PUSH3 0x7D JUMP JUMPDEST SWAP3 POP POP PUSH1 0x40 PUSH3 0xE2 DUP7 DUP3 DUP8 ADD PUSH3 0x7D JUMP JUMPDEST SWAP2 POP POP SWAP3 POP SWAP3 POP SWAP3 JUMP JUMPDEST PUSH1 0x80 MLOAD PUSH1 0xA0 MLOAD PUSH1 0xC0 MLOAD PUSH2 0x2085 PUSH3 0x164 PUSH0 CODECOPY PUSH0 DUP2 DUP2 PUSH2 0x6C2 ADD MSTORE DUP2 DUP2 PUSH2 0x967 ADD MSTORE DUP2 DUP2 PUSH2 0x98E ADD MSTORE DUP2 DUP2 PUSH2 0x1453 ADD MSTORE PUSH2 0x15A4 ADD MSTORE PUSH0 DUP2 DUP2 PUSH2 0x723 ADD MSTORE DUP2 DUP2 PUSH2 0x74A ADD MSTORE DUP2 DUP2 PUSH2 0xCB1 ADD MSTORE DUP2 DUP2 PUSH2 0x10C6 ADD MSTORE DUP2 DUP2 PUSH2 0x1474 ADD MSTORE PUSH2 0x15C5 ADD MSTORE PUSH0 DUP2 DUP2 PUSH2 0xAE8 ADD MSTORE DUP2 DUP2 PUSH2 0x101F ADD MSTORE PUSH2 0x16EB ADD MSTORE PUSH2 0x2085 PUSH0 RETURN INVALID PUSH1 0x80 PUSH1 0x40 MSTORE PUSH1 0x4 CALLDATASIZE LT PUSH2 0xE7 JUMPI PUSH0 CALLDATALOAD PUSH1 0xE0 SHR DUP1 PUSH4 0x69164890 GT PUSH2 0x89 JUMPI DUP1 PUSH4 0xC67F7A08 GT PUSH2 0x58 JUMPI DUP1 PUSH4 0xC67F7A08 EQ PUSH2 0x307 JUMPI DUP1 PUSH4 0xE33491A7 EQ PUSH2 0x32F JUMPI DUP1 PUSH4 0xE4D84994 EQ PUSH2 0x357 JUMPI DUP1 PUSH4 0xF3F480D9 EQ PUSH2 0x37F JUMPI PUSH2 0xE7 JUMP JUMPDEST DUP1 PUSH4 0x69164890 EQ PUSH2 0x24D JUMPI DUP1 PUSH4 0x6E34CA28 EQ PUSH2 0x27D JUMPI DUP1 PUSH4 0xA8608D18 EQ PUSH2 0x299 JUMPI DUP1 PUSH4 0xB32C4D8D EQ PUSH2 0x2C3 JUMPI PUSH2 0xE7 JUMP JUMPDEST DUP1 PUSH4 0x564A565D GT PUSH2 0xC5 JUMPI DUP1 PUSH4 0x564A565D EQ PUSH2 0x167 JUMPI DUP1 PUSH4 0x58CA1FD7 EQ PUSH2 0x1AB JUMPI DUP1 PUSH4 0x68C8278F EQ PUSH2 0x1E7 JUMPI DUP1 PUSH4 0x68CCDC86 EQ PUSH2 0x223 JUMPI PUSH2 0xE7 JUMP JUMPDEST DUP1 PUSH4 0x368CF072 EQ PUSH2 0xEB JUMPI DUP1 PUSH4 0x4D4E7019 EQ PUSH2 0x127 JUMPI DUP1 PUSH4 0x4FA982D4 EQ PUSH2 0x151 JUMPI JUMPDEST PUSH0 DUP1 REVERT JUMPDEST CALLVALUE DUP1 ISZERO PUSH2 0xF6 JUMPI PUSH0 DUP1 REVERT JUMPDEST POP PUSH2 0x111 PUSH1 0x4 DUP1 CALLDATASIZE SUB DUP2 ADD SWAP1 PUSH2 0x10C SWAP2 SWAP1 PUSH2 0x181D JUMP JUMPDEST PUSH2 0x3A9 JUMP JUMPDEST PUSH1 0x40 MLOAD PUSH2 0x11E SWAP2 SWAP1 PUSH2 0x1908 JUMP JUMPDEST PUSH1 0x40 MLOAD DUP1 SWAP2 SUB SWAP1 RETURN JUMPDEST CALLVALUE DUP1 ISZERO PUSH2 0x132 JUMPI PUSH0 DUP1 REVERT JUMPDEST POP PUSH2 0x13B PUSH2 0x41A JUMP JUMPDEST PUSH1 0x40 MLOAD PUSH2 0x148 SWAP2 SWAP1 PUSH2 0x1937 JUMP JUMPDEST PUSH1 0x40 MLOAD DUP1 SWAP2 SUB SWAP1 RETURN JUMPDEST CALLVALUE DUP1 ISZERO PUSH2 0x15C JUMPI PUSH0 DUP1 REVERT JUMPDEST POP PUSH2 0x165 PUSH2 0x41F JUMP JUMPDEST STOP JUMPDEST CALLVALUE DUP1 ISZERO PUSH2 0x172 JUMPI PUSH0 DUP1 REVERT JUMPDEST POP PUSH2 0x18D PUSH1 0x4 DUP1 CALLDATASIZE SUB DUP2 ADD SWAP1 PUSH2 0x188 SWAP2 SWAP1 PUSH2 0x181D JUMP JUMPDEST PUSH2 0x592 JUMP JUMPDEST PUSH1 0x40 MLOAD PUSH2 0x1A2 SWAP10 SWAP9 SWAP8 SWAP7 SWAP6 SWAP5 SWAP4 SWAP3 SWAP2 SWAP1 PUSH2 0x19B8 JUMP JUMPDEST PUSH1 0x40 MLOAD DUP1 SWAP2 SUB SWAP1 RETURN JUMPDEST CALLVALUE DUP1 ISZERO PUSH2 0x1B6 JUMPI PUSH0 DUP1 REVERT JUMPDEST POP PUSH2 0x1D1 PUSH1 0x4 DUP1 CALLDATASIZE SUB DUP2 ADD SWAP1 PUSH2 0x1CC SWAP2 SWAP1 PUSH2 0x1A43 JUMP JUMPDEST PUSH2 0x62C JUMP JUMPDEST PUSH1 0x40 MLOAD PUSH2 0x1DE SWAP2 SWAP1 PUSH2 0x1A81 JUMP JUMPDEST PUSH1 0x40 MLOAD DUP1 SWAP2 SUB SWAP1 RETURN JUMPDEST CALLVALUE DUP1 ISZERO PUSH2 0x1F2 JUMPI PUSH0 DUP1 REVERT JUMPDEST POP PUSH2 0x20D PUSH1 0x4 DUP1 CALLDATASIZE SUB DUP2 ADD SWAP1 PUSH2 0x208 SWAP2 SWAP1 PUSH2 0x1AC4 JUMP JUMPDEST PUSH2 0x6AB JUMP JUMPDEST PUSH1 0x40 MLOAD PUSH2 0x21A SWAP2 SWAP1 PUSH2 0x1937 JUMP JUMPDEST PUSH1 0x40 MLOAD DUP1 SWAP2 SUB SWAP1 RETURN JUMPDEST CALLVALUE DUP1 ISZERO PUSH2 0x22E JUMPI PUSH0 DUP1 REVERT JUMPDEST POP PUSH2 0x237 PUSH2 0x6C0 JUMP JUMPDEST PUSH1 0x40 MLOAD PUSH2 0x244 SWAP2 SWAP1 PUSH2 0x1937 JUMP JUMPDEST PUSH1 0x40 MLOAD DUP1 SWAP2 SUB SWAP1 RETURN JUMPDEST PUSH2 0x267 PUSH1 0x4 DUP1 CALLDATASIZE SUB DUP2 ADD SWAP1 PUSH2 0x262 SWAP2 SWAP1 PUSH2 0x1B7A JUMP JUMPDEST PUSH2 0x6E4 JUMP JUMPDEST PUSH1 0x40 MLOAD PUSH2 0x274 SWAP2 SWAP1 PUSH2 0x1937 JUMP JUMPDEST PUSH1 0x40 MLOAD DUP1 SWAP2 SUB SWAP1 RETURN JUMPDEST PUSH2 0x297 PUSH1 0x4 DUP1 CALLDATASIZE SUB DUP2 ADD SWAP1 PUSH2 0x292 SWAP2 SWAP1 PUSH2 0x1BEB JUMP JUMPDEST PUSH2 0x959 JUMP JUMPDEST STOP JUMPDEST CALLVALUE DUP1 ISZERO PUSH2 0x2A4 JUMPI PUSH0 DUP1 REVERT JUMPDEST POP PUSH2 0x2AD PUSH2 0xCAF JUMP JUMPDEST PUSH1 0x40 MLOAD PUSH2 0x2BA SWAP2 SWAP1 PUSH2 0x1937 JUMP JUMPDEST PUSH1 0x40 MLOAD DUP1 SWAP2 SUB SWAP1 RETURN JUMPDEST CALLVALUE DUP1 ISZERO PUSH2 0x2CE JUMPI PUSH0 DUP1 REVERT JUMPDEST POP PUSH2 0x2E9 PUSH1 0x4 DUP1 CALLDATASIZE SUB DUP2 ADD SWAP1 PUSH2 0x2E4 SWAP2 SWAP1 PUSH2 0x181D JUMP JUMPDEST PUSH2 0xCD3 JUMP JUMPDEST PUSH1 0x40 MLOAD PUSH2 0x2FE SWAP10 SWAP9 SWAP8 SWAP7 SWAP6 SWAP5 SWAP4 SWAP3 SWAP2 SWAP1 PUSH2 0x1C29 JUMP JUMPDEST PUSH1 0x40 MLOAD DUP1 SWAP2 SUB SWAP1 RETURN JUMPDEST CALLVALUE DUP1 ISZERO PUSH2 0x312 JUMPI PUSH0 DUP1 REVERT JUMPDEST POP PUSH2 0x32D PUSH1 0x4 DUP1 CALLDATASIZE SUB DUP2 ADD SWAP1 PUSH2 0x328 SWAP2 SWAP1 PUSH2 0x1CB4 JUMP JUMPDEST PUSH2 0xD6F JUMP JUMPDEST STOP JUMPDEST CALLVALUE DUP1 ISZERO PUSH2 0x33A JUMPI PUSH0 DUP1 REVERT JUMPDEST POP PUSH2 0x355 PUSH1 0x4 DUP1 CALLDATASIZE SUB DUP2 ADD SWAP1 PUSH2 0x350 SWAP2 SWAP1 PUSH2 0x181D JUMP JUMPDEST PUSH2 0xF16 JUMP JUMPDEST STOP JUMPDEST CALLVALUE DUP1 ISZERO PUSH2 0x362 JUMPI PUSH0 DUP1 REVERT JUMPDEST POP PUSH2 0x37D PUSH1 0x4 DUP1 CALLDATASIZE SUB DUP2 ADD SWAP1 PUSH2 0x378 SWAP2 SWAP1 PUSH2 0x1CB4 JUMP JUMPDEST PUSH2 0x11B7 JUMP JUMPDEST STOP JUMPDEST CALLVALUE DUP1 ISZERO PUSH2 0x38A JUMPI PUSH0 DUP1 REVERT JUMPDEST POP PUSH2 0x393 PUSH2 0x16E9 JUMP JUMPDEST PUSH1 0x40 MLOAD PUSH2 0x3A0 SWAP2 SWAP1 PUSH2 0x1937 JUMP JUMPDEST PUSH1 0x40 MLOAD DUP1 SWAP2 SUB SWAP1 RETURN JUMPDEST PUSH1 0x60 PUSH2 0x3B4 DUP3 PUSH2 0x170D JUMP JUMPDEST POP PUSH1 0x2 PUSH0 DUP4 DUP2 MSTORE PUSH1 0x20 ADD SWAP1 DUP2 MSTORE PUSH1 0x20 ADD PUSH0 KECCAK256 DUP1 SLOAD DUP1 PUSH1 0x20 MUL PUSH1 0x20 ADD PUSH1 0x40 MLOAD SWAP1 DUP2 ADD PUSH1 0x40 MSTORE DUP1 SWAP3 SWAP2 SWAP1 DUP2 DUP2 MSTORE PUSH1 0x20 ADD DUP3 DUP1 SLOAD DUP1 ISZERO PUSH2 0x40E JUMPI PUSH1 0x20 MUL DUP3 ADD SWAP2 SWAP1 PUSH0 MSTORE PUSH1 0x20 PUSH0 KECCAK256 SWAP1 JUMPDEST DUP2 SLOAD DUP2 MSTORE PUSH1 0x20 ADD SWAP1 PUSH1 0x1 ADD SWAP1 DUP1 DUP4 GT PUSH2 0x3FA JUMPI JUMPDEST POP POP POP POP POP SWAP1 POP SWAP2 SWAP1 POP JUMP JUMPDEST PUSH0 SLOAD DUP2 JUMP JUMPDEST PUSH0 PUSH1 0x4 PUSH0 CALLER PUSH20 0xFFFFFFFFFFFFFFFFFFFFFFFFFFFFFFFFFFFFFFFF AND PUSH20 0xFFFFFFFFFFFFFFFFFFFFFFFFFFFFFFFFFFFFFFFF AND DUP2 MSTORE PUSH1 0x20 ADD SWAP1 DUP2 MSTORE PUSH1 0x20 ADD PUSH0 KECCAK256 SLOAD SWAP1 POP PUSH0 DUP2 SUB PUSH2 0x4A4 JUMPI CALLER PUSH1 0x40 MLOAD PUSH32 0x6B7B092E00000000000000000000000000000000000000000000000000000000 DUP2 MSTORE PUSH1 0x4 ADD PUSH2 0x49B SWAP2 SWAP1 PUSH2 0x1D04 JUMP JUMPDEST PUSH1 0x40 MLOAD DUP1 SWAP2 SUB SWAP1 REVERT JUMPDEST PUSH0 PUSH1 0x4 PUSH0 CALLER PUSH20 0xFFFFFFFFFFFFFFFFFFFFFFFFFFFFFFFFFFFFFFFF AND PUSH20 0xFFFFFFFFFFFFFFFFFFFFFFFFFFFFFFFFFFFFFFFF AND DUP2 MSTORE PUSH1 0x20 ADD SWAP1 DUP2 MSTORE PUSH1 0x20 ADD PUSH0 KECCAK256 DUP2 SWAP1 SSTORE POP PUSH0 CALLER PUSH20 0xFFFFFFFFFFFFFFFFFFFFFFFFFFFFFFFFFFFFFFFF AND DUP3 PUSH1 0x40 MLOAD PUSH2 0x50B SWAP1 PUSH2 0x1D4A JUMP JUMPDEST PUSH0 PUSH1 0x40 MLOAD DUP1 DUP4 SUB DUP2 DUP6 DUP8 GAS CALL SWAP3 POP POP POP RETURNDATASIZE DUP1 PUSH0 DUP2 EQ PUSH2 0x545 JUMPI PUSH1 0x40 MLOAD SWAP2 POP PUSH1 0x1F NOT PUSH1 0x3F RETURNDATASIZE ADD AND DUP3 ADD PUSH1 0x40 MSTORE RETURNDATASIZE DUP3 MSTORE RETURNDATASIZE PUSH0 PUSH1 0x20 DUP5 ADD RETURNDATACOPY PUSH2 0x54A JUMP JUMPDEST PUSH1 0x60 SWAP2 POP JUMPDEST POP POP SWAP1 POP DUP1 PUSH2 0x58E JUMPI PUSH1 0x40 MLOAD PUSH32 0x8C379A000000000000000000000000000000000000000000000000000000000 DUP2 MSTORE PUSH1 0x4 ADD PUSH2 0x585 SWAP1 PUSH2 0x1DB8 JUMP JUMPDEST PUSH1 0x40 MLOAD DUP1 SWAP2 SUB SWAP1 REVERT JUMPDEST POP POP JUMP JUMPDEST PUSH1 0x3 PUSH1 0x20 MSTORE DUP1 PUSH0 MSTORE PUSH1 0x40 PUSH0 KECCAK256 PUSH0 SWAP2 POP SWAP1 POP DUP1 PUSH0 ADD PUSH0 SWAP1 SLOAD SWAP1 PUSH2 0x100 EXP SWAP1 DIV PUSH20 0xFFFFFFFFFFFFFFFFFFFFFFFFFFFFFFFFFFFFFFFF AND SWAP1 DUP1 PUSH0 ADD PUSH1 0x14 SWAP1 SLOAD SWAP1 PUSH2 0x100 EXP SWAP1 DIV PUSH1 0xFF AND SWAP1 DUP1 PUSH0 ADD PUSH1 0x15 SWAP1 SLOAD SWAP1 PUSH2 0x100 EXP SWAP1 DIV PUSH1 0xFF AND SWAP1 DUP1 PUSH1 0x1 ADD SLOAD SWAP1 DUP1 PUSH1 0x2 ADD SLOAD SWAP1 DUP1 PUSH1 0x3 ADD SLOAD SWAP1 DUP1 PUSH1 0x4 ADD SLOAD SWAP1 DUP1 PUSH1 0x5 ADD PUSH0 SWAP1 SLOAD SWAP1 PUSH2 0x100 EXP SWAP1 DIV PUSH1 0xFF AND SWAP1 DUP1 PUSH1 0x5 ADD PUSH1 0x1 SWAP1 SLOAD SWAP1 PUSH2 0x100 EXP SWAP1 DIV PUSH1 0xFF AND SWAP1 POP DUP10 JUMP JUMPDEST PUSH0 DUP1 PUSH2 0x637 DUP5 PUSH2 0x170D JUMP JUMPDEST SWAP1 POP DUP1 PUSH1 0x4 ADD SLOAD DUP4 LT PUSH2 0x676 JUMPI PUSH1 0x40 MLOAD PUSH32 0x44D35AB500000000000000000000000000000000000000000000000000000000 DUP2 MSTORE PUSH1 0x4 ADD PUSH1 0x40 MLOAD DUP1 SWAP2 SUB SWAP1 REVERT JUMPDEST PUSH1 0x2 PUSH0 DUP6 DUP2 MSTORE PUSH1 0x20 ADD SWAP1 DUP2 MSTORE PUSH1 0x20 ADD PUSH0 KECCAK256 DUP4 DUP2 SLOAD DUP2 LT PUSH2 0x699 JUMPI PUSH2 0x698 PUSH2 0x1DD6 JUMP JUMPDEST JUMPDEST SWAP1 PUSH0 MSTORE PUSH1 0x20 PUSH0 KECCAK256 ADD SLOAD SWAP2 POP POP SWAP3 SWAP2 POP POP JUMP JUMPDEST PUSH1 0x4 PUSH1 0x20 MSTORE DUP1 PUSH0 MSTORE PUSH1 0x40 PUSH0 KECCAK256 PUSH0 SWAP2 POP SWAP1 POP SLOAD DUP2 JUMP JUMPDEST PUSH32 0x0 DUP2 JUMP JUMPDEST PUSH0 DUP1 DUP4 DUP4 SWAP1 POP SUB PUSH2 0x721 JUMPI PUSH1 0x40 MLOAD PUSH32 0xC2E5347D00000000000000000000000000000000000000000000000000000000 DUP2 MSTORE PUSH1 0x4 ADD PUSH1 0x40 MLOAD DUP1 SWAP2 SUB SWAP1 REVERT JUMPDEST PUSH32 0x0 CALLVALUE EQ PUSH2 0x7A7 JUMPI PUSH32 0x0 CALLVALUE PUSH1 0x40 MLOAD PUSH32 0x13E1543A00000000000000000000000000000000000000000000000000000000 DUP2 MSTORE PUSH1 0x4 ADD PUSH2 0x79E SWAP3 SWAP2 SWAP1 PUSH2 0x1E03 JUMP JUMPDEST PUSH1 0x40 MLOAD DUP1 SWAP2 SUB SWAP1 REVERT JUMPDEST PUSH0 DUP1 DUP2 SLOAD PUSH2 0x7B4 SWAP1 PUSH2 0x1E57 JUMP JUMPDEST SWAP2 SWAP1 POP DUP2 SWAP1 SSTORE SWAP1 POP PUSH0 PUSH1 0x1 PUSH0 DUP4 DUP2 MSTORE PUSH1 0x20 ADD SWAP1 DUP2 MSTORE PUSH1 0x20 ADD PUSH0 KECCAK256 SWAP1 POP CALLER DUP2 PUSH0 ADD PUSH0 PUSH2 0x100 EXP DUP2 SLOAD DUP2 PUSH20 0xFFFFFFFFFFFFFFFFFFFFFFFFFFFFFFFFFFFFFFFF MUL NOT AND SWAP1 DUP4 PUSH20 0xFFFFFFFFFFFFFFFFFFFFFFFFFFFFFFFFFFFFFFFF AND MUL OR SWAP1 SSTORE POP DUP6 DUP2 PUSH1 0x1 ADD DUP2 SWAP1 SSTORE POP DUP5 DUP2 PUSH1 0x2 ADD DUP2 SWAP1 SSTORE POP TIMESTAMP DUP2 PUSH1 0x3 ADD DUP2 SWAP1 SSTORE POP DUP4 DUP4 SWAP1 POP DUP2 PUSH1 0x4 ADD DUP2 SWAP1 SSTORE POP PUSH0 DUP2 PUSH1 0x5 ADD PUSH0 PUSH2 0x100 EXP DUP2 SLOAD DUP2 PUSH1 0xFF MUL NOT AND SWAP1 DUP4 ISZERO ISZERO MUL OR SWAP1 SSTORE POP PUSH0 DUP2 PUSH1 0x5 ADD PUSH1 0x1 PUSH2 0x100 EXP DUP2 SLOAD DUP2 PUSH1 0xFF MUL NOT AND SWAP1 DUP4 ISZERO ISZERO MUL OR SWAP1 SSTORE POP PUSH0 DUP2 PUSH1 0x5 ADD PUSH1 0x2 PUSH2 0x100 EXP DUP2 SLOAD DUP2 PUSH1 0xFF MUL NOT AND SWAP1 DUP4 ISZERO ISZERO MUL OR SWAP1 SSTORE POP PUSH0 DUP2 PUSH1 0x5 ADD PUSH1 0x3 PUSH2 0x100 EXP DUP2 SLOAD DUP2 PUSH1 0xFF MUL NOT AND SWAP1 DUP4 ISZERO ISZERO MUL OR SWAP1 SSTORE POP PUSH0 JUMPDEST DUP5 DUP5 SWAP1 POP DUP2 LT ISZERO PUSH2 0x90F JUMPI PUSH1 0x2 PUSH0 DUP5 DUP2 MSTORE PUSH1 0x20 ADD SWAP1 DUP2 MSTORE PUSH1 0x20 ADD PUSH0 KECCAK256 DUP6 DUP6 DUP4 DUP2 DUP2 LT PUSH2 0x8D8 JUMPI PUSH2 0x8D7 PUSH2 0x1DD6 JUMP JUMPDEST JUMPDEST SWAP1 POP PUSH1 0x20 MUL ADD CALLDATALOAD SWAP1 DUP1 PUSH1 0x1 DUP2 SLOAD ADD DUP1 DUP3 SSTORE DUP1 SWAP2 POP POP PUSH1 0x1 SWAP1 SUB SWAP1 PUSH0 MSTORE PUSH1 0x20 PUSH0 KECCAK256 ADD PUSH0 SWAP1 SWAP2 SWAP1 SWAP2 SWAP1 SWAP2 POP SSTORE DUP1 DUP1 PUSH1 0x1 ADD SWAP2 POP POP PUSH2 0x8A9 JUMP JUMPDEST POP DUP6 DUP3 PUSH32 0xBB31917F1FDE51FF173767C9E35D5DD8829E15FD96D1A5DCB9C281327C0295D0 DUP8 DUP8 DUP8 SWAP1 POP TIMESTAMP PUSH1 0x40 MLOAD PUSH2 0x948 SWAP4 SWAP3 SWAP2 SWAP1 PUSH2 0x1E9E JUMP JUMPDEST PUSH1 0x40 MLOAD DUP1 SWAP2 SUB SWAP1 LOG3 POP SWAP5 SWAP4 POP POP POP POP JUMP JUMPDEST PUSH0 PUSH2 0x963 DUP4 PUSH2 0x170D JUMP JUMPDEST SWAP1 POP PUSH32 0x0 CALLVALUE EQ PUSH2 0x9EB JUMPI PUSH32 0x0 CALLVALUE PUSH1 0x40 MLOAD PUSH32 0xE04483EF00000000000000000000000000000000000000000000000000000000 DUP2 MSTORE PUSH1 0x4 ADD PUSH2 0x9E2 SWAP3 SWAP2 SWAP1 PUSH2 0x1E03 JUMP JUMPDEST PUSH1 0x40 MLOAD DUP1 SWAP2 SUB SWAP1 REVERT JUMPDEST DUP1 PUSH1 0x5 ADD PUSH1 0x1 SWAP1 SLOAD SWAP1 PUSH2 0x100 EXP SWAP1 DIV PUSH1 0xFF AND ISZERO PUSH2 0xA3F JUMPI DUP3 PUSH1 0x40 MLOAD PUSH32 0xA99BD78100000000000000000000000000000000000000000000000000000000 DUP2 MSTORE PUSH1 0x4 ADD PUSH2 0xA36 SWAP2 SWAP1 PUSH2 0x1937 JUMP JUMPDEST PUSH1 0x40 MLOAD DUP1 SWAP2 SUB SWAP1 REVERT JUMPDEST DUP1 PUSH1 0x5 ADD PUSH1 0x2 SWAP1 SLOAD SWAP1 PUSH2 0x100 EXP SWAP1 DIV PUSH1 0xFF AND ISZERO PUSH2 0xA93 JUMPI DUP3 PUSH1 0x40 MLOAD PUSH32 0xAB8BA19400000000000000000000000000000000000000000000000000000000 DUP2 MSTORE PUSH1 0x4 ADD PUSH2 0xA8A SWAP2 SWAP1 PUSH2 0x1937 JUMP JUMPDEST PUSH1 0x40 MLOAD DUP1 SWAP2 SUB SWAP1 REVERT JUMPDEST DUP1 PUSH1 0x5 ADD PUSH0 SWAP1 SLOAD SWAP1 PUSH2 0x100 EXP SWAP1 DIV PUSH1 0xFF AND ISZERO PUSH2 0xAE6 JUMPI DUP3 PUSH1 0x40 MLOAD PUSH32 0x347D276F00000000000000000000000000000000000000000000000000000000 DUP2 MSTORE PUSH1 0x4 ADD PUSH2 0xADD SWAP2 SWAP1 PUSH2 0x1937 JUMP JUMPDEST PUSH1 0x40 MLOAD DUP1 SWAP2 SUB SWAP1 REVERT JUMPDEST PUSH32 0x0 DUP2 PUSH1 0x3 ADD SLOAD PUSH2 0xB16 SWAP2 SWAP1 PUSH2 0x1ED3 JUMP JUMPDEST TIMESTAMP GT ISZERO PUSH2 0xB5A JUMPI DUP3 PUSH1 0x40 MLOAD PUSH32 0x4046DD8100000000000000000000000000000000000000000000000000000000 DUP2 MSTORE PUSH1 0x4 ADD PUSH2 0xB51 SWAP2 SWAP1 PUSH2 0x1937 JUMP JUMPDEST PUSH1 0x40 MLOAD DUP1 SWAP2 SUB SWAP1 REVERT JUMPDEST PUSH1 0x1 DUP2 PUSH1 0x5 ADD PUSH0 PUSH2 0x100 EXP DUP2 SLOAD DUP2 PUSH1 0xFF MUL NOT AND SWAP1 DUP4 ISZERO ISZERO MUL OR SWAP1 SSTORE POP PUSH0 PUSH1 0x3 PUSH0 DUP6 DUP2 MSTORE PUSH1 0x20 ADD SWAP1 DUP2 MSTORE PUSH1 0x20 ADD PUSH0 KECCAK256 SWAP1 POP CALLER DUP2 PUSH0 ADD PUSH0 PUSH2 0x100 EXP DUP2 SLOAD DUP2 PUSH20 0xFFFFFFFFFFFFFFFFFFFFFFFFFFFFFFFFFFFFFFFF MUL NOT AND SWAP1 DUP4 PUSH20 0xFFFFFFFFFFFFFFFFFFFFFFFFFFFFFFFFFFFFFFFF AND MUL OR SWAP1 SSTORE POP PUSH1 0x1 DUP2 PUSH0 ADD PUSH1 0x14 PUSH2 0x100 EXP DUP2 SLOAD DUP2 PUSH1 0xFF MUL NOT AND SWAP1 DUP4 ISZERO ISZERO MUL OR SWAP1 SSTORE POP PUSH0 DUP2 PUSH0 ADD PUSH1 0x15 PUSH2 0x100 EXP DUP2 SLOAD DUP2 PUSH1 0xFF MUL NOT AND SWAP1 DUP4 ISZERO ISZERO MUL OR SWAP1 SSTORE POP PUSH0 DUP2 PUSH1 0x1 ADD DUP2 SWAP1 SSTORE POP PUSH1 0x1 DUP3 PUSH1 0x4 ADD SLOAD PUSH2 0xC1C SWAP2 SWAP1 PUSH2 0x1F06 JUMP JUMPDEST DUP2 PUSH1 0x2 ADD DUP2 SWAP1 SSTORE POP DUP2 PUSH1 0x2 ADD SLOAD DUP2 PUSH1 0x3 ADD DUP2 SWAP1 SSTORE POP DUP3 DUP2 PUSH1 0x4 ADD DUP2 SWAP1 SSTORE POP PUSH0 DUP2 PUSH1 0x5 ADD PUSH0 PUSH2 0x100 EXP DUP2 SLOAD DUP2 PUSH1 0xFF MUL NOT AND SWAP1 DUP4 ISZERO ISZERO MUL OR SWAP1 SSTORE POP PUSH0 DUP2 PUSH1 0x5 ADD PUSH1 0x1 PUSH2 0x100 EXP DUP2 SLOAD DUP2 PUSH1 0xFF MUL NOT AND SWAP1 DUP4 ISZERO ISZERO MUL OR SWAP1 SSTORE POP DUP4 PUSH32 0x466C366B6D796E4B34154585F7A7A505732D2E4A9082FC01F1766FE0C13B27CB DUP5 PUSH1 0x40 MLOAD PUSH2 0xCA1 SWAP2 SWAP1 PUSH2 0x1A81 JUMP JUMPDEST PUSH1 0x40 MLOAD DUP1 SWAP2 SUB SWAP1 LOG2 POP POP POP POP JUMP JUMPDEST PUSH32 0x0 DUP2 JUMP JUMPDEST PUSH1 0x1 PUSH1 0x20 MSTORE DUP1 PUSH0 MSTORE PUSH1 0x40 PUSH0 KECCAK256 PUSH0 SWAP2 POP SWAP1 POP DUP1 PUSH0 ADD PUSH0 SWAP1 SLOAD SWAP1 PUSH2 0x100 EXP SWAP1 DIV PUSH20 0xFFFFFFFFFFFFFFFFFFFFFFFFFFFFFFFFFFFFFFFF AND SWAP1 DUP1 PUSH1 0x1 ADD SLOAD SWAP1 DUP1 PUSH1 0x2 ADD SLOAD SWAP1 DUP1 PUSH1 0x3 ADD SLOAD SWAP1 DUP1 PUSH1 0x4 ADD SLOAD SWAP1 DUP1 PUSH1 0x5 ADD PUSH0 SWAP1 SLOAD SWAP1 PUSH2 0x100 EXP SWAP1 DIV PUSH1 0xFF AND SWAP1 DUP1 PUSH1 0x5 ADD PUSH1 0x1 SWAP1 SLOAD SWAP1 PUSH2 0x100 EXP SWAP1 DIV PUSH1 0xFF AND SWAP1 DUP1 PUSH1 0x5 ADD PUSH1 0x2 SWAP1 SLOAD SWAP1 PUSH2 0x100 EXP SWAP1 DIV PUSH1 0xFF AND SWAP1 DUP1 PUSH1 0x5 ADD PUSH1 0x3 SWAP1 SLOAD SWAP1 PUSH2 0x100 EXP SWAP1 DIV PUSH1 0xFF AND SWAP1 POP DUP10 JUMP JUMPDEST PUSH0 PUSH1 0x3 PUSH0 DUP6 DUP2 MSTORE PUSH1 0x20 ADD SWAP1 DUP2 MSTORE PUSH1 0x20 ADD PUSH0 KECCAK256 SWAP1 POP DUP1 PUSH0 ADD PUSH1 0x14 SWAP1 SLOAD SWAP1 PUSH2 0x100 EXP SWAP1 DIV PUSH1 0xFF AND PUSH2 0xDD5 JUMPI DUP4 PUSH1 0x40 MLOAD PUSH32 0xE372C1F000000000000000000000000000000000000000000000000000000000 DUP2 MSTORE PUSH1 0x4 ADD PUSH2 0xDCC SWAP2 SWAP1 PUSH2 0x1937 JUMP JUMPDEST PUSH1 0x40 MLOAD DUP1 SWAP2 SUB SWAP1 REVERT JUMPDEST DUP1 PUSH0 ADD PUSH1 0x15 SWAP1 SLOAD SWAP1 PUSH2 0x100 EXP SWAP1 DIV PUSH1 0xFF AND ISZERO PUSH2 0xE28 JUMPI DUP4 PUSH1 0x40 MLOAD PUSH32 0x9E65D5E800000000000000000000000000000000000000000000000000000000 DUP2 MSTORE PUSH1 0x4 ADD PUSH2 0xE1F SWAP2 SWAP1 PUSH2 0x1937 JUMP JUMPDEST PUSH1 0x40 MLOAD DUP1 SWAP2 SUB SWAP1 REVERT JUMPDEST DUP1 PUSH1 0x2 ADD SLOAD DUP2 PUSH1 0x1 ADD SLOAD SUB PUSH2 0xE74 JUMPI DUP4 PUSH1 0x40 MLOAD PUSH32 0xB111DF8400000000000000000000000000000000000000000000000000000000 DUP2 MSTORE PUSH1 0x4 ADD PUSH2 0xE6B SWAP2 SWAP1 PUSH2 0x1937 JUMP JUMPDEST PUSH1 0x40 MLOAD DUP1 SWAP2 SUB SWAP1 REVERT JUMPDEST PUSH0 PUSH1 0x2 DUP3 PUSH1 0x2 ADD SLOAD DUP4 PUSH1 0x1 ADD SLOAD PUSH2 0xE8B SWAP2 SWAP1 PUSH2 0x1ED3 JUMP JUMPDEST PUSH2 0xE95 SWAP2 SWAP1 PUSH2 0x1F66 JUMP JUMPDEST SWAP1 POP PUSH0 DUP4 DUP6 EQ ISZERO SWAP1 POP DUP1 ISZERO PUSH2 0xEB2 JUMPI DUP2 DUP4 PUSH1 0x2 ADD DUP2 SWAP1 SSTORE POP PUSH2 0xEC8 JUMP JUMPDEST PUSH1 0x1 DUP3 PUSH2 0xEBF SWAP2 SWAP1 PUSH2 0x1ED3 JUMP JUMPDEST DUP4 PUSH1 0x1 ADD DUP2 SWAP1 SSTORE POP JUMPDEST DUP6 PUSH32 0xDA64B7ECE081B948FB01C4077B52FD0F994BCC4C7FEA7AAC79BDE4ECD43DDC5A DUP5 PUSH1 0x1 ADD SLOAD DUP6 PUSH1 0x2 ADD SLOAD DUP6 DUP6 PUSH1 0x40 MLOAD PUSH2 0xF06 SWAP5 SWAP4 SWAP3 SWAP2 SWAP1 PUSH2 0x1F96 JUMP JUMPDEST PUSH1 0x40 MLOAD DUP1 SWAP2 SUB SWAP1 LOG2 POP POP POP POP POP POP JUMP JUMPDEST PUSH0 PUSH2 0xF20 DUP3 PUSH2 0x170D JUMP JUMPDEST SWAP1 POP DUP1 PUSH1 0x5 ADD PUSH1 0x1 SWAP1 SLOAD SWAP1 PUSH2 0x100 EXP SWAP1 DIV PUSH1 0xFF AND ISZERO PUSH2 0xF76 JUMPI DUP2 PUSH1 0x40 MLOAD PUSH32 0xA99BD78100000000000000000000000000000000000000000000000000000000 DUP2 MSTORE PUSH1 0x4 ADD PUSH2 0xF6D SWAP2 SWAP1 PUSH2 0x1937 JUMP JUMPDEST PUSH1 0x40 MLOAD DUP1 SWAP2 SUB SWAP1 REVERT JUMPDEST DUP1 PUSH1 0x5 ADD PUSH1 0x2 SWAP1 SLOAD SWAP1 PUSH2 0x100 EXP SWAP1 DIV PUSH1 0xFF AND ISZERO PUSH2 0xFCA JUMPI DUP2 PUSH1 0x40 MLOAD PUSH32 0xAB8BA19400000000000000000000000000000000000000000000000000000000 DUP2 MSTORE PUSH1 0x4 ADD PUSH2 0xFC1 SWAP2 SWAP1 PUSH2 0x1937 JUMP JUMPDEST PUSH1 0x40 MLOAD DUP1 SWAP2 SUB SWAP1 REVERT JUMPDEST DUP1 PUSH1 0x5 ADD PUSH0 SWAP1 SLOAD SWAP1 PUSH2 0x100 EXP SWAP1 DIV PUSH1 0xFF AND ISZERO PUSH2 0x101D JUMPI DUP2 PUSH1 0x40 MLOAD PUSH32 0x347D276F00000000000000000000000000000000000000000000000000000000 DUP2 MSTORE PUSH1 0x4 ADD PUSH2 0x1014 SWAP2 SWAP1 PUSH2 0x1937 JUMP JUMPDEST PUSH1 0x40 MLOAD DUP1 SWAP2 SUB SWAP1 REVERT JUMPDEST PUSH32 0x0 DUP2 PUSH1 0x3 ADD SLOAD PUSH2 0x104D SWAP2 SWAP1 PUSH2 0x1ED3 JUMP JUMPDEST TIMESTAMP LT ISZERO PUSH2 0x1091 JUMPI DUP2 PUSH1 0x40 MLOAD PUSH32 0x3DE6C5D600000000000000000000000000000000000000000000000000000000 DUP2 MSTORE PUSH1 0x4 ADD PUSH2 0x1088 SWAP2 SWAP1 PUSH2 0x1937 JUMP JUMPDEST PUSH1 0x40 MLOAD DUP1 SWAP2 SUB SWAP1 REVERT JUMPDEST PUSH1 0x1 DUP2 PUSH1 0x5 ADD PUSH1 0x1 PUSH2 0x100 EXP DUP2 SLOAD DUP2 PUSH1 0xFF MUL NOT AND SWAP1 DUP4 ISZERO ISZERO MUL OR SWAP1 SSTORE POP DUP1 PUSH1 0x5 ADD PUSH1 0x3 SWAP1 SLOAD SWAP1 PUSH2 0x100 EXP SWAP1 DIV PUSH1 0xFF AND PUSH2 0x1177 JUMPI PUSH32 0x0 PUSH1 0x4 PUSH0 DUP4 PUSH0 ADD PUSH0 SWAP1 SLOAD SWAP1 PUSH2 0x100 EXP SWAP1 DIV PUSH20 0xFFFFFFFFFFFFFFFFFFFFFFFFFFFFFFFFFFFFFFFF AND PUSH20 0xFFFFFFFFFFFFFFFFFFFFFFFFFFFFFFFFFFFFFFFF AND PUSH20 0xFFFFFFFFFFFFFFFFFFFFFFFFFFFFFFFFFFFFFFFF AND DUP2 MSTORE PUSH1 0x20 ADD SWAP1 DUP2 MSTORE PUSH1 0x20 ADD PUSH0 KECCAK256 PUSH0 DUP3 DUP3 SLOAD PUSH2 0x1152 SWAP2 SWAP1 PUSH2 0x1ED3 JUMP JUMPDEST SWAP3 POP POP DUP2 SWAP1 SSTORE POP PUSH1 0x1 DUP2 PUSH1 0x5 ADD PUSH1 0x3 PUSH2 0x100 EXP DUP2 SLOAD DUP2 PUSH1 0xFF MUL NOT AND SWAP1 DUP4 ISZERO ISZERO MUL OR SWAP1 SSTORE POP JUMPDEST DUP2 PUSH32 0x167ADAEACF3D77BCC472487D71E5B09333C671D39CD85D3C2A5F61E0B71BA0FF DUP3 PUSH1 0x2 ADD SLOAD PUSH1 0x40 MLOAD PUSH2 0x11AB SWAP2 SWAP1 PUSH2 0x1A81 JUMP JUMPDEST PUSH1 0x40 MLOAD DUP1 SWAP2 SUB SWAP1 LOG2 POP POP JUMP JUMPDEST PUSH0 PUSH1 0x3 PUSH0 DUP6 DUP2 MSTORE PUSH1 0x20 ADD SWAP1 DUP2 MSTORE PUSH1 0x20 ADD PUSH0 KECCAK256 SWAP1 POP PUSH0 PUSH2 0x11D5 DUP6 PUSH2 0x170D JUMP JUMPDEST SWAP1 POP DUP2 PUSH0 ADD PUSH1 0x14 SWAP1 SLOAD SWAP1 PUSH2 0x100 EXP SWAP1 DIV PUSH1 0xFF AND PUSH2 0x1229 JUMPI DUP5 PUSH1 0x40 MLOAD PUSH32 0xE372C1F000000000000000000000000000000000000000000000000000000000 DUP2 MSTORE PUSH1 0x4 ADD PUSH2 0x1220 SWAP2 SWAP1 PUSH2 0x1937 JUMP JUMPDEST PUSH1 0x40 MLOAD DUP1 SWAP2 SUB SWAP1 REVERT JUMPDEST DUP2 PUSH0 ADD PUSH1 0x15 SWAP1 SLOAD SWAP1 PUSH2 0x100 EXP SWAP1 DIV PUSH1 0xFF AND ISZERO PUSH2 0x127C JUMPI DUP5 PUSH1 0x40 MLOAD PUSH32 0x9E65D5E800000000000000000000000000000000000000000000000000000000 DUP2 MSTORE PUSH1 0x4 ADD PUSH2 0x1273 SWAP2 SWAP1 PUSH2 0x1937 JUMP JUMPDEST PUSH1 0x40 MLOAD DUP1 SWAP2 SUB SWAP1 REVERT JUMPDEST DUP2 PUSH1 0x2 ADD SLOAD DUP3 PUSH1 0x1 ADD SLOAD EQ PUSH2 0x12C8 JUMPI DUP5 PUSH1 0x40 MLOAD PUSH32 0xB111DF8400000000000000000000000000000000000000000000000000000000 DUP2 MSTORE PUSH1 0x4 ADD PUSH2 0x12BF SWAP2 SWAP1 PUSH2 0x1937 JUMP JUMPDEST PUSH1 0x40 MLOAD DUP1 SWAP2 SUB SWAP1 REVERT JUMPDEST DUP3 DUP5 SUB PUSH2 0x1301 JUMPI PUSH1 0x40 MLOAD PUSH32 0x6D77D50600000000000000000000000000000000000000000000000000000000 DUP2 MSTORE PUSH1 0x4 ADD PUSH1 0x40 MLOAD DUP1 SWAP2 SUB SWAP1 REVERT JUMPDEST PUSH0 DUP3 PUSH1 0x1 ADD SLOAD SWAP1 POP DUP2 PUSH1 0x4 ADD SLOAD DUP2 LT PUSH2 0x1346 JUMPI PUSH1 0x40 MLOAD PUSH32 0x44D35AB500000000000000000000000000000000000000000000000000000000 DUP2 MSTORE PUSH1 0x4 ADD PUSH1 0x40 MLOAD DUP1 SWAP2 SUB SWAP1 REVERT JUMPDEST PUSH0 PUSH2 0x1351 DUP8 DUP4 PUSH2 0x176E JUMP JUMPDEST SWAP1 POP PUSH0 PUSH1 0x2 PUSH0 DUP10 DUP2 MSTORE PUSH1 0x20 ADD SWAP1 DUP2 MSTORE PUSH1 0x20 ADD PUSH0 KECCAK256 DUP4 DUP2 SLOAD DUP2 LT PUSH2 0x1377 JUMPI PUSH2 0x1376 PUSH2 0x1DD6 JUMP JUMPDEST JUMPDEST SWAP1 PUSH0 MSTORE PUSH1 0x20 PUSH0 KECCAK256 ADD SLOAD DUP3 PUSH2 0x138B SWAP2 SWAP1 PUSH2 0x1FD9 JUMP JUMPDEST SWAP1 POP PUSH0 DUP2 DUP9 EQ SWAP1 POP PUSH0 DUP3 DUP9 EQ SWAP1 POP PUSH0 DUP8 PUSH0 ADD PUSH1 0x14 PUSH2 0x100 EXP DUP2 SLOAD DUP2 PUSH1 0xFF MUL NOT AND SWAP1 DUP4 ISZERO ISZERO MUL OR SWAP1 SSTORE POP PUSH1 0x1 DUP8 PUSH0 ADD PUSH1 0x15 PUSH2 0x100 EXP DUP2 SLOAD DUP2 PUSH1 0xFF MUL NOT AND SWAP1 DUP4 ISZERO ISZERO MUL OR SWAP1 SSTORE POP DUP1 DUP1 ISZERO PUSH2 0x13DB JUMPI POP DUP2 ISZERO JUMPDEST ISZERO PUSH2 0x1533 JUMPI PUSH1 0x1 DUP8 PUSH1 0x5 ADD PUSH1 0x1 PUSH2 0x100 EXP DUP2 SLOAD DUP2 PUSH1 0xFF MUL NOT AND SWAP1 DUP4 ISZERO ISZERO MUL OR SWAP1 SSTORE POP PUSH0 DUP8 PUSH1 0x5 ADD PUSH0 PUSH2 0x100 EXP DUP2 SLOAD DUP2 PUSH1 0xFF MUL NOT AND SWAP1 DUP4 ISZERO ISZERO MUL OR SWAP1 SSTORE POP PUSH1 0x1 DUP7 PUSH1 0x5 ADD PUSH1 0x2 PUSH2 0x100 EXP DUP2 SLOAD DUP2 PUSH1 0xFF MUL NOT AND SWAP1 DUP4 ISZERO ISZERO MUL OR SWAP1 SSTORE POP PUSH1 0x1 DUP7 PUSH1 0x5 ADD PUSH0 PUSH2 0x100 EXP DUP2 SLOAD DUP2 PUSH1 0xFF MUL NOT AND SWAP1 DUP4 ISZERO ISZERO MUL OR SWAP1 SSTORE POP PUSH32 0x0 PUSH32 0x0 PUSH2 0x149D SWAP2 SWAP1 PUSH2 0x1ED3 JUMP JUMPDEST PUSH1 0x4 PUSH0 DUP10 PUSH0 ADD PUSH0 SWAP1 SLOAD SWAP1 PUSH2 0x100 EXP SWAP1 DIV PUSH20 0xFFFFFFFFFFFFFFFFFFFFFFFFFFFFFFFFFFFFFFFF AND PUSH20 0xFFFFFFFFFFFFFFFFFFFFFFFFFFFFFFFFFFFFFFFF AND PUSH20 0xFFFFFFFFFFFFFFFFFFFFFFFFFFFFFFFFFFFFFFFF AND DUP2 MSTORE PUSH1 0x20 ADD SWAP1 DUP2 MSTORE PUSH1 0x20 ADD PUSH0 KECCAK256 PUSH0 DUP3 DUP3 SLOAD PUSH2 0x150A SWAP2 SWAP1 PUSH2 0x1ED3 JUMP JUMPDEST SWAP3 POP POP DUP2 SWAP1 SSTORE POP PUSH1 0x1 DUP7 PUSH1 0x5 ADD PUSH1 0x3 PUSH2 0x100 EXP DUP2 SLOAD DUP2 PUSH1 0xFF MUL NOT AND SWAP1 DUP4 ISZERO ISZERO MUL OR SWAP1 SSTORE POP PUSH2 0x1680 JUMP JUMPDEST PUSH0 DUP8 PUSH1 0x5 ADD PUSH1 0x1 PUSH2 0x100 EXP DUP2 SLOAD DUP2 PUSH1 0xFF MUL NOT AND SWAP1 DUP4 ISZERO ISZERO MUL OR SWAP1 SSTORE POP PUSH1 0x1 DUP8 PUSH1 0x5 ADD PUSH0 PUSH2 0x100 EXP DUP2 SLOAD DUP2 PUSH1 0xFF MUL NOT AND SWAP1 DUP4 ISZERO ISZERO MUL OR SWAP1 SSTORE POP PUSH0 DUP7 PUSH1 0x5 ADD PUSH1 0x2 PUSH2 0x100 EXP DUP2 SLOAD DUP2 PUSH1 0xFF MUL NOT AND SWAP1 DUP4 ISZERO ISZERO MUL OR SWAP1 SSTORE POP PUSH0 DUP7 PUSH1 0x5 ADD PUSH0 PUSH2 0x100 EXP DUP2 SLOAD DUP2 PUSH1 0xFF MUL NOT AND SWAP1 DUP4 ISZERO ISZERO MUL OR SWAP1 SSTORE POP PUSH32 0x0 PUSH32 0x0 PUSH2 0x15EE SWAP2 SWAP1 PUSH2 0x1ED3 JUMP JUMPDEST PUSH1 0x4 PUSH0 DUP9 PUSH0 ADD PUSH0 SWAP1 SLOAD SWAP1 PUSH2 0x100 EXP SWAP1 DIV PUSH20 0xFFFFFFFFFFFFFFFFFFFFFFFFFFFFFFFFFFFFFFFF AND PUSH20 0xFFFFFFFFFFFFFFFFFFFFFFFFFFFFFFFFFFFFFFFF AND PUSH20 0xFFFFFFFFFFFFFFFFFFFFFFFFFFFFFFFFFFFFFFFF AND DUP2 MSTORE PUSH1 0x20 ADD SWAP1 DUP2 MSTORE PUSH1 0x20 ADD PUSH0 KECCAK256 PUSH0 DUP3 DUP3 SLOAD PUSH2 0x165B SWAP2 SWAP1 PUSH2 0x1ED3 JUMP JUMPDEST SWAP3 POP POP DUP2 SWAP1 SSTORE POP PUSH1 0x1 DUP7 PUSH1 0x5 ADD PUSH1 0x3 PUSH2 0x100 EXP DUP2 SLOAD DUP2 PUSH1 0xFF MUL NOT AND SWAP1 DUP4 ISZERO ISZERO MUL OR SWAP1 SSTORE POP JUMPDEST DUP10 PUSH32 0x6BBC4F84909B75A535268D1E20AE8277D0FF2BB584A3C06E31532AAF26ABFF7A DUP9 PUSH1 0x5 ADD PUSH1 0x1 SWAP1 SLOAD SWAP1 PUSH2 0x100 EXP SWAP1 DIV PUSH1 0xFF AND DUP10 PUSH1 0x5 ADD PUSH0 SWAP1 SLOAD SWAP1 PUSH2 0x100 EXP SWAP1 DIV PUSH1 0xFF AND DUP9 PUSH1 0x40 MLOAD PUSH2 0x16D5 SWAP4 SWAP3 SWAP2 SWAP1 PUSH2 0x201A JUMP JUMPDEST PUSH1 0x40 MLOAD DUP1 SWAP2 SUB SWAP1 LOG2 POP POP POP POP POP POP POP POP POP POP JUMP JUMPDEST PUSH32 0x0 DUP2 JUMP JUMPDEST PUSH0 PUSH1 0x1 PUSH0 DUP4 DUP2 MSTORE PUSH1 0x20 ADD SWAP1 DUP2 MSTORE PUSH1 0x20 ADD PUSH0 KECCAK256 SWAP1 POP PUSH0 DUP2 PUSH1 0x3 ADD SLOAD SUB PUSH2 0x1769 JUMPI DUP2 PUSH1 0x40 MLOAD PUSH32 0xF14984A400000000000000000000000000000000000000000000000000000000 DUP2 MSTORE PUSH1 0x4 ADD PUSH2 0x1760 SWAP2 SWAP1 PUSH2 0x1937 JUMP JUMPDEST PUSH1 0x40 MLOAD DUP1 SWAP2 SUB SWAP1 REVERT JUMPDEST SWAP2 SWAP1 POP JUMP JUMPDEST PUSH0 DUP1 PUSH1 0x1 PUSH0 DUP6 DUP2 MSTORE PUSH1 0x20 ADD SWAP1 DUP2 MSTORE PUSH1 0x20 ADD PUSH0 KECCAK256 SWAP1 POP DUP1 PUSH1 0x1 ADD SLOAD SWAP2 POP PUSH0 JUMPDEST DUP4 DUP2 LT ISZERO PUSH2 0x17DA JUMPI PUSH1 0x2 PUSH0 DUP7 DUP2 MSTORE PUSH1 0x20 ADD SWAP1 DUP2 MSTORE PUSH1 0x20 ADD PUSH0 KECCAK256 DUP2 DUP2 SLOAD DUP2 LT PUSH2 0x17B7 JUMPI PUSH2 0x17B6 PUSH2 0x1DD6 JUMP JUMPDEST JUMPDEST SWAP1 PUSH0 MSTORE PUSH1 0x20 PUSH0 KECCAK256 ADD SLOAD DUP4 PUSH2 0x17CB SWAP2 SWAP1 PUSH2 0x1FD9 JUMP JUMPDEST SWAP3 POP DUP1 DUP1 PUSH1 0x1 ADD SWAP2 POP POP PUSH2 0x178C JUMP JUMPDEST POP POP SWAP3 SWAP2 POP POP JUMP JUMPDEST PUSH0 DUP1 REVERT JUMPDEST PUSH0 DUP1 REVERT JUMPDEST PUSH0 DUP2 SWAP1 POP SWAP2 SWAP1 POP JUMP JUMPDEST PUSH2 0x17FC DUP2 PUSH2 0x17EA JUMP JUMPDEST DUP2 EQ PUSH2 0x1806 JUMPI PUSH0 DUP1 REVERT JUMPDEST POP JUMP JUMPDEST PUSH0 DUP2 CALLDATALOAD SWAP1 POP PUSH2 0x1817 DUP2 PUSH2 0x17F3 JUMP JUMPDEST SWAP3 SWAP2 POP POP JUMP JUMPDEST PUSH0 PUSH1 0x20 DUP3 DUP5 SUB SLT ISZERO PUSH2 0x1832 JUMPI PUSH2 0x1831 PUSH2 0x17E2 JUMP JUMPDEST JUMPDEST PUSH0 PUSH2 0x183F DUP5 DUP3 DUP6 ADD PUSH2 0x1809 JUMP JUMPDEST SWAP2 POP POP SWAP3 SWAP2 POP POP JUMP JUMPDEST PUSH0 DUP2 MLOAD SWAP1 POP SWAP2 SWAP1 POP JUMP JUMPDEST PUSH0 DUP3 DUP3 MSTORE PUSH1 0x20 DUP3 ADD SWAP1 POP SWAP3 SWAP2 POP POP JUMP JUMPDEST PUSH0 DUP2 SWAP1 POP PUSH1 0x20 DUP3 ADD SWAP1 POP SWAP2 SWAP1 POP JUMP JUMPDEST PUSH0 DUP2 SWAP1 POP SWAP2 SWAP1 POP JUMP JUMPDEST PUSH2 0x1883 DUP2 PUSH2 0x1871 JUMP JUMPDEST DUP3 MSTORE POP POP JUMP JUMPDEST PUSH0 PUSH2 0x1894 DUP4 DUP4 PUSH2 0x187A JUMP JUMPDEST PUSH1 0x20 DUP4 ADD SWAP1 POP SWAP3 SWAP2 POP POP JUMP JUMPDEST PUSH0 PUSH1 0x20 DUP3 ADD SWAP1 POP SWAP2 SWAP1 POP JUMP JUMPDEST PUSH0 PUSH2 0x18B6 DUP3 PUSH2 0x1848 JUMP JUMPDEST PUSH2 0x18C0 DUP2 DUP6 PUSH2 0x1852 JUMP JUMPDEST SWAP4 POP PUSH2 0x18CB DUP4 PUSH2 0x1862 JUMP JUMPDEST DUP1 PUSH0 JUMPDEST DUP4 DUP2 LT ISZERO PUSH2 0x18FB JUMPI DUP2 MLOAD PUSH2 0x18E2 DUP9 DUP3 PUSH2 0x1889 JUMP JUMPDEST SWAP8 POP PUSH2 0x18ED DUP4 PUSH2 0x18A0 JUMP JUMPDEST SWAP3 POP POP PUSH1 0x1 DUP2 ADD SWAP1 POP PUSH2 0x18CE JUMP JUMPDEST POP DUP6 SWAP4 POP POP POP POP SWAP3 SWAP2 POP POP JUMP JUMPDEST PUSH0 PUSH1 0x20 DUP3 ADD SWAP1 POP DUP2 DUP2 SUB PUSH0 DUP4 ADD MSTORE PUSH2 0x1920 DUP2 DUP5 PUSH2 0x18AC JUMP JUMPDEST SWAP1 POP SWAP3 SWAP2 POP POP JUMP JUMPDEST PUSH2 0x1931 DUP2 PUSH2 0x17EA JUMP JUMPDEST DUP3 MSTORE POP POP JUMP JUMPDEST PUSH0 PUSH1 0x20 DUP3 ADD SWAP1 POP PUSH2 0x194A PUSH0 DUP4 ADD DUP5 PUSH2 0x1928 JUMP JUMPDEST SWAP3 SWAP2 POP POP JUMP JUMPDEST PUSH0 PUSH20 0xFFFFFFFFFFFFFFFFFFFFFFFFFFFFFFFFFFFFFFFF DUP3 AND SWAP1 POP SWAP2 SWAP1 POP JUMP JUMPDEST PUSH0 PUSH2 0x1979 DUP3 PUSH2 0x1950 JUMP JUMPDEST SWAP1 POP SWAP2 SWAP1 POP JUMP JUMPDEST PUSH2 0x1989 DUP2 PUSH2 0x196F JUMP JUMPDEST DUP3 MSTORE POP POP JUMP JUMPDEST PUSH0 DUP2 ISZERO ISZERO SWAP1 POP SWAP2 SWAP1 POP JUMP JUMPDEST PUSH2 0x19A3 DUP2 PUSH2 0x198F JUMP JUMPDEST DUP3 MSTORE POP POP JUMP JUMPDEST PUSH2 0x19B2 DUP2 PUSH2 0x1871 JUMP JUMPDEST DUP3 MSTORE POP POP JUMP JUMPDEST PUSH0 PUSH2 0x120 DUP3 ADD SWAP1 POP PUSH2 0x19CC PUSH0 DUP4 ADD DUP13 PUSH2 0x1980 JUMP JUMPDEST PUSH2 0x19D9 PUSH1 0x20 DUP4 ADD DUP12 PUSH2 0x199A JUMP JUMPDEST PUSH2 0x19E6 PUSH1 0x40 DUP4 ADD DUP11 PUSH2 0x199A JUMP JUMPDEST PUSH2 0x19F3 PUSH1 0x60 DUP4 ADD DUP10 PUSH2 0x1928 JUMP JUMPDEST PUSH2 0x1A00 PUSH1 0x80 DUP4 ADD DUP9 PUSH2 0x1928 JUMP JUMPDEST PUSH2 0x1A0D PUSH1 0xA0 DUP4 ADD DUP8 PUSH2 0x19A9 JUMP JUMPDEST PUSH2 0x1A1A PUSH1 0xC0 DUP4 ADD DUP7 PUSH2 0x19A9 JUMP JUMPDEST PUSH2 0x1A27 PUSH1 0xE0 DUP4 ADD DUP6 PUSH2 0x199A JUMP JUMPDEST PUSH2 0x1A35 PUSH2 0x100 DUP4 ADD DUP5 PUSH2 0x199A JUMP JUMPDEST SWAP11 SWAP10 POP POP POP POP POP POP POP POP POP POP JUMP JUMPDEST PUSH0 DUP1 PUSH1 0x40 DUP4 DUP6 SUB SLT ISZERO PUSH2 0x1A59 JUMPI PUSH2 0x1A58 PUSH2 0x17E2 JUMP JUMPDEST JUMPDEST PUSH0 PUSH2 0x1A66 DUP6 DUP3 DUP7 ADD PUSH2 0x1809 JUMP JUMPDEST SWAP3 POP POP PUSH1 0x20 PUSH2 0x1A77 DUP6 DUP3 DUP7 ADD PUSH2 0x1809 JUMP JUMPDEST SWAP2 POP POP SWAP3 POP SWAP3 SWAP1 POP JUMP JUMPDEST PUSH0 PUSH1 0x20 DUP3 ADD SWAP1 POP PUSH2 0x1A94 PUSH0 DUP4 ADD DUP5 PUSH2 0x19A9 JUMP JUMPDEST SWAP3 SWAP2 POP POP JUMP JUMPDEST PUSH2 0x1AA3 DUP2 PUSH2 0x196F JUMP JUMPDEST DUP2 EQ PUSH2 0x1AAD JUMPI PUSH0 DUP1 REVERT JUMPDEST POP JUMP JUMPDEST PUSH0 DUP2 CALLDATALOAD SWAP1 POP PUSH2 0x1ABE DUP2 PUSH2 0x1A9A JUMP JUMPDEST SWAP3 SWAP2 POP POP JUMP JUMPDEST PUSH0 PUSH1 0x20 DUP3 DUP5 SUB SLT ISZERO PUSH2 0x1AD9 JUMPI PUSH2 0x1AD8 PUSH2 0x17E2 JUMP JUMPDEST JUMPDEST PUSH0 PUSH2 0x1AE6 DUP5 DUP3 DUP6 ADD PUSH2 0x1AB0 JUMP JUMPDEST SWAP2 POP POP SWAP3 SWAP2 POP POP JUMP JUMPDEST PUSH2 0x1AF8 DUP2 PUSH2 0x1871 JUMP JUMPDEST DUP2 EQ PUSH2 0x1B02 JUMPI PUSH0 DUP1 REVERT JUMPDEST POP JUMP JUMPDEST PUSH0 DUP2 CALLDATALOAD SWAP1 POP PUSH2 0x1B13 DUP2 PUSH2 0x1AEF JUMP JUMPDEST SWAP3 SWAP2 POP POP JUMP JUMPDEST PUSH0 DUP1 REVERT JUMPDEST PUSH0 DUP1 REVERT JUMPDEST PUSH0 DUP1 REVERT JUMPDEST PUSH0 DUP1 DUP4 PUSH1 0x1F DUP5 ADD SLT PUSH2 0x1B3A JUMPI PUSH2 0x1B39 PUSH2 0x1B19 JUMP JUMPDEST JUMPDEST DUP3 CALLDATALOAD SWAP1 POP PUSH8 0xFFFFFFFFFFFFFFFF DUP2 GT ISZERO PUSH2 0x1B57 JUMPI PUSH2 0x1B56 PUSH2 0x1B1D JUMP JUMPDEST JUMPDEST PUSH1 0x20 DUP4 ADD SWAP2 POP DUP4 PUSH1 0x20 DUP3 MUL DUP4 ADD GT ISZERO PUSH2 0x1B73 JUMPI PUSH2 0x1B72 PUSH2 0x1B21 JUMP JUMPDEST JUMPDEST SWAP3 POP SWAP3 SWAP1 POP JUMP JUMPDEST PUSH0 DUP1 PUSH0 DUP1 PUSH1 0x60 DUP6 DUP8 SUB SLT ISZERO PUSH2 0x1B92 JUMPI PUSH2 0x1B91 PUSH2 0x17E2 JUMP JUMPDEST JUMPDEST PUSH0 PUSH2 0x1B9F DUP8 DUP3 DUP9 ADD PUSH2 0x1B05 JUMP JUMPDEST SWAP5 POP POP PUSH1 0x20 PUSH2 0x1BB0 DUP8 DUP3 DUP9 ADD PUSH2 0x1B05 JUMP JUMPDEST SWAP4 POP POP PUSH1 0x40 DUP6 ADD CALLDATALOAD PUSH8 0xFFFFFFFFFFFFFFFF DUP2 GT ISZERO PUSH2 0x1BD1 JUMPI PUSH2 0x1BD0 PUSH2 0x17E6 JUMP JUMPDEST JUMPDEST PUSH2 0x1BDD DUP8 DUP3 DUP9 ADD PUSH2 0x1B25 JUMP JUMPDEST SWAP3 POP SWAP3 POP POP SWAP3 SWAP6 SWAP2 SWAP5 POP SWAP3 POP JUMP JUMPDEST PUSH0 DUP1 PUSH1 0x40 DUP4 DUP6 SUB SLT ISZERO PUSH2 0x1C01 JUMPI PUSH2 0x1C00 PUSH2 0x17E2 JUMP JUMPDEST JUMPDEST PUSH0 PUSH2 0x1C0E DUP6 DUP3 DUP7 ADD PUSH2 0x1809 JUMP JUMPDEST SWAP3 POP POP PUSH1 0x20 PUSH2 0x1C1F DUP6 DUP3 DUP7 ADD PUSH2 0x1B05 JUMP JUMPDEST SWAP2 POP POP SWAP3 POP SWAP3 SWAP1 POP JUMP JUMPDEST PUSH0 PUSH2 0x120 DUP3 ADD SWAP1 POP PUSH2 0x1C3D PUSH0 DUP4 ADD DUP13 PUSH2 0x1980 JUMP JUMPDEST PUSH2 0x1C4A PUSH1 0x20 DUP4 ADD DUP12 PUSH2 0x19A9 JUMP JUMPDEST PUSH2 0x1C57 PUSH1 0x40 DUP4 ADD DUP11 PUSH2 0x19A9 JUMP JUMPDEST PUSH2 0x1C64 PUSH1 0x60 DUP4 ADD DUP10 PUSH2 0x1928 JUMP JUMPDEST PUSH2 0x1C71 PUSH1 0x80 DUP4 ADD DUP9 PUSH2 0x1928 JUMP JUMPDEST PUSH2 0x1C7E PUSH1 0xA0 DUP4 ADD DUP8 PUSH2 0x199A JUMP JUMPDEST PUSH2 0x1C8B PUSH1 0xC0 DUP4 ADD DUP7 PUSH2 0x199A JUMP JUMPDEST PUSH2 0x1C98 PUSH1 0xE0 DUP4 ADD DUP6 PUSH2 0x199A JUMP JUMPDEST PUSH2 0x1CA6 PUSH2 0x100 DUP4 ADD DUP5 PUSH2 0x199A JUMP JUMPDEST SWAP11 SWAP10 POP POP POP POP POP POP POP POP POP POP JUMP JUMPDEST PUSH0 DUP1 PUSH0 PUSH1 0x60 DUP5 DUP7 SUB SLT ISZERO PUSH2 0x1CCB JUMPI PUSH2 0x1CCA PUSH2 0x17E2 JUMP JUMPDEST JUMPDEST PUSH0 PUSH2 0x1CD8 DUP7 DUP3 DUP8 ADD PUSH2 0x1809 JUMP JUMPDEST SWAP4 POP POP PUSH1 0x20 PUSH2 0x1CE9 DUP7 DUP3 DUP8 ADD PUSH2 0x1B05 JUMP JUMPDEST SWAP3 POP POP PUSH1 0x40 PUSH2 0x1CFA DUP7 DUP3 DUP8 ADD PUSH2 0x1B05 JUMP JUMPDEST SWAP2 POP POP SWAP3 POP SWAP3 POP SWAP3 JUMP JUMPDEST PUSH0 PUSH1 0x20 DUP3 ADD SWAP1 POP PUSH2 0x1D17 PUSH0 DUP4 ADD DUP5 PUSH2 0x1980 JUMP JUMPDEST SWAP3 SWAP2 POP POP JUMP JUMPDEST PUSH0 DUP2 SWAP1 POP SWAP3 SWAP2 POP POP JUMP JUMPDEST POP JUMP JUMPDEST PUSH0 PUSH2 0x1D35 PUSH0 DUP4 PUSH2 0x1D1D JUMP JUMPDEST SWAP2 POP PUSH2 0x1D40 DUP3 PUSH2 0x1D27 JUMP JUMPDEST PUSH0 DUP3 ADD SWAP1 POP SWAP2 SWAP1 POP JUMP JUMPDEST PUSH0 PUSH2 0x1D54 DUP3 PUSH2 0x1D2A JUMP JUMPDEST SWAP2 POP DUP2 SWAP1 POP SWAP2 SWAP1 POP JUMP JUMPDEST PUSH0 DUP3 DUP3 MSTORE PUSH1 0x20 DUP3 ADD SWAP1 POP SWAP3 SWAP2 POP POP JUMP JUMPDEST PUSH32 0x7769746864726177207472616E73666572206661696C65640000000000000000 PUSH0 DUP3 ADD MSTORE POP JUMP JUMPDEST PUSH0 PUSH2 0x1DA2 PUSH1 0x18 DUP4 PUSH2 0x1D5E JUMP JUMPDEST SWAP2 POP PUSH2 0x1DAD DUP3 PUSH2 0x1D6E JUMP JUMPDEST PUSH1 0x20 DUP3 ADD SWAP1 POP SWAP2 SWAP1 POP JUMP JUMPDEST PUSH0 PUSH1 0x20 DUP3 ADD SWAP1 POP DUP2 DUP2 SUB PUSH0 DUP4 ADD MSTORE PUSH2 0x1DCF DUP2 PUSH2 0x1D96 JUMP JUMPDEST SWAP1 POP SWAP2 SWAP1 POP JUMP JUMPDEST PUSH32 0x4E487B7100000000000000000000000000000000000000000000000000000000 PUSH0 MSTORE PUSH1 0x32 PUSH1 0x4 MSTORE PUSH1 0x24 PUSH0 REVERT JUMPDEST PUSH0 PUSH1 0x40 DUP3 ADD SWAP1 POP PUSH2 0x1E16 PUSH0 DUP4 ADD DUP6 PUSH2 0x1928 JUMP JUMPDEST PUSH2 0x1E23 PUSH1 0x20 DUP4 ADD DUP5 PUSH2 0x1928 JUMP JUMPDEST SWAP4 SWAP3 POP POP POP JUMP JUMPDEST PUSH32 0x4E487B7100000000000000000000000000000000000000000000000000000000 PUSH0 MSTORE PUSH1 0x11 PUSH1 0x4 MSTORE PUSH1 0x24 PUSH0 REVERT JUMPDEST PUSH0 PUSH2 0x1E61 DUP3 PUSH2 0x17EA JUMP JUMPDEST SWAP2 POP PUSH32 0xFFFFFFFFFFFFFFFFFFFFFFFFFFFFFFFFFFFFFFFFFFFFFFFFFFFFFFFFFFFFFFFF DUP3 SUB PUSH2 0x1E93 JUMPI PUSH2 0x1E92 PUSH2 0x1E2A JUMP JUMPDEST JUMPDEST PUSH1 0x1 DUP3 ADD SWAP1 POP SWAP2 SWAP1 POP JUMP JUMPDEST PUSH0 PUSH1 0x60 DUP3 ADD SWAP1 POP PUSH2 0x1EB1 PUSH0 DUP4 ADD DUP7 PUSH2 0x19A9 JUMP JUMPDEST PUSH2 0x1EBE PUSH1 0x20 DUP4 ADD DUP6 PUSH2 0x1928 JUMP JUMPDEST PUSH2 0x1ECB PUSH1 0x40 DUP4 ADD DUP5 PUSH2 0x1928 JUMP JUMPDEST SWAP5 SWAP4 POP POP POP POP JUMP JUMPDEST PUSH0 PUSH2 0x1EDD DUP3 PUSH2 0x17EA JUMP JUMPDEST SWAP2 POP PUSH2 0x1EE8 DUP4 PUSH2 0x17EA JUMP JUMPDEST SWAP3 POP DUP3 DUP3 ADD SWAP1 POP DUP1 DUP3 GT ISZERO PUSH2 0x1F00 JUMPI PUSH2 0x1EFF PUSH2 0x1E2A JUMP JUMPDEST JUMPDEST SWAP3 SWAP2 POP POP JUMP JUMPDEST PUSH0 PUSH2 0x1F10 DUP3 PUSH2 0x17EA JUMP JUMPDEST SWAP2 POP PUSH2 0x1F1B DUP4 PUSH2 0x17EA JUMP JUMPDEST SWAP3 POP DUP3 DUP3 SUB SWAP1 POP DUP2 DUP2 GT ISZERO PUSH2 0x1F33 JUMPI PUSH2 0x1F32 PUSH2 0x1E2A JUMP JUMPDEST JUMPDEST SWAP3 SWAP2 POP POP JUMP JUMPDEST PUSH32 0x4E487B7100000000000000000000000000000000000000000000000000000000 PUSH0 MSTORE PUSH1 0x12 PUSH1 0x4 MSTORE PUSH1 0x24 PUSH0 REVERT JUMPDEST PUSH0 PUSH2 0x1F70 DUP3 PUSH2 0x17EA JUMP JUMPDEST SWAP2 POP PUSH2 0x1F7B DUP4 PUSH2 0x17EA JUMP JUMPDEST SWAP3 POP DUP3 PUSH2 0x1F8B JUMPI PUSH2 0x1F8A PUSH2 0x1F39 JUMP JUMPDEST JUMPDEST DUP3 DUP3 DIV SWAP1 POP SWAP3 SWAP2 POP POP JUMP JUMPDEST PUSH0 PUSH1 0x80 DUP3 ADD SWAP1 POP PUSH2 0x1FA9 PUSH0 DUP4 ADD DUP8 PUSH2 0x1928 JUMP JUMPDEST PUSH2 0x1FB6 PUSH1 0x20 DUP4 ADD DUP7 PUSH2 0x1928 JUMP JUMPDEST PUSH2 0x1FC3 PUSH1 0x40 DUP4 ADD DUP6 PUSH2 0x1928 JUMP JUMPDEST PUSH2 0x1FD0 PUSH1 0x60 DUP4 ADD DUP5 PUSH2 0x199A JUMP JUMPDEST SWAP6 SWAP5 POP POP POP POP POP JUMP JUMPDEST PUSH0 PUSH2 0x1FE3 DUP3 PUSH2 0x1871 JUMP JUMPDEST SWAP2 POP PUSH2 0x1FEE DUP4 PUSH2 0x1871 JUMP JUMPDEST SWAP3 POP DUP3 DUP3 ADD SWAP1 POP DUP3 DUP2 SLT ISZERO PUSH0 DUP4 SLT AND DUP4 DUP3 SLT PUSH0 DUP5 SLT ISZERO AND OR ISZERO PUSH2 0x2014 JUMPI PUSH2 0x2013 PUSH2 0x1E2A JUMP JUMPDEST JUMPDEST SWAP3 SWAP2 POP POP JUMP JUMPDEST PUSH0 PUSH1 0x60 DUP3 ADD SWAP1 POP PUSH2 0x202D PUSH0 DUP4 ADD DUP7 PUSH2 0x199A JUMP JUMPDEST PUSH2 0x203A PUSH1 0x20 DUP4 ADD DUP6 PUSH2 0x199A JUMP JUMPDEST PUSH2 0x2047 PUSH1 0x40 DUP4 ADD DUP5 PUSH2 0x1928 JUMP JUMPDEST SWAP5 SWAP4 POP POP POP POP JUMP INVALID LOG2 PUSH5 0x6970667358 0x22 SLT KECCAK256 0xA5 PUSH4 0xA4B03B2E SWAP11 PUSH14 0x346E830D3CDC5605C60A62494891 SSTORE ADDRESS TSTORE MSIZE CALLDATACOPY CALLCODE JUMP DUP8 0xEB PUSH27 0x64736F6C6343000818003300000000000000000000000000000000 "},"methodIdentifiers":{"batches(uint256)":"b32c4d8d","bisectDispute(uint256,int256,int256)":"c67f7a08","challengePeriod()":"f3f480d9","challengerBond()":"68ccdc86","claimableBalances(address)":"68c8278f","disputes(uint256)":"564a565d","finalizeBatch(uint256)":"e33491a7","getBatchDeltas(uint256)":"368cf072","getDeltaAt(uint256,uint256)":"58ca1fd7","initiateChallenge(uint256,int256)":"6e34ca28","latestBatchId()":"4d4e7019","resolveSingleStep(uint256,int256,int256)":"e4d84994","sequencerBond()":"a8608d18","submitBatch(int256,int256,int256[])":"69164890","withdrawClaimable()":"4fa982d4"}}}}}