{"project/contracts/SimpleOptimisticRollup.sol":{"SimpleOptimisticRollup":{"abi":[{"inputs":[{"internalType":"uint256","name":"_challengePeriodSeconds","type":"uint256"}],"stateMutability":"nonpayable","type":"constructor"},{"inputs":[{"internalType":"uint256","name":"batchId","type":"uint256"}],"name":"BatchAlreadyChallenged","type":"error"},{"inputs":[{"internalType":"uint256","name":"batchId","type":"uint256"}],"name":"BatchAlreadyFinalized","type":"error"},{"inputs":[{"internalType":"uint256","name":"batchId","type":"uint256"}],"name":"BatchDoesNotExist","type":"error"},{"inputs":[{"internalType":"uint256","name":"batchId","type":"uint256"}],"name":"BatchIsChallenged","type":"error"},{"inputs":[{"internalType":"uint256","name":"batchId","type":"uint256"}],"name":"ChallengeWindowClosed","type":"error"},{"inputs":[{"internalType":"uint256","name":"batchId","type":"uint256"}],"name":"ChallengeWindowStillOpen","type":"error"},{"anonymous":false,"inputs":[{"indexed":true,"internalType":"uint256","name":"batchId","type":"uint256"},{"indexed":true,"internalType":"address","name":"challenger","type":"address"},{"indexed":false,"internalType":"bytes32","name":"reasonHash","type":"bytes32"}],"name":"BatchChallenged","type":"event"},{"anonymous":false,"inputs":[{"indexed":true,"internalType":"uint256","name":"batchId","type":"uint256"},{"indexed":true,"internalType":"bytes32","name":"stateRoot","type":"bytes32"}],"name":"BatchFinalized","type":"event"},{"anonymous":false,"inputs":[{"indexed":true,"internalType":"uint256","name":"batchId","type":"uint256"},{"indexed":true,"internalType":"bytes32","name":"stateRoot","type":"bytes32"},{"indexed":false,"internalType":"bytes32","name":"txRoot","type":"bytes32"},{"indexed":false,"internalType":"uint256","name":"submittedAt","type":"uint256"}],"name":"BatchSubmitted","type":"event"},{"inputs":[{"internalType":"uint256","name":"","type":"uint256"}],"name":"batches","outputs":[{"internalType":"bytes32","name":"stateRoot","type":"bytes32"},{"internalType":"bytes32","name":"txRoot","type":"bytes32"},{"internalType":"uint256","name":"submittedAt","type":"uint256"},{"internalType":"bool","name":"challenged","type":"bool"},{"internalType":"bool","name":"finalized","type":"bool"}],"stateMutability":"view","type":"function"},{"inputs":[{"internalType":"uint256","name":"_batchId","type":"uint256"},{"internalType":"bytes32","name":"_reasonHash","type":"bytes32"}],"name":"challengeBatch","outputs":[],"stateMutability":"nonpayable","type":"function"},{"inputs":[],"name":"challengePeriod","outputs":[{"internalType":"uint256","name":"","type":"uint256"}],"stateMutability":"view","type":"function"},{"inputs":[{"internalType":"uint256","name":"_batchId","type":"uint256"}],"name":"finalizeBatch","outputs":[],"stateMutability":"nonpayable","type":"function"},{"inputs":[],"name":"latestBatchId","outputs":[{"internalType":"uint256","name":"","type":"uint256"}],"stateMutability":"view","type":"function"},{"inputs":[{"internalType":"bytes32","name":"_stateRoot","type":"bytes32"},{"internalType":"bytes32","name":"_txRoot","type":"bytes32"}],"name":"submitBatch","outputs":[{"internalType":"uint256","name":"batchId","type":"uint256"}],"stateMutability":"nonpayable","type":"function"}],"evm":{"bytecode":{"linkReferences":{},"object":"60a03461006657601f6104fd38819003918201601f19168301916001600160401b0383118484101761006a57808492602094604052833981010312610066575160805260405161047e908161007f823960805181818160750152818160ec01526103580152f35b5f80fd5b634e487b7160e01b5f52604160045260245ffdfe604060808152600480361015610013575f80fd5b5f3560e01c9081630b87a8b61461030a5781632bd2c9c1146102065781634d4e7019146101e9578163b32c4d8d1461018e578163e33491a71461009c575063f3f480d91461005f575f80fd5b34610098575f36600319011261009857602090517f00000000000000000000000000000000000000000000000000000000000000008152f35b5f80fd5b823461009857602036600319011261009857813591825f526001602052815f20916100c78385610423565b600383019182549160ff8360081c166101785760ff83166101625761011160028601547f000000000000000000000000000000000000000000000000000000000000000090610402565b421061014c57505061ff00191661010017905554907fa3ea0288fb824a30cae7f7d72a9e887bd0926c40c8438c43b49cfca687b0df525f80a3005b51631ef362eb60e11b8152908101859052602490fd5b5163af4c38cf60e01b8152908101859052602490fd5b5163a99bd78160e01b8152908101859052602490fd5b82346100985760203660031901126100985760a091355f52600160205260ff815f20918254926001810154916003600283015492015492815195865260208601528401528181161515606084015260081c1615156080820152f35b8234610098575f366003190112610098576020905f549051908152f35b905034610098578160031936011261009857803591602435925f545f1981146102f75760010192835f5582519060a082019082821067ffffffffffffffff8311176102e457508360209686937f10494fd8d078f65a2fe29b29e5d55c999ce38ad208f875aac615fcad550bd52393835285815288810182815260038483019242845260608101935f855260808201935f8552895f5260018e52875f209251835551600183015551600282015501915115159060ff61ff0084549251151560081b1692169061ffff19161717905581519081524288820152a351908152f35b604190634e487b7160e01b5f525260245ffd5b601184634e487b7160e01b5f525260245ffd5b8234610098578060031936011261009857813591825f526001602052815f206103338185610423565b600381019182549160ff8360081c166103eb5760ff83166103d457600261037d9101547f000000000000000000000000000000000000000000000000000000000000000090610402565b42116103bd575060019060ff1916179055519060243582527f299468d5db026de6da949eaa2db6538194f5786e9f5987d21f912b8864f32e8e60203393a3005b8351634046dd8160e01b8152908101859052602490fd5b845163347d276f60e01b8152808301879052602490fd5b845163a99bd78160e01b8152808301879052602490fd5b9190820180921161040f57565b634e487b7160e01b5f52601160045260245ffd5b9060020154156104305750565b60249060405190633c52612960e21b82526004820152fdfea264697066735822122089312de08b9186c183e2ade1feae8c79d7705fe60f25e516e9cf853a531103a964736f6c63430008180033","opcodes":"PUSH1 0xA0 CALLVALUE PUSH2 0x66 JUMPI PUSH1 0x1F PUSH2 0x4FD CODESIZE DUP2 SWAP1 SUB SWAP2 DUP3 ADD PUSH1 0x1F NOT AND DUP4 ADD SWAP2 PUSH1 0x1 PUSH1 0x1 PUSH1 0x40 SHL SUB DUP4 GT DUP5 DUP5 LT OR PUSH2 0x6A JUMPI DUP1 DUP5 SWAP3 PUSH1 0x20 SWAP5 PUSH1 0x40 MSTORE DUP4 CODECOPY DUP2 ADD SUB SLT PUSH2 0x66 JUMPI MLOAD PUSH1 0x80 MSTORE PUSH1 0x40 MLOAD PUSH2 0x47E SWAP1 DUP2 PUSH2 0x7F DUP3 CODECOPY PUSH1 0x80 MLOAD DUP2 DUP2 DUP2 PUSH1 0x75 ADD MSTORE DUP2 DUP2 PUSH1 0xEC ADD MSTORE PUSH2 0x358 ADD MSTORE RETURN JUMPDEST PUSH0 DUP1 REVERT JUMPDEST PUSH4 0x4E487B71 PUSH1 0xE0 SHL PUSH0 MSTORE PUSH1 0x41 PUSH1 0x4 MSTORE PUSH1 0x24 PUSH0 REVERT INVALID PUSH1 0x40 PUSH1 0x80 DUP2 MSTORE PUSH1 0x4 DUP1 CALLDATASIZE LT ISZERO PUSH2 0x13 JUMPI PUSH0 DUP1 REVERT JUMPDEST PUSH0 CALLDATALOAD PUSH1 0xE0 SHR SWAP1 DUP2 PUSH4 0xB87A8B6 EQ PUSH2 0x30A JUMPI DUP2 PUSH4 0x2BD2C9C1 EQ PUSH2 0x206 JUMPI DUP2 PUSH4 0x4D4E7019 EQ PUSH2 0x1E9 JUMPI DUP2 PUSH4 0xB32C4D8D EQ PUSH2 0x18E JUMPI DUP2 PUSH4 0xE33491A7 EQ PUSH2 0x9C JUMPI POP PUSH4 0xF3F480D9 EQ PUSH2 0x5F JUMPI PUSH0 DUP1 REVERT JUMPDEST CALLVALUE PUSH2 0x98 JUMPI PUSH0 CALLDATASIZE PUSH1 0x3 NOT ADD SLT PUSH2 0x98 JUMPI PUSH1 0x20 SWAP1 MLOAD PUSH32 0x0 DUP2 MSTORE RETURN JUMPDEST PUSH0 DUP1 REVERT JUMPDEST DUP3 CALLVALUE PUSH2 0x98 JUMPI PUSH1 0x20 CALLDATASIZE PUSH1 0x3 NOT ADD SLT PUSH2 0x98 JUMPI DUP2 CALLDATALOAD SWAP2 DUP3 PUSH0 MSTORE PUSH1 0x1 PUSH1 0x20 MSTORE DUP2 PUSH0 KECCAK256 SWAP2 PUSH2 0xC7 DUP4 DUP6 PUSH2 0x423 JUMP JUMPDEST PUSH1 0x3 DUP4 ADD SWAP2 DUP3 SLOAD SWAP2 PUSH1 0xFF DUP4 PUSH1 0x8 SHR AND PUSH2 0x178 JUMPI PUSH1 0xFF DUP4 AND PUSH2 0x162 JUMPI PUSH2 0x111 PUSH1 0x2 DUP7 ADD SLOAD PUSH32 0x0 SWAP1 PUSH2 0x402 JUMP JUMPDEST TIMESTAMP LT PUSH2 0x14C JUMPI POP POP PUSH2 0xFF00 NOT AND PUSH2 0x100 OR SWAP1 SSTORE SLOAD SWAP1 PUSH32 0xA3EA0288FB824A30CAE7F7D72A9E887BD0926C40C8438C43B49CFCA687B0DF52 PUSH0 DUP1 LOG3 STOP JUMPDEST MLOAD PUSH4 0x1EF362EB PUSH1 0xE1 SHL DUP2 MSTORE SWAP1 DUP2 ADD DUP6 SWAP1 MSTORE PUSH1 0x24 SWAP1 REVERT JUMPDEST MLOAD PUSH4 0xAF4C38CF PUSH1 0xE0 SHL DUP2 MSTORE SWAP1 DUP2 ADD DUP6 SWAP1 MSTORE PUSH1 0x24 SWAP1 REVERT JUMPDEST MLOAD PUSH4 0xA99BD781 PUSH1 0xE0 SHL DUP2 MSTORE SWAP1 DUP2 ADD DUP6 SWAP1 MSTORE PUSH1 0x24 SWAP1 REVERT JUMPDEST DUP3 CALLVALUE PUSH2 0x98 JUMPI PUSH1 0x20 CALLDATASIZE PUSH1 0x3 NOT ADD SLT PUSH2 0x98 JUMPI PUSH1 0xA0 SWAP2 CALLDATALOAD PUSH0 MSTORE PUSH1 0x1 PUSH1 0x20 MSTORE PUSH1 0xFF DUP2 PUSH0 KECCAK256 SWAP2 DUP3 SLOAD SWAP3 PUSH1 0x1 DUP2 ADD SLOAD SWAP2 PUSH1 0x3 PUSH1 0x2 DUP4 ADD SLOAD SWAP3 ADD SLOAD SWAP3 DUP2 MLOAD SWAP6 DUP7 MSTORE PUSH1 0x20 DUP7 ADD MSTORE DUP5 ADD MSTORE DUP2 DUP2 AND ISZERO ISZERO PUSH1 0x60 DUP5 ADD MSTORE PUSH1 0x8 SHR AND ISZERO ISZERO PUSH1 0x80 DUP3 ADD MSTORE RETURN JUMPDEST DUP3 CALLVALUE PUSH2 0x98 JUMPI PUSH0 CALLDATASIZE PUSH1 0x3 NOT ADD SLT PUSH2 0x98 JUMPI PUSH1 0x20 SWAP1 PUSH0 SLOAD SWAP1 MLOAD SWAP1 DUP2 MSTORE RETURN JUMPDEST SWAP1 POP CALLVALUE PUSH2 0x98 JUMPI DUP2 PUSH1 0x3 NOT CALLDATASIZE ADD SLT PUSH2 0x98 JUMPI DUP1 CALLDATALOAD SWAP2 PUSH1 0x24 CALLDATALOAD SWAP3 PUSH0 SLOAD PUSH0 NOT DUP2 EQ PUSH2 0x2F7 JUMPI PUSH1 0x1 ADD SWAP3 DUP4 PUSH0 SSTORE DUP3 MLOAD SWAP1 PUSH1 0xA0 DUP3 ADD SWAP1 DUP3 DUP3 LT PUSH8 0xFFFFFFFFFFFFFFFF DUP4 GT OR PUSH2 0x2E4 JUMPI POP DUP4 PUSH1 0x20 SWAP7 DUP7 SWAP4 PUSH32 0x10494FD8D078F65A2FE29B29E5D55C999CE38AD208F875AAC615FCAD550BD523 SWAP4 DUP4 MSTORE DUP6 DUP2 MSTORE DUP9 DUP2 ADD DUP3 DUP2 MSTORE PUSH1 0x3 DUP5 DUP4 ADD SWAP3 TIMESTAMP DUP5 MSTORE PUSH1 0x60 DUP2 ADD SWAP4 PUSH0 DUP6 MSTORE PUSH1 0x80 DUP3 ADD SWAP4 PUSH0 DUP6 MSTORE DUP10 PUSH0 MSTORE PUSH1 0x1 DUP15 MSTORE DUP8 PUSH0 KECCAK256 SWAP3 MLOAD DUP4 SSTORE MLOAD PUSH1 0x1 DUP4 ADD SSTORE MLOAD PUSH1 0x2 DUP3 ADD SSTORE ADD SWAP2 MLOAD ISZERO ISZERO SWAP1 PUSH1 0xFF PUSH2 0xFF00 DUP5 SLOAD SWAP3 MLOAD ISZERO ISZERO PUSH1 0x8 SHL AND SWAP3 AND SWAP1 PUSH2 0xFFFF NOT AND OR OR SWAP1 SSTORE DUP2 MLOAD SWAP1 DUP2 MSTORE TIMESTAMP DUP9 DUP3 ADD MSTORE LOG3 MLOAD SWAP1 DUP2 MSTORE RETURN JUMPDEST PUSH1 0x41 SWAP1 PUSH4 0x4E487B71 PUSH1 0xE0 SHL PUSH0 MSTORE MSTORE PUSH1 0x24 PUSH0 REVERT JUMPDEST PUSH1 0x11 DUP5 PUSH4 0x4E487B71 PUSH1 0xE0 SHL PUSH0 MSTORE MSTORE PUSH1 0x24 PUSH0 REVERT JUMPDEST DUP3 CALLVALUE PUSH2 0x98 JUMPI DUP1 PUSH1 0x3 NOT CALLDATASIZE ADD SLT PUSH2 0x98 JUMPI DUP2 CALLDATALOAD SWAP2 DUP3 PUSH0 MSTORE PUSH1 0x1 PUSH1 0x20 MSTORE DUP2 PUSH0 KECCAK256 PUSH2 0x333 DUP2 DUP6 PUSH2 0x423 JUMP JUMPDEST PUSH1 0x3 DUP2 ADD SWAP2 DUP3 SLOAD SWAP2 PUSH1 0xFF DUP4 PUSH1 0x8 SHR AND PUSH2 0x3EB JUMPI PUSH1 0xFF DUP4 AND PUSH2 0x3D4 JUMPI PUSH1 0x2 PUSH2 0x37D SWAP2 ADD SLOAD PUSH32 0x0 SWAP1 PUSH2 0x402 JUMP JUMPDEST TIMESTAMP GT PUSH2 0x3BD JUMPI POP PUSH1 0x1 SWAP1 PUSH1 0xFF NOT AND OR SWAP1 SSTORE MLOAD SWAP1 PUSH1 0x24 CALLDATALOAD DUP3 MSTORE PUSH32 0x299468D5DB026DE6DA949EAA2DB6538194F5786E9F5987D21F912B8864F32E8E PUSH1 0x20 CALLER SWAP4 LOG3 STOP JUMPDEST DUP4 MLOAD PUSH4 0x4046DD81 PUSH1 0xE0 SHL DUP2 MSTORE SWAP1 DUP2 ADD DUP6 SWAP1 MSTORE PUSH1 0x24 SWAP1 REVERT JUMPDEST DUP5 MLOAD PUSH4 0x347D276F PUSH1 0xE0 SHL DUP2 MSTORE DUP1 DUP4 ADD DUP8 SWAP1 MSTORE PUSH1 0x24 SWAP1 REVERT JUMPDEST DUP5 MLOAD PUSH4 0xA99BD781 PUSH1 0xE0 SHL DUP2 MSTORE DUP1 DUP4 ADD DUP8 SWAP1 MSTORE PUSH1 0x24 SWAP1 REVERT JUMPDEST SWAP2 SWAP1 DUP3 ADD DUP1 SWAP3 GT PUSH2 0x40F JUMPI JUMP JUMPDEST PUSH4 0x4E487B71 PUSH1 0xE0 SHL PUSH0 MSTORE PUSH1 0x11 PUSH1 0x4 MSTORE PUSH1 0x24 PUSH0 REVERT JUMPDEST SWAP1 PUSH1 0x2 ADD SLOAD ISZERO PUSH2 0x430 JUMPI POP JUMP JUMPDEST PUSH1 0x24 SWAP1 PUSH1 0x40 MLOAD SWAP1 PUSH4 0x3C526129 PUSH1 0xE2 SHL DUP3 MSTORE PUSH1 0x4 DUP3 ADD MSTORE REVERT INVALID LOG2 PUSH5 0x6970667358 0x22 SLT KECCAK256 DUP10 BALANCE 0x2D 0xE0 DUP12 SWAP2 DUP7 0xC1 DUP4 0xE2 0xAD 0xE1 INVALID 0xAE DUP13 PUSH26 0xD7705FE60F25E516E9CF853A531103A964736F6C634300081800 CALLER "},"methodIdentifiers":{"batches(uint256)":"b32c4d8d","challengeBatch(uint256,bytes32)":"0b87a8b6","challengePeriod()":"f3f480d9","finalizeBatch(uint256)":"e33491a7","latestBatchId()":"4d4e7019","submitBatch(bytes32,bytes32)":"2bd2c9c1"}}}}}