{
  "_format": "hh3-artifact-1",
  "contractName": "InteractiveOptimisticRollup",
  "sourceName": "contracts/InteractiveOptimisticRollup.sol",
  "abi": [
    {
      "inputs": [
        {
          "internalType": "uint256",
          "name": "_challengePeriodSeconds",
          "type": "uint256"
        },
        {
          "internalType": "uint256",
          "name": "_sequencerBond",
          "type": "uint256"
        },
        {
          "internalType": "uint256",
          "name": "_challengerBond",
          "type": "uint256"
        }
      ],
      "stateMutability": "nonpayable",
      "type": "constructor"
    },
    {
      "inputs": [
        {
          "internalType": "uint256",
          "name": "batchId",
          "type": "uint256"
        }
      ],
      "name": "BatchAlreadyChallenged",
      "type": "error"
    },
    {
      "inputs": [
        {
          "internalType": "uint256",
          "name": "batchId",
          "type": "uint256"
        }
      ],
      "name": "BatchAlreadyFinalized",
      "type": "error"
    },
    {
      "inputs": [
        {
          "internalType": "uint256",
          "name": "batchId",
          "type": "uint256"
        }
      ],
      "name": "BatchDoesNotExist",
      "type": "error"
    },
    {
      "inputs": [
        {
          "internalType": "uint256",
          "name": "batchId",
          "type": "uint256"
        }
      ],
      "name": "BatchInvalidated",
      "type": "error"
    },
    {
      "inputs": [
        {
          "internalType": "uint256",
          "name": "batchId",
          "type": "uint256"
        }
      ],
      "name": "ChallengeWindowClosed",
      "type": "error"
    },
    {
      "inputs": [
        {
          "internalType": "uint256",
          "name": "batchId",
          "type": "uint256"
        }
      ],
      "name": "ChallengeWindowStillOpen",
      "type": "error"
    },
    {
      "inputs": [],
      "name": "ClaimsMustDiffer",
      "type": "error"
    },
    {
      "inputs": [
        {
          "internalType": "uint256",
          "name": "batchId",
          "type": "uint256"
        }
      ],
      "name": "DisputeAlreadyResolved",
      "type": "error"
    },
    {
      "inputs": [
        {
          "internalType": "uint256",
          "name": "batchId",
          "type": "uint256"
        }
      ],
      "name": "DisputeNotActive",
      "type": "error"
    },
    {
      "inputs": [
        {
          "internalType": "uint256",
          "name": "batchId",
          "type": "uint256"
        }
      ],
      "name": "DisputeNotAtSingleStep",
      "type": "error"
    },
    {
      "inputs": [],
      "name": "EmptyBatch",
      "type": "error"
    },
    {
      "inputs": [
        {
          "internalType": "uint256",
          "name": "expected",
          "type": "uint256"
        },
        {
          "internalType": "uint256",
          "name": "actual",
          "type": "uint256"
        }
      ],
      "name": "InvalidChallengerBond",
      "type": "error"
    },
    {
      "inputs": [],
      "name": "InvalidDisputedIndex",
      "type": "error"
    },
    {
      "inputs": [
        {
          "internalType": "uint256",
          "name": "expected",
          "type": "uint256"
        },
        {
          "internalType": "uint256",
          "name": "actual",
          "type": "uint256"
        }
      ],
      "name": "InvalidSequencerBond",
      "type": "error"
    },
    {
      "inputs": [
        {
          "internalType": "uint256",
          "name": "batchId",
          "type": "uint256"
        },
        {
          "internalType": "bool",
          "name": "isSequencer",
          "type": "bool"
        }
      ],
      "name": "MidpointAlreadySubmitted",
      "type": "error"
    },
    {
      "inputs": [
        {
          "internalType": "address",
          "name": "account",
          "type": "address"
        }
      ],
      "name": "NoWithdrawableBalance",
      "type": "error"
    },
    {
      "inputs": [
        {
          "internalType": "address",
          "name": "caller",
          "type": "address"
        },
        {
          "internalType": "address",
          "name": "challenger",
          "type": "address"
        }
      ],
      "name": "OnlyChallenger",
      "type": "error"
    },
    {
      "inputs": [
        {
          "internalType": "address",
          "name": "caller",
          "type": "address"
        },
        {
          "internalType": "address",
          "name": "sequencer",
          "type": "address"
        }
      ],
      "name": "OnlySequencer",
      "type": "error"
    },
    {
      "inputs": [
        {
          "internalType": "uint256",
          "name": "batchId",
          "type": "uint256"
        },
        {
          "internalType": "bool",
          "name": "isSequencer",
          "type": "bool"
        }
      ],
      "name": "SingleStepClaimAlreadySubmitted",
      "type": "error"
    },
    {
      "anonymous": false,
      "inputs": [
        {
          "indexed": true,
          "internalType": "uint256",
          "name": "batchId",
          "type": "uint256"
        },
        {
          "indexed": false,
          "internalType": "int256",
          "name": "claimedFinalState",
          "type": "int256"
        }
      ],
      "name": "BatchFinalized",
      "type": "event"
    },
    {
      "anonymous": false,
      "inputs": [
        {
          "indexed": true,
          "internalType": "uint256",
          "name": "batchId",
          "type": "uint256"
        },
        {
          "indexed": true,
          "internalType": "int256",
          "name": "initialState",
          "type": "int256"
        },
        {
          "indexed": false,
          "internalType": "int256",
          "name": "claimedFinalState",
          "type": "int256"
        },
        {
          "indexed": false,
          "internalType": "uint256",
          "name": "txCount",
          "type": "uint256"
        },
        {
          "indexed": false,
          "internalType": "uint256",
          "name": "submittedAt",
          "type": "uint256"
        }
      ],
      "name": "BatchSubmitted",
      "type": "event"
    },
    {
      "anonymous": false,
      "inputs": [
        {
          "indexed": true,
          "internalType": "uint256",
          "name": "batchId",
          "type": "uint256"
        },
        {
          "indexed": false,
          "internalType": "int256",
          "name": "challengerFinalState",
          "type": "int256"
        }
      ],
      "name": "ChallengeInitiated",
      "type": "event"
    },
    {
      "anonymous": false,
      "inputs": [
        {
          "indexed": true,
          "internalType": "uint256",
          "name": "batchId",
          "type": "uint256"
        },
        {
          "indexed": false,
          "internalType": "uint256",
          "name": "start",
          "type": "uint256"
        },
        {
          "indexed": false,
          "internalType": "uint256",
          "name": "end",
          "type": "uint256"
        },
        {
          "indexed": false,
          "internalType": "uint256",
          "name": "mid",
          "type": "uint256"
        },
        {
          "indexed": false,
          "internalType": "bool",
          "name": "lowerHalfDisputed",
          "type": "bool"
        }
      ],
      "name": "DisputeBisected",
      "type": "event"
    },
    {
      "anonymous": false,
      "inputs": [
        {
          "indexed": true,
          "internalType": "uint256",
          "name": "batchId",
          "type": "uint256"
        },
        {
          "indexed": false,
          "internalType": "bool",
          "name": "challengerWon",
          "type": "bool"
        },
        {
          "indexed": false,
          "internalType": "bool",
          "name": "sequencerWon",
          "type": "bool"
        },
        {
          "indexed": false,
          "internalType": "uint256",
          "name": "disputedIndex",
          "type": "uint256"
        }
      ],
      "name": "DisputeResolved",
      "type": "event"
    },
    {
      "anonymous": false,
      "inputs": [
        {
          "indexed": true,
          "internalType": "uint256",
          "name": "batchId",
          "type": "uint256"
        },
        {
          "indexed": true,
          "internalType": "address",
          "name": "claimer",
          "type": "address"
        },
        {
          "indexed": false,
          "internalType": "bool",
          "name": "isSequencer",
          "type": "bool"
        },
        {
          "indexed": false,
          "internalType": "uint256",
          "name": "mid",
          "type": "uint256"
        },
        {
          "indexed": false,
          "internalType": "int256",
          "name": "claimedStateAtMid",
          "type": "int256"
        }
      ],
      "name": "MidpointClaimSubmitted",
      "type": "event"
    },
    {
      "anonymous": false,
      "inputs": [
        {
          "indexed": true,
          "internalType": "uint256",
          "name": "batchId",
          "type": "uint256"
        },
        {
          "indexed": true,
          "internalType": "address",
          "name": "claimer",
          "type": "address"
        },
        {
          "indexed": false,
          "internalType": "bool",
          "name": "isSequencer",
          "type": "bool"
        },
        {
          "indexed": false,
          "internalType": "uint256",
          "name": "disputedIndex",
          "type": "uint256"
        },
        {
          "indexed": false,
          "internalType": "int256",
          "name": "claimedPostState",
          "type": "int256"
        }
      ],
      "name": "SingleStepClaimSubmitted",
      "type": "event"
    },
    {
      "inputs": [
        {
          "internalType": "uint256",
          "name": "",
          "type": "uint256"
        }
      ],
      "name": "batches",
      "outputs": [
        {
          "internalType": "address",
          "name": "sequencer",
          "type": "address"
        },
        {
          "internalType": "int256",
          "name": "initialState",
          "type": "int256"
        },
        {
          "internalType": "int256",
          "name": "claimedFinalState",
          "type": "int256"
        },
        {
          "internalType": "uint256",
          "name": "submittedAt",
          "type": "uint256"
        },
        {
          "internalType": "uint256",
          "name": "txCount",
          "type": "uint256"
        },
        {
          "internalType": "bool",
          "name": "challenged",
          "type": "bool"
        },
        {
          "internalType": "bool",
          "name": "finalized",
          "type": "bool"
        },
        {
          "internalType": "bool",
          "name": "invalidated",
          "type": "bool"
        },
        {
          "internalType": "bool",
          "name": "bondSettled",
          "type": "bool"
        }
      ],
      "stateMutability": "view",
      "type": "function"
    },
    {
      "inputs": [
        {
          "internalType": "uint256",
          "name": "_batchId",
          "type": "uint256"
        },
        {
          "internalType": "int256",
          "name": "_sequencerStateAtMid",
          "type": "int256"
        },
        {
          "internalType": "int256",
          "name": "_challengerStateAtMid",
          "type": "int256"
        }
      ],
      "name": "bisectDispute",
      "outputs": [],
      "stateMutability": "nonpayable",
      "type": "function"
    },
    {
      "inputs": [],
      "name": "challengePeriod",
      "outputs": [
        {
          "internalType": "uint256",
          "name": "",
          "type": "uint256"
        }
      ],
      "stateMutability": "view",
      "type": "function"
    },
    {
      "inputs": [],
      "name": "challengerBond",
      "outputs": [
        {
          "internalType": "uint256",
          "name": "",
          "type": "uint256"
        }
      ],
      "stateMutability": "view",
      "type": "function"
    },
    {
      "inputs": [
        {
          "internalType": "address",
          "name": "",
          "type": "address"
        }
      ],
      "name": "claimableBalances",
      "outputs": [
        {
          "internalType": "uint256",
          "name": "",
          "type": "uint256"
        }
      ],
      "stateMutability": "view",
      "type": "function"
    },
    {
      "inputs": [
        {
          "internalType": "uint256",
          "name": "",
          "type": "uint256"
        }
      ],
      "name": "disputes",
      "outputs": [
        {
          "internalType": "address",
          "name": "challenger",
          "type": "address"
        },
        {
          "internalType": "bool",
          "name": "active",
          "type": "bool"
        },
        {
          "internalType": "bool",
          "name": "resolved",
          "type": "bool"
        },
        {
          "internalType": "uint256",
          "name": "start",
          "type": "uint256"
        },
        {
          "internalType": "uint256",
          "name": "end",
          "type": "uint256"
        },
        {
          "internalType": "uint256",
          "name": "mid",
          "type": "uint256"
        },
        {
          "internalType": "int256",
          "name": "sequencerFinalState",
          "type": "int256"
        },
        {
          "internalType": "int256",
          "name": "challengerFinalState",
          "type": "int256"
        },
        {
          "internalType": "int256",
          "name": "sequencerStateAtMid",
          "type": "int256"
        },
        {
          "internalType": "int256",
          "name": "challengerStateAtMid",
          "type": "int256"
        },
        {
          "internalType": "bool",
          "name": "sequencerMidSubmitted",
          "type": "bool"
        },
        {
          "internalType": "bool",
          "name": "challengerMidSubmitted",
          "type": "bool"
        },
        {
          "internalType": "int256",
          "name": "sequencerSingleStepPostState",
          "type": "int256"
        },
        {
          "internalType": "int256",
          "name": "challengerSingleStepPostState",
          "type": "int256"
        },
        {
          "internalType": "bool",
          "name": "sequencerSingleStepSubmitted",
          "type": "bool"
        },
        {
          "internalType": "bool",
          "name": "challengerSingleStepSubmitted",
          "type": "bool"
        },
        {
          "internalType": "bool",
          "name": "sequencerWon",
          "type": "bool"
        },
        {
          "internalType": "bool",
          "name": "challengerWon",
          "type": "bool"
        }
      ],
      "stateMutability": "view",
      "type": "function"
    },
    {
      "inputs": [
        {
          "internalType": "uint256",
          "name": "_batchId",
          "type": "uint256"
        }
      ],
      "name": "finalizeBatch",
      "outputs": [],
      "stateMutability": "nonpayable",
      "type": "function"
    },
    {
      "inputs": [
        {
          "internalType": "uint256",
          "name": "_batchId",
          "type": "uint256"
        }
      ],
      "name": "getBatchDeltas",
      "outputs": [
        {
          "internalType": "int256[]",
          "name": "",
          "type": "int256[]"
        }
      ],
      "stateMutability": "view",
      "type": "function"
    },
    {
      "inputs": [
        {
          "internalType": "uint256",
          "name": "_batchId",
          "type": "uint256"
        },
        {
          "internalType": "uint256",
          "name": "_index",
          "type": "uint256"
        }
      ],
      "name": "getDeltaAt",
      "outputs": [
        {
          "internalType": "int256",
          "name": "",
          "type": "int256"
        }
      ],
      "stateMutability": "view",
      "type": "function"
    },
    {
      "inputs": [
        {
          "internalType": "uint256",
          "name": "_batchId",
          "type": "uint256"
        },
        {
          "internalType": "int256",
          "name": "_challengerFinalState",
          "type": "int256"
        }
      ],
      "name": "initiateChallenge",
      "outputs": [],
      "stateMutability": "payable",
      "type": "function"
    },
    {
      "inputs": [],
      "name": "latestBatchId",
      "outputs": [
        {
          "internalType": "uint256",
          "name": "",
          "type": "uint256"
        }
      ],
      "stateMutability": "view",
      "type": "function"
    },
    {
      "inputs": [
        {
          "internalType": "uint256",
          "name": "_batchId",
          "type": "uint256"
        },
        {
          "internalType": "int256",
          "name": "_sequencerClaimedPostState",
          "type": "int256"
        },
        {
          "internalType": "int256",
          "name": "_challengerClaimedPostState",
          "type": "int256"
        }
      ],
      "name": "resolveSingleStep",
      "outputs": [],
      "stateMutability": "nonpayable",
      "type": "function"
    },
    {
      "inputs": [],
      "name": "sequencerBond",
      "outputs": [
        {
          "internalType": "uint256",
          "name": "",
          "type": "uint256"
        }
      ],
      "stateMutability": "view",
      "type": "function"
    },
    {
      "inputs": [
        {
          "internalType": "int256",
          "name": "_initialState",
          "type": "int256"
        },
        {
          "internalType": "int256",
          "name": "_claimedFinalState",
          "type": "int256"
        },
        {
          "internalType": "int256[]",
          "name": "_deltas",
          "type": "int256[]"
        }
      ],
      "name": "submitBatch",
      "outputs": [
        {
          "internalType": "uint256",
          "name": "batchId",
          "type": "uint256"
        }
      ],
      "stateMutability": "payable",
      "type": "function"
    },
    {
      "inputs": [
        {
          "internalType": "uint256",
          "name": "_batchId",
          "type": "uint256"
        },
        {
          "internalType": "int256",
          "name": "_challengerStateAtMid",
          "type": "int256"
        }
      ],
      "name": "submitChallengerMidpointClaim",
      "outputs": [],
      "stateMutability": "nonpayable",
      "type": "function"
    },
    {
      "inputs": [
        {
          "internalType": "uint256",
          "name": "_batchId",
          "type": "uint256"
        },
        {
          "internalType": "int256",
          "name": "_challengerClaimedPostState",
          "type": "int256"
        }
      ],
      "name": "submitChallengerSingleStepClaim",
      "outputs": [],
      "stateMutability": "nonpayable",
      "type": "function"
    },
    {
      "inputs": [
        {
          "internalType": "uint256",
          "name": "_batchId",
          "type": "uint256"
        },
        {
          "internalType": "int256",
          "name": "_sequencerStateAtMid",
          "type": "int256"
        }
      ],
      "name": "submitSequencerMidpointClaim",
      "outputs": [],
      "stateMutability": "nonpayable",
      "type": "function"
    },
    {
      "inputs": [
        {
          "internalType": "uint256",
          "name": "_batchId",
          "type": "uint256"
        },
        {
          "internalType": "int256",
          "name": "_sequencerClaimedPostState",
          "type": "int256"
        }
      ],
      "name": "submitSequencerSingleStepClaim",
      "outputs": [],
      "stateMutability": "nonpayable",
      "type": "function"
    },
    {
      "inputs": [],
      "name": "withdrawClaimable",
      "outputs": [],
      "stateMutability": "nonpayable",
      "type": "function"
    }
  ],
  "bytecode": "0x60e0346100be57601f61179638819003918201601f19168301916001600160401b038311848410176100c2578084926060946040528339810103126100be57805190604060208201519101519160805260a05260c0526040516116bf90816100d78239608051818181610104015281816101920152610954015260a051818181610221015281816105ef01528181610b2c015281816114a70152611562015260c0518181816108ff01528181610cb80152818161148601526115410152f35b5f80fd5b634e487b7160e01b5f52604160045260245ffdfe604060808152600480361015610013575f80fd5b5f3560e01c908163068b75311461102d578163368cf07214610f865781634d4e701914610f695781634fa982d414610e83578163564a565d14610d7057816358ca1fd714610d1457816368c8278f14610cdb57816368ccdc8614610ca15781636916489014610ad15781636e34ca28146108e657816373be42fd1461077d578163940f8e0e14610612578163a8608d18146105d8578163b32c4d8d14610544578163c67f7a0814610415578163e0965d16146102bd578163e33491a71461014457508063e4d849941461012b5763f3f480d9146100ee575f80fd5b34610127575f36600319011261012757602090517f00000000000000000000000000000000000000000000000000000000000000008152f35b5f80fd5b346101275761014261013c36611184565b91611353565b005b8234610127576020366003190112610127578135916101628361121e565b906005820190815460ff8160081c166102a65760ff8160101c1661028f5760ff8116610278576101b760038501547f00000000000000000000000000000000000000000000000000000000000000009061119e565b421061026157927f167adaeacf3d77bcc472487d71e5b09333c671d39cd85d3c2a5f61e0b71ba0ff949260029260ff61010060209761ff0019161780845560181c161561020b575b505001549051908152a2005b60018060a01b038354165f528552835f206102477f0000000000000000000000000000000000000000000000000000000000000000825461119e565b9055805463ff0000001916630100000017905586806101ff565b8451631ef362eb60e11b8152808301879052602490fd5b845163347d276f60e01b8152808301879052602490fd5b8451632ae2e86560e21b8152808301879052602490fd5b845163a99bd78160e01b8152808301879052602490fd5b905034610127576102cd3661116e565b91815f526003602052835f2093845460018060a01b0381168033036103e8575060ff8160a01c16156103d25760a81c60ff166103bd57600185015490600286015482036103a757600b860180549360ff8560081c1661038a575060ff939291869182600a8a015561010061ff001986161790558051925f84526020840152820152837f366f2f299a6e4f5bf9e4206207d65fa2cbf6b0f9b18f5093680e00e06e9bf91f60603393a31661037c57005b600961014293015490611353565b8251636340a9a560e11b81529081018690525f6024820152604490fd5b60249391505191632c4477e160e21b8352820152fd5b9160249251916313ccbabd60e31b8352820152fd5b50916024925191630e372c1f60e41b8352820152fd5b825163cbfe6cb760e01b8152338186019081526001600160a01b0390921660208301529081906040010390fd5b82346101275761042436611184565b90825f949394526003602052825f2091825460ff8160a01c161561052d5760a81c60ff16610516576001830190600282549401938454908181146104ff579061046c9161119e565b60011c92141595865f146104c2575094815f8051602061166a83398151915295966104bd9385555b549354945194859485926060929594919560808501968552602085015260408401521515910152565b0390a2005b60018301908184116104ec575091816104bd935f8051602061166a83398151915297989355610494565b601190634e487b7160e01b5f525260245ffd5b8651632c4477e160e21b8152808a01899052602490fd5b83516313ccbabd60e31b8152808701869052602490fd5b8451630e372c1f60e41b8152808801879052602490fd5b9050346101275760203660031901126101275760ff6101209282355f526001602052805f2060018060a01b03815416936001820154926002830154906005600385015493850154940154948151978852602088015286015260608501526080840152818116151560a0840152818160081c16151560c0840152818160101c16151560e084015260181c161515610100820152f35b8234610127575f36600319011261012757602090517f00000000000000000000000000000000000000000000000000000000000000008152f35b905034610127576106223661116e565b815f939293526003602052835f2090815460018060a01b038116803303610750575060ff8160a01c16156107395760a81c60ff166107225760018201549460028301549586811461070b57600884019081549560ff8760081c166106ee5750600761069160ff9899869361119e565b60011c95866003820155015561010061ff001986161790558051925f84526020840152820152837f94d715b6819d8757d5362f8a060997d036b290e4d7281a426ace768f82cecf1960603393a3166106e557005b61014290611251565b835163e34e893d60e01b81529081018890525f6024820152604490fd5b8151632c4477e160e21b8152808601879052602490fd5b84516313ccbabd60e31b8152808401859052602490fd5b8551630e372c1f60e41b8152808501869052602490fd5b865163cbfe6cb760e01b8152338187019081526001600160a01b0390921660208301529081906040010390fd5b9050346101275761078d3661116e565b6107968261121e565b5f838152600360205285902090549093906001600160a01b0316338190036108b95750835460ff8160a01c16156108a25760a81c60ff1661088b5760018401546002850154810361087457600b85019182549060ff82166108565750908387600160ff95948360098b015586191617809455805192600184526020840152820152847f366f2f299a6e4f5bf9e4206207d65fa2cbf6b0f9b18f5093680e00e06e9bf91f60603393a360081c1661084857005b600a61014293015491611353565b8751636340a9a560e11b815290810186905260016024820152604490fd5b8551632c4477e160e21b8152808301859052602490fd5b84516313ccbabd60e31b8152908101839052602490fd5b8551630e372c1f60e41b8152808301859052602490fd5b85516311822a9760e01b8152339281019283526001600160a01b0390911660208301529081906040010390fd5b826108f03661116e565b9190926108fc8461121e565b907f0000000000000000000000000000000000000000000000000000000000000000803403610ab5575060058201805460ff8160081c16610a9e5760ff8160101c16610a875760ff8116610a705761097960038501547f00000000000000000000000000000000000000000000000000000000000000009061119e565b4211610a595760ff191660019081179091555f868152600360205284812080546001600160b01b0319163361ffff60a01b191617600160a01b17815591820155818301549092905f198101908111610a465792602094926002600b937f466c366b6d796e4b34154585f7a7a505732d2e4a9082fc01f1766fe0c13b27cb9896828501555f60038501550154908201558360058201555f60068201555f60078201556008810161ffff1981541690555f60098201555f600a8201550163ffffffff19815416905551908152a2005b601183634e487b7160e01b5f525260245ffd5b8451634046dd8160e01b8152808401889052602490fd5b845163347d276f60e01b8152808401889052602490fd5b8451632ae2e86560e21b8152808401889052602490fd5b845163a99bd78160e01b8152808401889052602490fd5b835163e04483ef60e01b81529182015234602482015260449150fd5b90506060366003190112610127578035916024928335936044359367ffffffffffffffff91828611610127573660238701121561012757858201359283116101275760059036818560051b89010111610127578315610c91577f0000000000000000000000000000000000000000000000000000000000000000803403610c7657505f54915f1997888414610c6457600180940198895f55895f526020936001602052895f2092336bffffffffffffffffffffffff60a01b85541617845589600185015560028d600286015560056003954260038201558b8b8201550163ffffffff1981541690555f5b8a8110610c065750505060208b8b8b8f7fbb31917f1fde51ff173767c9e35d5dd8829e15fd96d1a5dcb9c281327c0295d0606085928f8651918252888201524286820152a351908152f35b8d5f528188528c5f2080549068010000000000000000821015610c525781610c34918c8095940181556111f5565b815490891b908888858d1b89010135831b921b191617905501610bbb565b8560418d634e487b7160e01b5f52525ffd5b82601186634e487b7160e01b5f52525ffd5b86516309f0aa1d60e11b815293840152349083015250604490fd5b855163c2e5347d60e01b81528390fd5b8234610127575f36600319011261012757602090517f00000000000000000000000000000000000000000000000000000000000000008152f35b82346101275760203660031901126101275781356001600160a01b0381169290839003610127576020925f528252805f20549051908152f35b823461012757806003193601126101275781356024359280610d358361121e565b0154841015610d625750602092610d54915f5260028452825f206111f5565b91905490519160031b1c8152f35b82516344d35ab560e01b8152fd5b82346101275760203660031901126101275781355f526003602052805f208054926001820154906002830154906003840154908401546005850154600686015491600787015493600888015495600989015497600a8a015499600b01549a80519c8d600160a01b60019003821690528d8160a01c60ff161515906020015260a81c60ff161515908d015260608c015260808b015260a08a015260c089015260e088015261010087015261012086015260ff8116151561014086015260081c60ff1615156101608501526101808401526101a083015260ff811615156101c08301528060081c60ff1615156101e08301528060101c60ff16151561020083015260181c60ff16151561022082015261024090f35b905034610127575f36600319011261012757335f5280602052815f20548015610f52575f80808093338252856020528187812055335af13d15610f4d573d67ffffffffffffffff8111610f3a57835190610ee7601f8201601f1916602001836111bf565b81525f60203d92013e5b15610ef857005b6020606492519162461bcd60e51b8352820152601860248201527f7769746864726177207472616e73666572206661696c656400000000000000006044820152fd5b604183634e487b7160e01b5f525260245ffd5b610ef1565b5060249151906335bd849760e11b82523390820152fd5b8234610127575f366003190112610127576020905f549051908152f35b905034610127576020908160031936011261012757829035610fa78161121e565b505f5260028252805f208151928381835491828152019081935f52825f20905f5b8181106110195750505084610fde9103856111bf565b825181815293518185018190528493840192915f5b82811061100257505050500390f35b835185528695509381019392810192600101610ff3565b825484529284019260019283019201610fc8565b9050346101275761103d3661116e565b61104882939261121e565b5f848152600360205285902090549091906001600160a01b0316338190036111415750815460ff8160a01c16156107395760a81c60ff1661072257600182015492600283015480851461112a57600884019485549260ff841661110c5750918360066110ba60019460ff9a9b9661119e565b841c96876003820155015586191617809455805192600184526020840152820152837f94d715b6819d8757d5362f8a060997d036b290e4d7281a426ace768f82cecf1960603393a360081c166106e557005b885163e34e893d60e01b815290810188905260016024820152604490fd5b8651632c4477e160e21b8152808301879052602490fd5b85516311822a9760e01b8152338186019081526001600160a01b0390921660208301529081906040010390fd5b6040906003190112610127576004359060243590565b606090600319011261012757600435906024359060443590565b919082018092116111ab57565b634e487b7160e01b5f52601160045260245ffd5b90601f8019910116810190811067ffffffffffffffff8211176111e157604052565b634e487b7160e01b5f52604160045260245ffd5b805482101561120a575f5260205f2001905f90565b634e487b7160e01b5f52603260045260245ffd5b90815f52600160205260405f20916003830154156112395750565b60249060405190633c52612960e21b82526004820152fd5b805f52600360205260405f206008810190815460ff811615908115611329575b5061132457600381015490600681019283549360078301948554141591825f146112f5575f8051602061166a833981519152955f6112f0949381938860028901555b61ffff1981541690555555600260018401549301549360405194859485926060929594919560808501968552602085015260408401521515910152565b0390a2565b60018593929301958686116111ab575f6112f09481935f8051602061166a8339815191529960018901556112b3565b505050565b60ff915060081c16155f611271565b9190915f83820193841291129080158216911516176111ab57565b91825f5260039060209260038452604091825f20906113718761121e565b9082549360ff8560a01c16156116515760ff8560a81c16611639576001966001850154976002808701548a03611621578484146116105760048601548a10156115ff5791908b5f5260018b526001895f200154925f925b8d8c85106115cc57905060609b999795935061142692507f6bbc4f84909b75a535268d1e20ae8277d0ff2bb584a3c06e31532aaf26abff7a9c9a98969491505f5260028a5261141989895f206111f5565b90549060031b1c90611338565b61ffff60a01b19909516600160a81b178455600b8401805461ffff198116825590959092811491826115c1575b50501561151e575060056301000000918263ffff00001986541617855501916201000162ff00ff198454161783556114cb7f00000000000000000000000000000000000000000000000000000000000000007f000000000000000000000000000000000000000000000000000000000000000061119e565b90546001600160a01b03165f90815260048852859020805490916114ee9161119e565b9055815463ff00000019161790555b549260ff825194818160181c161515865260101c16151590840152820152a2565b63ffffffff19166201000017835560058101805462ff00ff1916815591506115867f00000000000000000000000000000000000000000000000000000000000000007f000000000000000000000000000000000000000000000000000000000000000061119e565b90546001600160a01b03165f90815260048752849020805490916115a99161119e565b9055805463ff000000191663010000001790556114fd565b141590505f80611453565b84956115e98f968e8688996115f5965f9a98999a52525f206111f5565b905490851b1c90611338565b94019291906113c8565b88516344d35ab560e01b8152600490fd5b88516336bbea8360e11b8152600490fd5b8851632c4477e160e21b8152600481018d9052602490fd5b85516313ccbabd60e31b8152600481018a9052602490fd5b8551630e372c1f60e41b8152600481018a9052602490fdfeda64b7ece081b948fb01c4077b52fd0f994bcc4c7fea7aac79bde4ecd43ddc5aa2646970667358221220bda7c129688d62bb8096a656eba4d5df525f4eb629dd608278e787a545cc572c64736f6c63430008180033",
  "linkReferences": {},
  "deployedLinkReferences": {},
  "immutableReferences": {
    "59": [
      {
        "length": 32,
        "start": 260
      },
      {
        "length": 32,
        "start": 402
      },
      {
        "length": 32,
        "start": 2388
      }
    ],
    "61": [
      {
        "length": 32,
        "start": 545
      },
      {
        "length": 32,
        "start": 1519
      },
      {
        "length": 32,
        "start": 2860
      },
      {
        "length": 32,
        "start": 5287
      },
      {
        "length": 32,
        "start": 5474
      }
    ],
    "63": [
      {
        "length": 32,
        "start": 2303
      },
      {
        "length": 32,
        "start": 3256
      },
      {
        "length": 32,
        "start": 5254
      },
      {
        "length": 32,
        "start": 5441
      }
    ]
  },
  "inputSourceName": "project/contracts/InteractiveOptimisticRollup.sol",
  "buildInfoId": "solc-0_8_24-3b265f0144b24c507b2e1e5fa1249e59f5a82853"
}